Component: ARM Compiler 5.06 update 7 (build 960) Tool: armlink [4d3601]

==============================================================================

Section Cross References

    system_stm32f10x.o(i.SetSysClock) refers to system_stm32f10x.o(i.SetSysClockTo72) for SetSysClockTo72
    system_stm32f10x.o(i.SystemCoreClockUpdate) refers to system_stm32f10x.o(.data) for .data
    system_stm32f10x.o(i.SystemInit) refers to system_stm32f10x.o(i.SetSysClock) for SetSysClock
    startup_stm32f10x_md.o(RESET) refers to startup_stm32f10x_md.o(STACK) for __initial_sp
    startup_stm32f10x_md.o(RESET) refers to startup_stm32f10x_md.o(.text) for Reset_Handler
    startup_stm32f10x_md.o(RESET) refers to stm32f10x_it.o(i.NMI_Handler) for NMI_Handler
    startup_stm32f10x_md.o(RESET) refers to stm32f10x_it.o(i.HardFault_Handler) for HardFault_Handler
    startup_stm32f10x_md.o(RESET) refers to stm32f10x_it.o(i.MemManage_Handler) for MemManage_Handler
    startup_stm32f10x_md.o(RESET) refers to stm32f10x_it.o(i.BusFault_Handler) for BusFault_Handler
    startup_stm32f10x_md.o(RESET) refers to stm32f10x_it.o(i.UsageFault_Handler) for UsageFault_Handler
    startup_stm32f10x_md.o(RESET) refers to stm32f10x_it.o(i.SVC_Handler) for SVC_Handler
    startup_stm32f10x_md.o(RESET) refers to stm32f10x_it.o(i.DebugMon_Handler) for DebugMon_Handler
    startup_stm32f10x_md.o(RESET) refers to stm32f10x_it.o(i.PendSV_Handler) for PendSV_Handler
    startup_stm32f10x_md.o(RESET) refers to bsp_cpu.o(i.SysTick_Handler) for SysTick_Handler
    startup_stm32f10x_md.o(RESET) refers to bsp_uart.o(i.USART1_IRQHandler) for USART1_IRQHandler
    startup_stm32f10x_md.o(.text) refers to system_stm32f10x.o(i.SystemInit) for SystemInit
    startup_stm32f10x_md.o(.text) refers to entry.o(.ARM.Collect$$$$00000000) for __main
    stm32f10x_flash.o(i.FLASH_EnableWriteProtection) refers to stm32f10x_flash.o(i.FLASH_WaitForLastOperation) for FLASH_WaitForLastOperation
==============================================================================

Removing Unused input sections from the image.

    Removing system_stm32f10x.o(i.SystemCoreClockUpdate), (124 bytes).
    Removing system_stm32f10x.o(.data), (20 bytes).
    Removing startup_stm32f10x_md.o(HEAP), (8192 bytes).
    Removing misc.o(i.NVIC_SetVectorTable), (20 bytes).
    Removing misc.o(i.NVIC_SystemLPConfig), (28 bytes).
    Removing misc.o(i.SysTick_CLKSourceConfig), (28 bytes).
    Removing stm32f10x_dbgmcu.o(i.DBGMCU_Config), (28 bytes).
    Removing stm32f10x_dbgmcu.o(i.DBGMCU_GetDEVID), (16 bytes).
    Removing stm32f10x_dbgmcu.o(i.DBGMCU_GetREVID), (12 bytes).
    Removing stm32f10x_dma.o(i.DMA_ClearFlag), (24 bytes).
    Removing stm32f10x_dma.o(i.DMA_ClearITPendingBit), (24 bytes).
    Removing stm32f10x_dma.o(i.DMA_Cmd), (26 bytes).
    Removing stm32f10x_dma.o(i.DMA_DeInit), (248 bytes).
    Removing stm32f10x_dma.o(i.DMA_GetCurrDataCounter), (6 bytes).
    Removing stm32f10x_dma.o(i.DMA_GetFlagStatus), (36 bytes).
    Removing stm32f10x_dma.o(i.DMA_GetITStatus), (36 bytes).
    Removing stm32f10x_dma.o(i.DMA_ITConfig), (20 bytes).
    Removing stm32f10x_dma.o(i.DMA_Init), (58 bytes).
==============================================================================

Image Symbol Table

    Local Symbols

    Symbol Name                              Value     Ov Type        Size  Object(Section)

    ../clib/microlib/ctype/ctype.c           0x00000000   Number         0  isupper_o.o ABSOLUTE
    ../clib/microlib/ctype/ctype.c           0x00000000   Number         0  isdigit_o.o ABSOLUTE
    ../clib/microlib/ctype/ctype.c           0x00000000   Number         0  isgraph_o.o ABSOLUTE
    ../clib/microlib/ctype/ctype.c           0x00000000   Number         0  islower_o.o ABSOLUTE
    ../clib/microlib/ctype/ctype.c           0x00000000   Number         0  isprint_o.o ABSOLUTE
    ../clib/microlib/ctype/ctype.c           0x00000000   Number         0  ispunct_o.o ABSOLUTE
    ../clib/microlib/ctype/ctype.c           0x00000000   Number         0  isspace_o.o ABSOLUTE
    ../clib/microlib/ctype/ctype.c           0x00000000   Number         0  ctype_o.o ABSOLUTE
    ../clib/microlib/ctype/ctype.c           0x00000000   Number         0  isblank_o.o ABSOLUTE
    ../clib/microlib/ctype/ctype.c           0x00000000   Number         0  isalnum_o.o ABSOLUTE
    ../clib/microlib/ctype/ctype.c           0x00000000   Number         0  isalpha_o.o ABSOLUTE
    ../clib/microlib/ctype/ctype.c           0x00000000   Number         0  isxdigit_o.o ABSOLUTE
    ../clib/microlib/ctype/ctype.c           0x00000000   Number         0  iscntrl_o.o ABSOLUTE
    ../clib/microlib/division.c              0x00000000   Number         0  uldiv.o ABSOLUTE
    ../clib/microlib/division.c              0x00000000   Number         0  uidiv.o ABSOLUTE
    ../clib/microlib/errno.c                 0x00000000   Number         0  errno.o ABSOLUTE
    ../clib/microlib/init/entry.s            0x00000000   Number         0  entry8b.o ABSOLUTE
    ../clib/microlib/init/entry.s            0x00000000   Number         0  entry5.o ABSOLUTE
    ../clib/microlib/init/entry.s            0x00000000   Number         0  entry11b.o ABSOLUTE
    ../clib/microlib/init/entry.s            0x00000000   Number         0  entry12a.o ABSOLUTE
    ../clib/microlib/init/entry.s            0x00000000   Number         0  entry7a.o ABSOLUTE
    ../clib/microlib/init/entry.s            0x00000000   Number         0  entry12b.o ABSOLUTE
    ../clib/microlib/init/entry.s            0x00000000   Number         0  entry7b.o ABSOLUTE
    ../clib/microlib/init/entry.s            0x00000000   Number         0  entry10b.o ABSOLUTE
    ../clib/microlib/init/entry.s            0x00000000   Number         0  entry8a.o ABSOLUTE
    ../clib/microlib/init/entry.s            0x00000000   Number         0  entry2.o ABSOLUTE
    ../clib/microlib/init/entry.s            0x00000000   Number         0  entry11a.o ABSOLUTE
    ../clib/microlib/init/entry.s            0x00000000   Number         0  entry.o ABSOLUTE
    ../clib/microlib/init/entry.s            0x00000000   Number         0  entry9a.o ABSOLUTE
    ../clib/microlib/init/entry.s            0x00000000   Number         0  entry10a.o ABSOLUTE
    ../clib/microlib/init/entry.s            0x00000000   Number         0  entry9b.o ABSOLUTE
    ../clib/microlib/longlong.c              0x00000000   Number         0  llshl.o ABSOLUTE
    ../clib/microlib/longlong.c              0x00000000   Number         0  llsshr.o ABSOLUTE
    ../clib/microlib/longlong.c              0x00000000   Number         0  llushr.o ABSOLUTE
    ../clib/microlib/printf/printf.c         0x00000000   Number         0  printfb.o ABSOLUTE
    ../clib/microlib/printf/printf.c         0x00000000   Number         0  printf1.o ABSOLUTE
    ../clib/microlib/printf/printf.c         0x00000000   Number         0  printf3.o ABSOLUTE
    ../clib/microlib/printf/printf.c         0x00000000   Number         0  printf4.o ABSOLUTE
    ../clib/microlib/printf/printf.c         0x00000000   Number         0  printf5.o ABSOLUTE
    ../clib/microlib/printf/printf.c         0x00000000   Number         0  printf6.o ABSOLUTE
    ../clib/microlib/printf/printf.c         0x00000000   Number         0  printf7.o ABSOLUTE
    ../clib/microlib/printf/printf.c         0x00000000   Number         0  printf8.o ABSOLUTE
    ../clib/microlib/printf/printf.c         0x00000000   Number         0  printf2.o ABSOLUTE
    ../clib/microlib/printf/printf.c         0x00000000   Number         0  printfa.o ABSOLUTE
    ../clib/microlib/printf/printf.c         0x00000000   Number         0  printf0.o ABSOLUTE
    ../clib/microlib/printf/stubs.s          0x00000000   Number         0  stubs.o ABSOLUTE
    ../clib/microlib/stdio/streams.c         0x00000000   Number         0  stdout.o ABSOLUTE
    ../clib/microlib/string/memcpy.c         0x00000000   Number         0  memcpyb.o ABSOLUTE
    ../clib/microlib/string/memcpy.c         0x00000000   Number         0  memcpya.o ABSOLUTE
    ../clib/microlib/stubs.s                 0x00000000   Number         0  iusefp.o ABSOLUTE
    ../clib/scanf.c                          0x00000000   Number         0  strtol.o ABSOLUTE
    ../clib/scanf.c                          0x00000000   Number         0  _strtoul.o ABSOLUTE
    ../clib/scanf.c                          0x00000000   Number         0  _chval.o ABSOLUTE
    ../fplib/microlib/fpadd.c                0x00000000   Number         0  dadd.o ABSOLUTE
    ../fplib/microlib/fpdiv.c                0x00000000   Number         0  ddiv.o ABSOLUTE
    ../fplib/microlib/fpepilogue.c           0x00000000   Number         0  depilogue.o ABSOLUTE
    ../fplib/microlib/fpfix.c                0x00000000   Number         0  dfixul.o ABSOLUTE
    ../fplib/microlib/fpmul.c                0x00000000   Number         0  dmul.o ABSOLUTE
    ..\BSP\bsp.c                             0x00000000   Number         0  bsp.o ABSOLUTE
    ..\BSP\src\bsp_cpu.c                     0x00000000   Number         0  bsp_cpu.o ABSOLUTE
    ..\BSP\src\bsp_uart.c                    0x00000000   Number         0  bsp_uart.o ABSOLUTE
    ..\Drivers\CMSIS\core_cm3.c              0x00000000   Number         0  core_cm3.o ABSOLUTE
    ..\Drivers\CMSIS\stm32f10x_it.c          0x00000000   Number         0  stm32f10x_it.o ABSOLUTE
    ..\Drivers\CMSIS\system_stm32f10x.c      0x00000000   Number         0  system_stm32f10x.o ABSOLUTE
    ..\Drivers\Lib\src\misc.c                0x00000000   Number         0  misc.o ABSOLUTE
    ..\Drivers\Lib\src\stm32f10x_adc.c       0x00000000   Number         0  stm32f10x_adc.o ABSOLUTE
    ..\Drivers\Lib\src\stm32f10x_dbgmcu.c    0x00000000   Number         0  stm32f10x_dbgmcu.o ABSOLUTE
    ..\Drivers\Lib\src\stm32f10x_dma.c       0x00000000   Number         0  stm32f10x_dma.o ABSOLUTE
    ..\Drivers\Lib\src\stm32f10x_flash.c     0x00000000   Number         0  stm32f10x_flash.o ABSOLUTE
    ..\Drivers\Lib\src\stm32f10x_gpio.c      0x00000000   Number         0  stm32f10x_gpio.o ABSOLUTE
    ..\Drivers\Lib\src\stm32f10x_iwdg.c      0x00000000   Number         0  stm32f10x_iwdg.o ABSOLUTE
    ..\Drivers\Lib\src\stm32f10x_rcc.c       0x00000000   Number         0  stm32f10x_rcc.o ABSOLUTE
    ..\Drivers\Lib\src\stm32f10x_tim.c       0x00000000   Number         0  stm32f10x_tim.o ABSOLUTE
    ..\Drivers\Lib\src\stm32f10x_usart.c     0x00000000   Number         0  stm32f10x_usart.o ABSOLUTE
    ..\Drivers\Starup\startup_stm32f10x_md.s 0x00000000   Number         0  startup_stm32f10x_md.o ABSOLUTE
    ..\Middleware\src\ringbuffer.c           0x00000000   Number         0  ringbuffer.o ABSOLUTE
    ..\User\crc16.c                          0x00000000   Number         0  crc16.o ABSOLUTE
    ..\User\main.c                           0x00000000   Number         0  main.o ABSOLUTE
    ..\User\upgrade.c                        0x00000000   Number         0  upgrade.o ABSOLUTE
    ..\User\ymodem.c                         0x00000000   Number         0  ymodem.o ABSOLUTE
    ..\\Drivers\\CMSIS\\core_cm3.c           0x00000000   Number         0  core_cm3.o ABSOLUTE
    cdrcmple.s                               0x00000000   Number         0  cdrcmple.o ABSOLUTE
    dc.s                                     0x00000000   Number         0  dc.o ABSOLUTE
    handlers.s                               0x00000000   Number         0  handlers.o ABSOLUTE
    init.s                                   0x00000000   Number         0  init.o ABSOLUTE
    RESET                                    0x08000000   Section      236  startup_stm32f10x_md.o(RESET)
    .ARM.Collect$$$$00000000                 0x080000ec   Section        0  entry.o(.ARM.Collect$$$$00000000)
    .ARM.Collect$$$$00000001                 0x080000ec   Section        4  entry2.o(.ARM.Collect$$$$00000001)
    .ARM.Collect$$$$00000004                 0x080000f0   Section        4  entry5.o(.ARM.Collect$$$$00000004)
    .ARM.Collect$$$$00000008                 0x080000f4   Section        0  entry7b.o(.ARM.Collect$$$$00000008)
    .ARM.Collect$$$$0000000A                 0x080000f4   Section        0  entry8b.o(.ARM.Collect$$$$0000000A)
    .ARM.Collect$$$$0000000B                 0x080000f4   Section        8  entry9a.o(.ARM.Collect$$$$0000000B)
    .ARM.Collect$$$$0000000E                 0x080000fc   Section        4  entry12b.o(.ARM.Collect$$$$0000000E)
    .ARM.Collect$$$$0000000F                 0x08000100   Section        0  entry10a.o(.ARM.Collect$$$$0000000F)
    .ARM.Collect$$$$00000011                 0x08000100   Section        0  entry11a.o(.ARM.Collect$$$$00000011)
    .ARM.Collect$$$$00002712                 0x08000100   Section        4  entry2.o(.ARM.Collect$$$$00002712)
    __lit__00000000                          0x08000100   Data           4  entry2.o(.ARM.Collect$$$$00002712)
    .emb_text                                0x08000104   Section       32  core_cm3.o(.emb_text)
    .text                                    0x08000124   Section       36  startup_stm32f10x_md.o(.text)
    .text                                    0x08000148   Section        0  memcpya.o(.text)
    .text                                    0x0800016c   Section        0  strtol.o(.text)
    .text                                    0x080001dc   Section        0  uidiv.o(.text)
    .text                                    0x08000208   Section        0  uldiv.o(.text)
    .text                                    0x0800026c   Section        0  ctype_o.o(.text)
    .text                                    0x08000274   Section        0  _strtoul.o(.text)
    .text                                    0x08000312   Section        0  iusefp.o(.text)
    .text                                    0x08000312   Section        0  dadd.o(.text)
    .text                                    0x08000460   Section        0  dmul.o(.text)
    .text                                    0x08000544   Section        0  ddiv.o(.text)
    .text                                    0x08000622   Section        0  dfixul.o(.text)
    .text                                    0x08000654   Section       48  cdrcmple.o(.text)
    .text                                    0x08000684   Section       36  init.o(.text)
    .text                                    0x080006a8   Section        0  llshl.o(.text)
    .text                                    0x080006c6   Section        0  llushr.o(.text)
    .text                                    0x080006e6   Section        0  llsshr.o(.text)
    .text                                    0x0800070a   Section        0  _chval.o(.text)
    .text                                    0x08000726   Section        0  depilogue.o(.text)
    i.BusFault_Handler                       0x080007e0   Section        0  stm32f10x_it.o(i.BusFault_Handler)
    i.DebugMon_Handler                       0x080007e2   Section        0  stm32f10x_it.o(i.DebugMon_Handler)
    i.FLASH_ErasePage                        0x080007e4   Section        0  stm32f10x_flash.o(i.FLASH_ErasePage)
    i.FLASH_GetBank1Status                   0x08000820   Section        0  stm32f10x_flash.o(i.FLASH_GetBank1Status)
    i.FLASH_Lock                             0x08000848   Section        0  stm32f10x_flash.o(i.FLASH_Lock)
    i.FLASH_ProgramWord                      0x08000858   Section        0  stm32f10x_flash.o(i.FLASH_ProgramWord)
    i.FLASH_Unlock                           0x080008b4   Section        0  stm32f10x_flash.o(i.FLASH_Unlock)
    i.FLASH_WaitForLastOperation             0x080008cc   Section        0  stm32f10x_flash.o(i.FLASH_WaitForLastOperation)
    i.GPIO_Init                              0x080008ec   Section        0  stm32f10x_gpio.o(i.GPIO_Init)
    i.HardFault_Handler                      0x08000992   Section        0  stm32f10x_it.o(i.HardFault_Handler)
    i.MemManage_Handler                      0x08000994   Section        0  stm32f10x_it.o(i.MemManage_Handler)
    i.NMI_Handler                            0x08000996   Section        0  stm32f10x_it.o(i.NMI_Handler)
    i.NVIC_Init                              0x08000998   Section        0  misc.o(i.NVIC_Init)
    i.NVIC_PriorityGroupConfig               0x080009fc   Section        0  misc.o(i.NVIC_PriorityGroupConfig)
    i.NVIC_SetPriority                       0x08000a10   Section        0  bsp_cpu.o(i.NVIC_SetPriority)
    NVIC_SetPriority                         0x08000a11   Thumb Code    32  bsp_cpu.o(i.NVIC_SetPriority)
    i.PendSV_Handler                         0x08000a30   Section        0  stm32f10x_it.o(i.PendSV_Handler)
    i.RCC_APB2PeriphClockCmd                 0x08000a34   Section        0  stm32f10x_rcc.o(i.RCC_APB2PeriphClockCmd)
    i.RCC_DeInit                             0x08000a50   Section        0  stm32f10x_rcc.o(i.RCC_DeInit)
    i.RCC_GetClocksFreq                      0x08000a90   Section        0  stm32f10x_rcc.o(i.RCC_GetClocksFreq)
    i.SVC_Handler                            0x08000b3c   Section        0  stm32f10x_it.o(i.SVC_Handler)
    i.SetSysClock                            0x08000b3e   Section        0  system_stm32f10x.o(i.SetSysClock)
    SetSysClock                              0x08000b3f   Thumb Code     4  system_stm32f10x.o(i.SetSysClock)
    i.SetSysClockTo72                        0x08000b44   Section        0  system_stm32f10x.o(i.SetSysClockTo72)
    SetSysClockTo72                          0x08000b45   Thumb Code   166  system_stm32f10x.o(i.SetSysClockTo72)
    i.SysTick_Handler                        0x08000bf4   Section        0  bsp_cpu.o(i.SysTick_Handler)
    i.SystemInit                             0x08000bf8   Section        0  system_stm32f10x.o(i.SystemInit)
    i.USART1_IRQHandler                      0x08000c48   Section        0  bsp_uart.o(i.USART1_IRQHandler)
    i.USART_ClearFlag                        0x08000ce4   Section        0  stm32f10x_usart.o(i.USART_ClearFlag)
    i.USART_Cmd                              0x08000cec   Section        0  stm32f10x_usart.o(i.USART_Cmd)
    i.USART_GetITStatus                      0x08000d04   Section        0  stm32f10x_usart.o(i.USART_GetITStatus)
    i.USART_ITConfig                         0x08000d44   Section        0  stm32f10x_usart.o(i.USART_ITConfig)
    i.USART_Init                             0x08000d7c   Section        0  stm32f10x_usart.o(i.USART_Init)
    i.USART_ReceiveData                      0x08000e38   Section        0  stm32f10x_usart.o(i.USART_ReceiveData)
    i.USART_SendData                         0x08000e40   Section        0  stm32f10x_usart.o(i.USART_SendData)
    i.UsageFault_Handler                     0x08000e48   Section        0  stm32f10x_it.o(i.UsageFault_Handler)
    i.__0printf                              0x08000e4c   Section        0  printfa.o(i.__0printf)
    i.__aeabi_errno_addr                     0x08000e6c   Section        0  errno.o(i.__aeabi_errno_addr)
    i.__scatterload_copy                     0x08000e74   Section       14  handlers.o(i.__scatterload_copy)
    i.__scatterload_null                     0x08000e82   Section        2  handlers.o(i.__scatterload_null)
    i.__scatterload_zeroinit                 0x08000e84   Section       14  handlers.o(i.__scatterload_zeroinit)
    i._fp_digits                             0x08000e94   Section        0  printfa.o(i._fp_digits)
    _fp_digits                               0x08000e95   Thumb Code   366  printfa.o(i._fp_digits)
    i._printf_core                           0x08001018   Section        0  printfa.o(i._printf_core)
    _printf_core                             0x08001019   Thumb Code  1704  printfa.o(i._printf_core)
    i._printf_post_padding                   0x080016cc   Section        0  printfa.o(i._printf_post_padding)
    _printf_post_padding                     0x080016cd   Thumb Code    36  printfa.o(i._printf_post_padding)
    i._printf_pre_padding                    0x080016f0   Section        0  printfa.o(i._printf_pre_padding)
    _printf_pre_padding                      0x080016f1   Thumb Code    46  printfa.o(i._printf_pre_padding)
    i.bsp_init                               0x0800171e   Section        0  bsp.o(i.bsp_init)
    i.bsp_periph_clock_enable                0x08001730   Section        0  bsp.o(i.bsp_periph_clock_enable)
    i.cpu_enter_critical                     0x0800173c   Section        0  bsp_cpu.o(i.cpu_enter_critical)
    i.cpu_exit_critical                      0x08001758   Section        0  bsp_cpu.o(i.cpu_exit_critical)
    i.cpu_init                               0x08001774   Section        0  bsp_cpu.o(i.cpu_init)
    i.cpu_reset                              0x080017bc   Section        0  bsp_cpu.o(i.cpu_reset)
    i.crc16                                  0x080017e0   Section        0  crc16.o(i.crc16)
    i.flash_program                          0x08001808   Section        0  upgrade.o(i.flash_program)
    i.flash_program_page                     0x08001864   Section        0  upgrade.o(i.flash_program_page)
    i.fputc                                  0x080018b8   Section        0  bsp_uart.o(i.fputc)
    i.jump_to_application                    0x080018c8   Section        0  upgrade.o(i.jump_to_application)
    i.main                                   0x0800195c   Section        0  main.o(i.main)
    i.ms_delay                               0x0800196a   Section        0  bsp_cpu.o(i.ms_delay)
    i.ringbuffer_data_size                   0x08001982   Section        0  ringbuffer.o(i.ringbuffer_data_size)
    i.ringbuffer_get_char                    0x080019bc   Section        0  ringbuffer.o(i.ringbuffer_get_char)
    i.ringbuffer_init                        0x08001a04   Section        0  ringbuffer.o(i.ringbuffer_init)
    i.ringbuffer_put_char                    0x08001a2a   Section        0  ringbuffer.o(i.ringbuffer_put_char)
    i.ringbuffer_space_size                  0x08001a70   Section        0  ringbuffer.o(i.ringbuffer_space_size)
    ringbuffer_space_size                    0x08001a71   Thumb Code    18  ringbuffer.o(i.ringbuffer_space_size)
    i.ringbuffer_status                      0x08001a82   Section        0  ringbuffer.o(i.ringbuffer_status)
    i.uart_config                            0x08001aa4   Section        0  bsp_uart.o(i.uart_config)
    i.uart_config_gpio                       0x08001ad8   Section        0  bsp_uart.o(i.uart_config_gpio)
    uart_config_gpio                         0x08001ad9   Thumb Code    50  bsp_uart.o(i.uart_config_gpio)
    i.uart_config_nvic                       0x08001b0a   Section        0  bsp_uart.o(i.uart_config_nvic)
    uart_config_nvic                         0x08001b0b   Thumb Code    20  bsp_uart.o(i.uart_config_nvic)
    i.uart_config_param                      0x08001b20   Section        0  bsp_uart.o(i.uart_config_param)
    uart_config_param                        0x08001b21   Thumb Code    58  bsp_uart.o(i.uart_config_param)
    i.uart_get_char                          0x08001b60   Section        0  bsp_uart.o(i.uart_get_char)
    i.uart_init                              0x08001b94   Section        0  bsp_uart.o(i.uart_init)
    i.uart_put_char                          0x08001bc8   Section        0  bsp_uart.o(i.uart_put_char)
    i.uart_put_string                        0x08001bd4   Section        0  bsp_uart.o(i.uart_put_string)
    i.upgrade_firmware                       0x08001c14   Section        0  upgrade.o(i.upgrade_firmware)
    i.us_delay                               0x08001cf0   Section        0  bsp_cpu.o(i.us_delay)
    i.ymodem_parse_file_info                 0x08001d34   Section        0  ymodem.o(i.ymodem_parse_file_info)
    ymodem_parse_file_info                   0x08001d35   Thumb Code    84  ymodem.o(i.ymodem_parse_file_info)
    i.ymodem_receive                         0x08001d88   Section        0  ymodem.o(i.ymodem_receive)
    i.ymodem_receive_byte                    0x08001e8a   Section        0  ymodem.o(i.ymodem_receive_byte)
    ymodem_receive_byte                      0x08001e8b   Thumb Code    36  ymodem.o(i.ymodem_receive_byte)
    i.ymodem_receive_packet                  0x08001eae   Section        0  ymodem.o(i.ymodem_receive_packet)
    ymodem_receive_packet                    0x08001eaf   Thumb Code   188  ymodem.o(i.ymodem_receive_packet)
    i.ymodem_send_byte                       0x08001f6a   Section        0  ymodem.o(i.ymodem_send_byte)
    ymodem_send_byte                         0x08001f6b   Thumb Code     8  ymodem.o(i.ymodem_send_byte)
    .constdata                               0x08001f74   Section       40  bsp_uart.o(.constdata)
    uart_devices                             0x08001f74   Data          24  bsp_uart.o(.constdata)
    .constdata                               0x08001f9c   Section      512  crc16.o(.constdata)
    crc_table                                0x08001f9c   Data         512  crc16.o(.constdata)
    .constdata                               0x0800219c   Section      129  ctype_o.o(.constdata)
    .constdata                               0x08002220   Section        4  ctype_o.o(.constdata)
    table                                    0x08002220   Data           4  ctype_o.o(.constdata)
    .data                                    0x20000000   Section       20  stm32f10x_rcc.o(.data)
    ADCPrescTable                            0x20000000   Data           4  stm32f10x_rcc.o(.data)
    APBAHBPrescTable                         0x20000004   Data          16  stm32f10x_rcc.o(.data)
    .data                                    0x20000014   Section        8  bsp_cpu.o(.data)
    systick_enable                           0x20000014   Data           1  bsp_cpu.o(.data)
    critical_nesting                         0x20000018   Data           4  bsp_cpu.o(.data)
    .data                                    0x2000001c   Section        4  upgrade.o(.data)
    .data                                    0x20000020   Section        4  stdout.o(.data)
    .data                                    0x20000024   Section        4  errno.o(.data)
    _errno                                   0x20000024   Data           4  errno.o(.data)
    .bss                                     0x20000028   Section     2456  bsp_uart.o(.bss)
    buffer                                   0x20000028   Data         128  bsp_uart.o(.bss)
    .bss                                     0x200009c0   Section     2303  upgrade.o(.bss)
    STACK                                    0x200012c0   Section     4096  startup_stm32f10x_md.o(STACK)

    Global Symbols

    Symbol Name                              Value     Ov Type        Size  Object(Section)

    BuildAttributes$$THM_ISAv4$P$D$K$B$S$PE$A:L22UL41UL21$X:L11$S22US41US21$IEEE1$IW$USESV6$~STKCKD$USESV7$~SHL$OSPACE$ROPI$EBA8$MICROLIB$REQ8$PRES8$EABIv2 0x00000000   Number         0  anon$$obj.o ABSOLUTE
    __ARM_use_no_argv                        0x00000000   Number         0  main.o ABSOLUTE
    _printf_a                                0x00000000   Number         0  stubs.o ABSOLUTE
    _printf_c                                0x00000000   Number         0  stubs.o ABSOLUTE
    _printf_charcount                        0x00000000   Number         0  stubs.o ABSOLUTE
    _printf_d                                0x00000000   Number         0  stubs.o ABSOLUTE
    _printf_e                                0x00000000   Number         0  stubs.o ABSOLUTE
    _printf_f                                0x00000000   Number         0  stubs.o ABSOLUTE
    _printf_flags                            0x00000000   Number         0  stubs.o ABSOLUTE
    _printf_fp_dec                           0x00000000   Number         0  stubs.o ABSOLUTE
    _printf_fp_hex                           0x00000000   Number         0  stubs.o ABSOLUTE
    _printf_g                                0x00000000   Number         0  stubs.o ABSOLUTE
    _printf_i                                0x00000000   Number         0  stubs.o ABSOLUTE
    _printf_int_dec                          0x00000000   Number         0  stubs.o ABSOLUTE
    _printf_l                                0x00000000   Number         0  stubs.o ABSOLUTE
    _printf_lc                               0x00000000   Number         0  stubs.o ABSOLUTE
    _printf_ll                               0x00000000   Number         0  stubs.o ABSOLUTE
    _printf_lld                              0x00000000   Number         0  stubs.o ABSOLUTE
    _printf_lli                              0x00000000   Number         0  stubs.o ABSOLUTE
    _printf_llo                              0x00000000   Number         0  stubs.o ABSOLUTE
    _printf_llu                              0x00000000   Number         0  stubs.o ABSOLUTE
    _printf_llx                              0x00000000   Number         0  stubs.o ABSOLUTE
    _printf_longlong_dec                     0x00000000   Number         0  stubs.o ABSOLUTE
    _printf_longlong_hex                     0x00000000   Number         0  stubs.o ABSOLUTE
    _printf_longlong_oct                     0x00000000   Number         0  stubs.o ABSOLUTE
    _printf_ls                               0x00000000   Number         0  stubs.o ABSOLUTE
    _printf_mbtowc                           0x00000000   Number         0  stubs.o ABSOLUTE
    _printf_n                                0x00000000   Number         0  stubs.o ABSOLUTE
    _printf_o                                0x00000000   Number         0  stubs.o ABSOLUTE
    _printf_p                                0x00000000   Number         0  stubs.o ABSOLUTE
    _printf_percent                          0x00000000   Number         0  stubs.o ABSOLUTE
    _printf_pre_padding                      0x00000000   Number         0  stubs.o ABSOLUTE
    _printf_return_value                     0x00000000   Number         0  stubs.o ABSOLUTE
    _printf_s                                0x00000000   Number         0  stubs.o ABSOLUTE
    _printf_sizespec                         0x00000000   Number         0  stubs.o ABSOLUTE
    _printf_str                              0x00000000   Number         0  stubs.o ABSOLUTE
    _printf_truncate_signed                  0x00000000   Number         0  stubs.o ABSOLUTE
    _printf_truncate_unsigned                0x00000000   Number         0  stubs.o ABSOLUTE
    _printf_u                                0x00000000   Number         0  stubs.o ABSOLUTE
    _printf_wc                               0x00000000   Number         0  stubs.o ABSOLUTE
    _printf_wctomb                           0x00000000   Number         0  stubs.o ABSOLUTE
    _printf_widthprec                        0x00000000   Number         0  stubs.o ABSOLUTE
    _printf_x                                0x00000000   Number         0  stubs.o ABSOLUTE
    __arm_fini_                               - Undefined Weak Reference
    __cpp_initialize__aeabi_                  - Undefined Weak Reference
    __cxa_finalize                            - Undefined Weak Reference
    __decompress                              - Undefined Weak Reference
    _clock_init                               - Undefined Weak Reference
    _microlib_exit                            - Undefined Weak Reference
    __Vectors_Size                           0x000000ec   Number         0  startup_stm32f10x_md.o ABSOLUTE
    __Vectors                                0x08000000   Data           4  startup_stm32f10x_md.o(RESET)
    __Vectors_End                            0x080000ec   Data           0  startup_stm32f10x_md.o(RESET)
    __main                                   0x080000ed   Thumb Code     0  entry.o(.ARM.Collect$$$$00000000)
    _main_stk                                0x080000ed   Thumb Code     0  entry2.o(.ARM.Collect$$$$00000001)
    _main_scatterload                        0x080000f1   Thumb Code     0  entry5.o(.ARM.Collect$$$$00000004)
    __main_after_scatterload                 0x080000f5   Thumb Code     0  entry5.o(.ARM.Collect$$$$00000004)
    _main_clock                              0x080000f5   Thumb Code     0  entry7b.o(.ARM.Collect$$$$00000008)
    _main_cpp_init                           0x080000f5   Thumb Code     0  entry8b.o(.ARM.Collect$$$$0000000A)
    _main_init                               0x080000f5   Thumb Code     0  entry9a.o(.ARM.Collect$$$$0000000B)
    __rt_lib_shutdown_fini                   0x080000fd   Thumb Code     0  entry12b.o(.ARM.Collect$$$$0000000E)
    __rt_final_cpp                           0x08000101   Thumb Code     0  entry10a.o(.ARM.Collect$$$$0000000F)
    __rt_final_exit                          0x08000101   Thumb Code     0  entry11a.o(.ARM.Collect$$$$00000011)
    __get_PSP                                0x08000105   Thumb Code     6  core_cm3.o(.emb_text)
    __set_PSP                                0x0800010b   Thumb Code     6  core_cm3.o(.emb_text)
    __get_MSP                                0x08000111   Thumb Code     6  core_cm3.o(.emb_text)
    __set_MSP                                0x08000117   Thumb Code     6  core_cm3.o(.emb_text)
    __REV16                                  0x0800011d   Thumb Code     4  core_cm3.o(.emb_text)
    __REVSH                                  0x08000121   Thumb Code     4  core_cm3.o(.emb_text)
    Reset_Handler                            0x08000125   Thumb Code     8  startup_stm32f10x_md.o(.text)
    ADC1_2_IRQHandler                        0x0800013f   Thumb Code     0  startup_stm32f10x_md.o(.text)
    CAN1_RX1_IRQHandler                      0x0800013f   Thumb Code     0  startup_stm32f10x_md.o(.text)
    CAN1_SCE_IRQHandler                      0x0800013f   Thumb Code     0  startup_stm32f10x_md.o(.text)
    DMA1_Channel1_IRQHandler                 0x0800013f   Thumb Code     0  startup_stm32f10x_md.o(.text)
    DMA1_Channel2_IRQHandler                 0x0800013f   Thumb Code     0  startup_stm32f10x_md.o(.text)
    DMA1_Channel3_IRQHandler                 0x0800013f   Thumb Code     0  startup_stm32f10x_md.o(.text)
    DMA1_Channel4_IRQHandler                 0x0800013f   Thumb Code     0  startup_stm32f10x_md.o(.text)
    DMA1_Channel5_IRQHandler                 0x0800013f   Thumb Code     0  startup_stm32f10x_md.o(.text)
    DMA1_Channel6_IRQHandler                 0x0800013f   Thumb Code     0  startup_stm32f10x_md.o(.text)
    DMA1_Channel7_IRQHandler                 0x0800013f   Thumb Code     0  startup_stm32f10x_md.o(.text)
    EXTI0_IRQHandler                         0x0800013f   Thumb Code     0  startup_stm32f10x_md.o(.text)
    EXTI15_10_IRQHandler                     0x0800013f   Thumb Code     0  startup_stm32f10x_md.o(.text)
    EXTI1_IRQHandler                         0x0800013f   Thumb Code     0  startup_stm32f10x_md.o(.text)
    EXTI2_IRQHandler                         0x0800013f   Thumb Code     0  startup_stm32f10x_md.o(.text)
    EXTI3_IRQHandler                         0x0800013f   Thumb Code     0  startup_stm32f10x_md.o(.text)
    EXTI4_IRQHandler                         0x0800013f   Thumb Code     0  startup_stm32f10x_md.o(.text)
    EXTI9_5_IRQHandler                       0x0800013f   Thumb Code     0  startup_stm32f10x_md.o(.text)
    FLASH_IRQHandler                         0x0800013f   Thumb Code     0  startup_stm32f10x_md.o(.text)
    I2C1_ER_IRQHandler                       0x0800013f   Thumb Code     0  startup_stm32f10x_md.o(.text)
    I2C1_EV_IRQHandler                       0x0800013f   Thumb Code     0  startup_stm32f10x_md.o(.text)
    I2C2_ER_IRQHandler                       0x0800013f   Thumb Code     0  startup_stm32f10x_md.o(.text)
    I2C2_EV_IRQHandler                       0x0800013f   Thumb Code     0  startup_stm32f10x_md.o(.text)
    PVD_IRQHandler                           0x0800013f   Thumb Code     0  startup_stm32f10x_md.o(.text)
    RCC_IRQHandler                           0x0800013f   Thumb Code     0  startup_stm32f10x_md.o(.text)
    RTCAlarm_IRQHandler                      0x0800013f   Thumb Code     0  startup_stm32f10x_md.o(.text)
    RTC_IRQHandler                           0x0800013f   Thumb Code     0  startup_stm32f10x_md.o(.text)
    SPI1_IRQHandler                          0x0800013f   Thumb Code     0  startup_stm32f10x_md.o(.text)
    SPI2_IRQHandler                          0x0800013f   Thumb Code     0  startup_stm32f10x_md.o(.text)
    TAMPER_IRQHandler                        0x0800013f   Thumb Code     0  startup_stm32f10x_md.o(.text)
    TIM1_BRK_IRQHandler                      0x0800013f   Thumb Code     0  startup_stm32f10x_md.o(.text)
    TIM1_CC_IRQHandler                       0x0800013f   Thumb Code     0  startup_stm32f10x_md.o(.text)
    TIM1_TRG_COM_IRQHandler                  0x0800013f   Thumb Code     0  startup_stm32f10x_md.o(.text)
    TIM1_UP_IRQHandler                       0x0800013f   Thumb Code     0  startup_stm32f10x_md.o(.text)
    TIM2_IRQHandler                          0x0800013f   Thumb Code     0  startup_stm32f10x_md.o(.text)
    TIM3_IRQHandler                          0x0800013f   Thumb Code     0  startup_stm32f10x_md.o(.text)
    TIM4_IRQHandler                          0x0800013f   Thumb Code     0  startup_stm32f10x_md.o(.text)
    USART2_IRQHandler                        0x0800013f   Thumb Code     0  startup_stm32f10x_md.o(.text)
    USART3_IRQHandler                        0x0800013f   Thumb Code     0  startup_stm32f10x_md.o(.text)
    USBWakeUp_IRQHandler                     0x0800013f   Thumb Code     0  startup_stm32f10x_md.o(.text)
    USB_HP_CAN1_TX_IRQHandler                0x0800013f   Thumb Code     0  startup_stm32f10x_md.o(.text)
    USB_LP_CAN1_RX0_IRQHandler               0x0800013f   Thumb Code     0  startup_stm32f10x_md.o(.text)
    WWDG_IRQHandler                          0x0800013f   Thumb Code     0  startup_stm32f10x_md.o(.text)
    __aeabi_memcpy                           0x08000149   Thumb Code    36  memcpya.o(.text)
    __aeabi_memcpy4                          0x08000149   Thumb Code     0  memcpya.o(.text)
    __aeabi_memcpy8                          0x08000149   Thumb Code     0  memcpya.o(.text)
    strtol                                   0x0800016d   Thumb Code   112  strtol.o(.text)
    __aeabi_uidiv                            0x080001dd   Thumb Code     0  uidiv.o(.text)
    __aeabi_uidivmod                         0x080001dd   Thumb Code    44  uidiv.o(.text)
    __aeabi_uldivmod                         0x08000209   Thumb Code    98  uldiv.o(.text)
    __rt_ctype_table                         0x0800026d   Thumb Code     4  ctype_o.o(.text)
    _strtoul                                 0x08000275   Thumb Code   158  _strtoul.o(.text)
    __I$use$fp                               0x08000313   Thumb Code     0  iusefp.o(.text)
    __aeabi_dadd                             0x08000313   Thumb Code   322  dadd.o(.text)
    __aeabi_dsub                             0x08000455   Thumb Code     6  dadd.o(.text)
    __aeabi_drsub                            0x0800045b   Thumb Code     6  dadd.o(.text)
    __aeabi_dmul                             0x08000461   Thumb Code   228  dmul.o(.text)
    __aeabi_ddiv                             0x08000545   Thumb Code   222  ddiv.o(.text)
    __aeabi_d2ulz                            0x08000623   Thumb Code    48  dfixul.o(.text)
    __aeabi_cdrcmple                         0x08000655   Thumb Code    48  cdrcmple.o(.text)
    __scatterload                            0x08000685   Thumb Code    28  init.o(.text)
    __scatterload_rt2                        0x08000685   Thumb Code     0  init.o(.text)
    __aeabi_llsl                             0x080006a9   Thumb Code    30  llshl.o(.text)
    _ll_shift_l                              0x080006a9   Thumb Code     0  llshl.o(.text)
    __aeabi_llsr                             0x080006c7   Thumb Code    32  llushr.o(.text)
    _ll_ushift_r                             0x080006c7   Thumb Code     0  llushr.o(.text)
    __aeabi_lasr                             0x080006e7   Thumb Code    36  llsshr.o(.text)
    _ll_sshift_r                             0x080006e7   Thumb Code     0  llsshr.o(.text)
    _chval                                   0x0800070b   Thumb Code    28  _chval.o(.text)
    _double_round                            0x08000727   Thumb Code    30  depilogue.o(.text)
    _double_epilogue                         0x08000745   Thumb Code   156  depilogue.o(.text)
    BusFault_Handler                         0x080007e1   Thumb Code     2  stm32f10x_it.o(i.BusFault_Handler)
    DebugMon_Handler                         0x080007e3   Thumb Code     2  stm32f10x_it.o(i.DebugMon_Handler)
    FLASH_ErasePage                          0x080007e5   Thumb Code    56  stm32f10x_flash.o(i.FLASH_ErasePage)
    FLASH_GetBank1Status                     0x08000821   Thumb Code    34  stm32f10x_flash.o(i.FLASH_GetBank1Status)
    FLASH_Lock                               0x08000849   Thumb Code    12  stm32f10x_flash.o(i.FLASH_Lock)
    FLASH_ProgramWord                        0x08000859   Thumb Code    86  stm32f10x_flash.o(i.FLASH_ProgramWord)
    FLASH_Unlock                             0x080008b5   Thumb Code    12  stm32f10x_flash.o(i.FLASH_Unlock)
    FLASH_WaitForLastOperation               0x080008cd   Thumb Code    32  stm32f10x_flash.o(i.FLASH_WaitForLastOperation)
    GPIO_Init                                0x080008ed   Thumb Code   166  stm32f10x_gpio.o(i.GPIO_Init)
    HardFault_Handler                        0x08000993   Thumb Code     2  stm32f10x_it.o(i.HardFault_Handler)
    MemManage_Handler                        0x08000995   Thumb Code     2  stm32f10x_it.o(i.MemManage_Handler)
    NMI_Handler                              0x08000997   Thumb Code     2  stm32f10x_it.o(i.NMI_Handler)
    NVIC_Init                                0x08000999   Thumb Code    96  misc.o(i.NVIC_Init)
    NVIC_PriorityGroupConfig                 0x080009fd   Thumb Code    10  misc.o(i.NVIC_PriorityGroupConfig)
    PendSV_Handler                           0x08000a31   Thumb Code     2  stm32f10x_it.o(i.PendSV_Handler)
    RCC_APB2PeriphClockCmd                   0x08000a35   Thumb Code    22  stm32f10x_rcc.o(i.RCC_APB2PeriphClockCmd)
    RCC_DeInit                               0x08000a51   Thumb Code    50  stm32f10x_rcc.o(i.RCC_DeInit)
    RCC_GetClocksFreq                        0x08000a91   Thumb Code   154  stm32f10x_rcc.o(i.RCC_GetClocksFreq)
    SVC_Handler                              0x08000b3d   Thumb Code     2  stm32f10x_it.o(i.SVC_Handler)
    SysTick_Handler                          0x08000bf5   Thumb Code     2  bsp_cpu.o(i.SysTick_Handler)
    SystemInit                               0x08000bf9   Thumb Code    64  system_stm32f10x.o(i.SystemInit)
    USART1_IRQHandler                        0x08000c49   Thumb Code   152  bsp_uart.o(i.USART1_IRQHandler)
    USART_ClearFlag                          0x08000ce5   Thumb Code     8  stm32f10x_usart.o(i.USART_ClearFlag)
    USART_Cmd                                0x08000ced   Thumb Code    24  stm32f10x_usart.o(i.USART_Cmd)
    USART_GetITStatus                        0x08000d05   Thumb Code    64  stm32f10x_usart.o(i.USART_GetITStatus)
    USART_ITConfig                           0x08000d45   Thumb Code    54  stm32f10x_usart.o(i.USART_ITConfig)
    USART_Init                               0x08000d7d   Thumb Code   182  stm32f10x_usart.o(i.USART_Init)
    USART_ReceiveData                        0x08000e39   Thumb Code     8  stm32f10x_usart.o(i.USART_ReceiveData)
    USART_SendData                           0x08000e41   Thumb Code     8  stm32f10x_usart.o(i.USART_SendData)
    UsageFault_Handler                       0x08000e49   Thumb Code     2  stm32f10x_it.o(i.UsageFault_Handler)
    __0printf                                0x08000e4d   Thumb Code    22  printfa.o(i.__0printf)
    __1printf                                0x08000e4d   Thumb Code     0  printfa.o(i.__0printf)
    __2printf                                0x08000e4d   Thumb Code     0  printfa.o(i.__0printf)
    __c89printf                              0x08000e4d   Thumb Code     0  printfa.o(i.__0printf)
    printf                                   0x08000e4d   Thumb Code     0  printfa.o(i.__0printf)
    __aeabi_errno_addr                       0x08000e6d   Thumb Code     4  errno.o(i.__aeabi_errno_addr)
    __rt_errno_addr                          0x08000e6d   Thumb Code     0  errno.o(i.__aeabi_errno_addr)
    __scatterload_copy                       0x08000e75   Thumb Code    14  handlers.o(i.__scatterload_copy)
    __scatterload_null                       0x08000e83   Thumb Code     2  handlers.o(i.__scatterload_null)
    __scatterload_zeroinit                   0x08000e85   Thumb Code    14  handlers.o(i.__scatterload_zeroinit)
    bsp_init                                 0x0800171f   Thumb Code    18  bsp.o(i.bsp_init)
    bsp_periph_clock_enable                  0x08001731   Thumb Code    10  bsp.o(i.bsp_periph_clock_enable)
    cpu_enter_critical                       0x0800173d   Thumb Code    24  bsp_cpu.o(i.cpu_enter_critical)
    cpu_exit_critical                        0x08001759   Thumb Code    24  bsp_cpu.o(i.cpu_exit_critical)
    cpu_init                                 0x08001775   Thumb Code    64  bsp_cpu.o(i.cpu_init)
    cpu_reset                                0x080017bd   Thumb Code    26  bsp_cpu.o(i.cpu_reset)
    crc16                                    0x080017e1   Thumb Code    36  crc16.o(i.crc16)
    flash_program                            0x08001809   Thumb Code    78  upgrade.o(i.flash_program)
    flash_program_page                       0x08001865   Thumb Code    84  upgrade.o(i.flash_program_page)
    fputc                                    0x080018b9   Thumb Code    16  bsp_uart.o(i.fputc)
    jump_to_application                      0x080018c9   Thumb Code   116  upgrade.o(i.jump_to_application)
    main                                     0x0800195d   Thumb Code    14  main.o(i.main)
    ms_delay                                 0x0800196b   Thumb Code    24  bsp_cpu.o(i.ms_delay)
    ringbuffer_data_size                     0x08001983   Thumb Code    58  ringbuffer.o(i.ringbuffer_data_size)
    ringbuffer_get_char                      0x080019bd   Thumb Code    72  ringbuffer.o(i.ringbuffer_get_char)
    ringbuffer_init                          0x08001a05   Thumb Code    38  ringbuffer.o(i.ringbuffer_init)
    ringbuffer_put_char                      0x08001a2b   Thumb Code    70  ringbuffer.o(i.ringbuffer_put_char)
    ringbuffer_status                        0x08001a83   Thumb Code    32  ringbuffer.o(i.ringbuffer_status)
    uart_config                              0x08001aa5   Thumb Code    46  bsp_uart.o(i.uart_config)
    uart_get_char                            0x08001b61   Thumb Code    46  bsp_uart.o(i.uart_get_char)
    uart_init                                0x08001b95   Thumb Code    44  bsp_uart.o(i.uart_init)
    uart_put_char                            0x08001bc9   Thumb Code    12  bsp_uart.o(i.uart_put_char)
    uart_put_string                          0x08001bd5   Thumb Code    60  bsp_uart.o(i.uart_put_string)
    upgrade_firmware                         0x08001c15   Thumb Code    98  upgrade.o(i.upgrade_firmware)
    us_delay                                 0x08001cf1   Thumb Code    68  bsp_cpu.o(i.us_delay)
    ymodem_receive                           0x08001d89   Thumb Code   258  ymodem.o(i.ymodem_receive)
    __ctype_table                            0x0800219c   Data         129  ctype_o.o(.constdata)
    Region$$Table$$Base                      0x08002224   Number         0  anon$$obj.o(Region$$Table)
    Region$$Table$$Limit                     0x08002244   Number         0  anon$$obj.o(Region$$Table)
    file_size                                0x2000001c   Data           4  upgrade.o(.data)
    __stdout                                 0x20000020   Data           4  stdout.o(.data)
    uart1_tx_rb                              0x200000a8   Data          12  bsp_uart.o(.bss)
    uart1_rx_rb                              0x200000b4   Data          12  bsp_uart.o(.bss)
    uart1_tx_buf                             0x200000c0   Data         256  bsp_uart.o(.bss)
    uart1_rx_buf                             0x200001c0   Data        2048  bsp_uart.o(.bss)
    file_name                                0x200009c0   Data         255  upgrade.o(.bss)
    factory_info_data                        0x20000abf   Data        1024  upgrade.o(.bss)
    app_code                                 0x20000ebf   Data        1024  upgrade.o(.bss)
    __initial_sp                             0x200022c0   Data           0  startup_stm32f10x_md.o(STACK)



==============================================================================

Memory Map of the image

  Image Entry point : 0x080000ed

  Load Region LR_IROM1 (Base: 0x08000000, Size: 0x0000226c, Max: 0x00002400, ABSOLUTE)

    Execution Region ER_IROM1 (Exec base: 0x08000000, Load base: 0x08000000, Size: 0x00002244, Max: 0x00002400, ABSOLUTE)

    Exec Addr    Load Addr    Size         Type   Attr      Idx    E Section Name        Object

    0x08000000   0x08000000   0x000000ec   Data   RO          193    RESET               startup_stm32f10x_md.o
    0x080000ec   0x080000ec   0x00000000   Code   RO         2153  * .ARM.Collect$$$$00000000  mc_w.l(entry.o)
    0x080000ec   0x080000ec   0x00000004   Code   RO         2423    .ARM.Collect$$$$00000001  mc_w.l(entry2.o)
    0x080000f0   0x080000f0   0x00000004   Code   RO         2426    .ARM.Collect$$$$00000004  mc_w.l(entry5.o)
    0x080000f4   0x080000f4   0x00000000   Code   RO         2428    .ARM.Collect$$$$00000008  mc_w.l(entry7b.o)
    0x080000f4   0x080000f4   0x00000000   Code   RO         2430    .ARM.Collect$$$$0000000A  mc_w.l(entry8b.o)
    0x080000f4   0x080000f4   0x00000008   Code   RO         2431    .ARM.Collect$$$$0000000B  mc_w.l(entry9a.o)
    0x080000fc   0x080000fc   0x00000004   Code   RO         2438    .ARM.Collect$$$$0000000E  mc_w.l(entry12b.o)
    0x08000100   0x08000100   0x00000000   Code   RO         2433    .ARM.Collect$$$$0000000F  mc_w.l(entry10a.o)
    0x08000100   0x08000100   0x00000000   Code   RO         2435    .ARM.Collect$$$$00000011  mc_w.l(entry11a.o)
    0x08000100   0x08000100   0x00000004   Code   RO         2424    .ARM.Collect$$$$00002712  mc_w.l(entry2.o)
    0x08000104   0x08000104   0x00000020   Code   RO            1    .emb_text           core_cm3.o
    0x08000124   0x08000124   0x00000024   Code   RO          194    .text               startup_stm32f10x_md.o
    0x08000148   0x08000148   0x00000024   Code   RO         2156    .text               mc_w.l(memcpya.o)
    0x0800016c   0x0800016c   0x00000070   Code   RO         2421    .text               mc_w.l(strtol.o)
    0x080001dc   0x080001dc   0x0000002c   Code   RO         2440    .text               mc_w.l(uidiv.o)
    0x08000208   0x08000208   0x00000062   Code   RO         2442    .text               mc_w.l(uldiv.o)
    0x0800026a   0x0800026a   0x00000002   PAD
    0x0800026c   0x0800026c   0x00000008   Code   RO         2444    .text               mc_w.l(ctype_o.o)
    0x08000274   0x08000274   0x0000009e   Code   RO         2479    .text               mc_w.l(_strtoul.o)
    0x08000312   0x08000312   0x00000000   Code   RO         2481    .text               mc_w.l(iusefp.o)
    0x08000312   0x08000312   0x0000014e   Code   RO         2482    .text               mf_w.l(dadd.o)
    0x08000460   0x08000460   0x000000e4   Code   RO         2484    .text               mf_w.l(dmul.o)
    0x08000544   0x08000544   0x000000de   Code   RO         2486    .text               mf_w.l(ddiv.o)
    0x08000622   0x08000622   0x00000030   Code   RO         2488    .text               mf_w.l(dfixul.o)
    0x08000652   0x08000652   0x00000002   PAD
    0x08000654   0x08000654   0x00000030   Code   RO         2490    .text               mf_w.l(cdrcmple.o)
    0x08000684   0x08000684   0x00000024   Code   RO         2492    .text               mc_w.l(init.o)
    0x080006a8   0x080006a8   0x0000001e   Code   RO         2494    .text               mc_w.l(llshl.o)
    0x080006c6   0x080006c6   0x00000020   Code   RO         2496    .text               mc_w.l(llushr.o)
    0x080006e6   0x080006e6   0x00000024   Code   RO         2498    .text               mc_w.l(llsshr.o)
    0x0800070a   0x0800070a   0x0000001c   Code   RO         2500    .text               mc_w.l(_chval.o)
    0x08000726   0x08000726   0x000000ba   Code   RO         2502    .text               mf_w.l(depilogue.o)
    0x080007e0   0x080007e0   0x00000002   Code   RO          130    i.BusFault_Handler  stm32f10x_it.o
    0x080007e2   0x080007e2   0x00000002   Code   RO          131    i.DebugMon_Handler  stm32f10x_it.o
    0x080007e4   0x080007e4   0x0000003c   Code   RO          335    i.FLASH_ErasePage   stm32f10x_flash.o
    0x08000820   0x08000820   0x00000028   Code   RO          336    i.FLASH_GetBank1Status  stm32f10x_flash.o
    0x08000848   0x08000848   0x00000010   Code   RO          345    i.FLASH_Lock        stm32f10x_flash.o
    0x08000858   0x08000858   0x0000005c   Code   RO          350    i.FLASH_ProgramWord  stm32f10x_flash.o
    0x080008b4   0x080008b4   0x00000018   Code   RO          353    i.FLASH_Unlock      stm32f10x_flash.o
    0x080008cc   0x080008cc   0x00000020   Code   RO          357    i.FLASH_WaitForLastOperation  stm32f10x_flash.o
    0x080008ec   0x080008ec   0x000000a6   Code   RO          510    i.GPIO_Init         stm32f10x_gpio.o
    0x08000992   0x08000992   0x00000002   Code   RO          132    i.HardFault_Handler  stm32f10x_it.o
    0x08000994   0x08000994   0x00000002   Code   RO          133    i.MemManage_Handler  stm32f10x_it.o
    0x08000996   0x08000996   0x00000002   Code   RO          134    i.NMI_Handler       stm32f10x_it.o
    0x08000998   0x08000998   0x00000064   Code   RO          198    i.NVIC_Init         misc.o
    0x080009fc   0x080009fc   0x00000014   Code   RO          199    i.NVIC_PriorityGroupConfig  misc.o
    0x08000a10   0x08000a10   0x00000020   Code   RO         1897    i.NVIC_SetPriority  bsp_cpu.o
    0x08000a30   0x08000a30   0x00000002   Code   RO          135    i.PendSV_Handler    stm32f10x_it.o
    0x08000a32   0x08000a32   0x00000002   PAD
    0x08000a34   0x08000a34   0x0000001c   Code   RO          664    i.RCC_APB2PeriphClockCmd  stm32f10x_rcc.o
    0x08000a50   0x08000a50   0x00000040   Code   RO          671    i.RCC_DeInit        stm32f10x_rcc.o
    0x08000a90   0x08000a90   0x000000ac   Code   RO          672    i.RCC_GetClocksFreq  stm32f10x_rcc.o
    0x08000b3c   0x08000b3c   0x00000002   Code   RO          136    i.SVC_Handler       stm32f10x_it.o
    0x08000b3e   0x08000b3e   0x00000004   Code   RO           17    i.SetSysClock       system_stm32f10x.o
    0x08000b42   0x08000b42   0x00000002   PAD
    0x08000b44   0x08000b44   0x000000b0   Code   RO           18    i.SetSysClockTo72   system_stm32f10x.o
    0x08000bf4   0x08000bf4   0x00000002   Code   RO         1898    i.SysTick_Handler   bsp_cpu.o
    0x08000bf6   0x08000bf6   0x00000002   PAD
    0x08000bf8   0x08000bf8   0x00000050   Code   RO           20    i.SystemInit        system_stm32f10x.o
    0x08000c48   0x08000c48   0x0000009c   Code   RO         1956    i.USART1_IRQHandler  bsp_uart.o
    0x08000ce4   0x08000ce4   0x00000008   Code   RO         1408    i.USART_ClearFlag   stm32f10x_usart.o
    0x08000cec   0x08000cec   0x00000018   Code   RO         1412    i.USART_Cmd         stm32f10x_usart.o
    0x08000d04   0x08000d04   0x00000040   Code   RO         1416    i.USART_GetITStatus  stm32f10x_usart.o
    0x08000d44   0x08000d44   0x00000036   Code   RO         1418    i.USART_ITConfig    stm32f10x_usart.o
    0x08000d7a   0x08000d7a   0x00000002   PAD
    0x08000d7c   0x08000d7c   0x000000bc   Code   RO         1419    i.USART_Init        stm32f10x_usart.o
    0x08000e38   0x08000e38   0x00000008   Code   RO         1426    i.USART_ReceiveData  stm32f10x_usart.o
    0x08000e40   0x08000e40   0x00000008   Code   RO         1429    i.USART_SendData    stm32f10x_usart.o
    0x08000e48   0x08000e48   0x00000002   Code   RO          137    i.UsageFault_Handler  stm32f10x_it.o
    0x08000e4a   0x08000e4a   0x00000002   PAD
    0x08000e4c   0x08000e4c   0x00000020   Code   RO         2393    i.__0printf         mc_w.l(printfa.o)
    0x08000e6c   0x08000e6c   0x00000008   Code   RO         2472    i.__aeabi_errno_addr  mc_w.l(errno.o)
    0x08000e74   0x08000e74   0x0000000e   Code   RO         2506    i.__scatterload_copy  mc_w.l(handlers.o)
    0x08000e82   0x08000e82   0x00000002   Code   RO         2507    i.__scatterload_null  mc_w.l(handlers.o)
    0x08000e84   0x08000e84   0x0000000e   Code   RO         2508    i.__scatterload_zeroinit  mc_w.l(handlers.o)
    0x08000e92   0x08000e92   0x00000002   PAD
    0x08000e94   0x08000e94   0x00000184   Code   RO         2400    i._fp_digits        mc_w.l(printfa.o)
    0x08001018   0x08001018   0x000006b4   Code   RO         2401    i._printf_core      mc_w.l(printfa.o)
    0x080016cc   0x080016cc   0x00000024   Code   RO         2402    i._printf_post_padding  mc_w.l(printfa.o)
    0x080016f0   0x080016f0   0x0000002e   Code   RO         2403    i._printf_pre_padding  mc_w.l(printfa.o)
    0x0800171e   0x0800171e   0x00000012   Code   RO         1860    i.bsp_init          bsp.o
    0x08001730   0x08001730   0x0000000a   Code   RO         1861    i.bsp_periph_clock_enable  bsp.o
    0x0800173a   0x0800173a   0x00000002   PAD
    0x0800173c   0x0800173c   0x0000001c   Code   RO         1899    i.cpu_enter_critical  bsp_cpu.o
    0x08001758   0x08001758   0x0000001c   Code   RO         1900    i.cpu_exit_critical  bsp_cpu.o
    0x08001774   0x08001774   0x00000048   Code   RO         1901    i.cpu_init          bsp_cpu.o
    0x080017bc   0x080017bc   0x00000024   Code   RO         1902    i.cpu_reset         bsp_cpu.o
    0x080017e0   0x080017e0   0x00000028   Code   RO         2139    i.crc16             crc16.o
    0x08001808   0x08001808   0x0000005c   Code   RO         2098    i.flash_program     upgrade.o
    0x08001864   0x08001864   0x00000054   Code   RO         2099    i.flash_program_page  upgrade.o
    0x080018b8   0x080018b8   0x00000010   Code   RO         1957    i.fputc             bsp_uart.o
    0x080018c8   0x080018c8   0x00000094   Code   RO         2100    i.jump_to_application  upgrade.o
    0x0800195c   0x0800195c   0x0000000e   Code   RO         2038    i.main              main.o
    0x0800196a   0x0800196a   0x00000018   Code   RO         1903    i.ms_delay          bsp_cpu.o
    0x08001982   0x08001982   0x0000003a   Code   RO         1810    i.ringbuffer_data_size  ringbuffer.o
    0x080019bc   0x080019bc   0x00000048   Code   RO         1811    i.ringbuffer_get_char  ringbuffer.o
    0x08001a04   0x08001a04   0x00000026   Code   RO         1812    i.ringbuffer_init   ringbuffer.o
    0x08001a2a   0x08001a2a   0x00000046   Code   RO         1813    i.ringbuffer_put_char  ringbuffer.o
    0x08001a70   0x08001a70   0x00000012   Code   RO         1814    i.ringbuffer_space_size  ringbuffer.o
    0x08001a82   0x08001a82   0x00000020   Code   RO         1815    i.ringbuffer_status  ringbuffer.o
    0x08001aa2   0x08001aa2   0x00000002   PAD
    0x08001aa4   0x08001aa4   0x00000034   Code   RO         1958    i.uart_config       bsp_uart.o
    0x08001ad8   0x08001ad8   0x00000032   Code   RO         1959    i.uart_config_gpio  bsp_uart.o
    0x08001b0a   0x08001b0a   0x00000014   Code   RO         1960    i.uart_config_nvic  bsp_uart.o
    0x08001b1e   0x08001b1e   0x00000002   PAD
    0x08001b20   0x08001b20   0x00000040   Code   RO         1961    i.uart_config_param  bsp_uart.o
    0x08001b60   0x08001b60   0x00000034   Code   RO         1962    i.uart_get_char     bsp_uart.o
    0x08001b94   0x08001b94   0x00000034   Code   RO         1963    i.uart_init         bsp_uart.o
    0x08001bc8   0x08001bc8   0x0000000c   Code   RO         1965    i.uart_put_char     bsp_uart.o
    0x08001bd4   0x08001bd4   0x00000040   Code   RO         1966    i.uart_put_string   bsp_uart.o
    0x08001c14   0x08001c14   0x000000dc   Code   RO         2101    i.upgrade_firmware  upgrade.o
    0x08001cf0   0x08001cf0   0x00000044   Code   RO         1904    i.us_delay          bsp_cpu.o
    0x08001d34   0x08001d34   0x00000054   Code   RO         2053    i.ymodem_parse_file_info  ymodem.o
    0x08001d88   0x08001d88   0x00000102   Code   RO         2054    i.ymodem_receive    ymodem.o
    0x08001e8a   0x08001e8a   0x00000024   Code   RO         2055    i.ymodem_receive_byte  ymodem.o
    0x08001eae   0x08001eae   0x000000bc   Code   RO         2056    i.ymodem_receive_packet  ymodem.o
    0x08001f6a   0x08001f6a   0x00000008   Code   RO         2057    i.ymodem_send_byte  ymodem.o
    0x08001f72   0x08001f72   0x00000002   PAD
    0x08001f74   0x08001f74   0x00000028   Data   RO         1969    .constdata          bsp_uart.o
    0x08001f9c   0x08001f9c   0x00000200   Data   RO         2140    .constdata          crc16.o
    0x0800219c   0x0800219c   0x00000081   Data   RO         2445    .constdata          mc_w.l(ctype_o.o)
    0x0800221d   0x0800221d   0x00000003   PAD
    0x08002220   0x08002220   0x00000004   Data   RO         2446    .constdata          mc_w.l(ctype_o.o)
    0x08002224   0x08002224   0x00000020   Data   RO         2504    Region$$Table       anon$$obj.o


    Execution Region RW_IRAM1 (Exec base: 0x20000000, Load base: 0x08002244, Size: 0x000022c0, Max: 0x00005000, ABSOLUTE)

    Exec Addr    Load Addr    Size         Type   Attr      Idx    E Section Name        Object

    0x20000000   0x08002244   0x00000014   Data   RW          692    .data               stm32f10x_rcc.o
    0x20000014   0x08002258   0x00000008   Data   RW         1905    .data               bsp_cpu.o
    0x2000001c   0x08002260   0x00000004   Data   RW         2103    .data               upgrade.o
    0x20000020   0x08002264   0x00000004   Data   RW         2439    .data               mc_w.l(stdout.o)
    0x20000024   0x08002268   0x00000004   Data   RW         2475    .data               mc_w.l(errno.o)
    0x20000028        -       0x00000998   Zero   RW         1968    .bss                bsp_uart.o
    0x200009c0        -       0x000008ff   Zero   RW         2102    .bss                upgrade.o
    0x200012bf   0x0800226c   0x00000001   PAD
    0x200012c0        -       0x00001000   Zero   RW          191    STACK               startup_stm32f10x_md.o


==============================================================================

Image component sizes


      Code (inc. data)   RO Data    RW Data    ZI Data      Debug   Object Name

        28          0          0          0          0       3469   bsp.o
       290         26          0          8          0      19835   bsp_cpu.o
       538         34         40          0       2456      14251   bsp_uart.o
        32          0          0          0          0       5112   core_cm3.o
        40          4        512          0          0       1028   crc16.o
        14          0          0          0          0       1035   main.o
       120         14          0          0          0       1551   misc.o
       288          0          0          0          0       4721   ringbuffer.o
        36          8        236          0       4096        808   startup_stm32f10x_md.o
       264         32          0          0          0       4986   stm32f10x_flash.o
       166          0          0          0          0       2008   stm32f10x_gpio.o
        16          0          0          0          0       3524   stm32f10x_it.o
       264         38          0         20          0       4446   stm32f10x_rcc.o
       354          6          0          0          0       6321   stm32f10x_usart.o
       260         26          0          0          0     234821   system_stm32f10x.o
       544        168          0          4       2303      18942   upgrade.o
       574          0          0          0          0       5405   ymodem.o

    ----------------------------------------------------------------------
      3846        356        820         32       8856     332263   Object Totals
         0          0         32          0          0          0   (incl. Generated)
        18          0          0          0          1          0   (incl. Padding)

    ----------------------------------------------------------------------

      Code (inc. data)   RO Data    RW Data    ZI Data      Debug   Library Member Name

        28          0          0          0          0         68   _chval.o
       158          0          0          0          0         92   _strtoul.o
         8          4        133          0          0         68   ctype_o.o
         0          0          0          0          0          0   entry.o
         0          0          0          0          0          0   entry10a.o
         0          0          0          0          0          0   entry11a.o
         4          0          0          0          0          0   entry12b.o
         8          4          0          0          0          0   entry2.o
         4          0          0          0          0          0   entry5.o
         0          0          0          0          0          0   entry7b.o
         0          0          0          0          0          0   entry8b.o
         8          4          0          0          0          0   entry9a.o
         8          4          0          4          0         68   errno.o
        30          0          0          0          0          0   handlers.o
        36          8          0          0          0         68   init.o
         0          0          0          0          0          0   iusefp.o
        30          0          0          0          0         68   llshl.o
        36          0          0          0          0         68   llsshr.o
        32          0          0          0          0         68   llushr.o
        36          0          0          0          0         68   memcpya.o
      2218         90          0          0          0        464   printfa.o
         0          0          0          4          0          0   stdout.o
       112          0          0          0          0         88   strtol.o
        44          0          0          0          0         80   uidiv.o
        98          0          0          0          0         92   uldiv.o
        48          0          0          0          0         68   cdrcmple.o
       334          0          0          0          0        148   dadd.o
       222          0          0          0          0        100   ddiv.o
       186          0          0          0          0        176   depilogue.o
        48          0          0          0          0         68   dfixul.o
       228          0          0          0          0         96   dmul.o

    ----------------------------------------------------------------------
      3970        114        136          8          0       2016   Library Totals
         6          0          3          0          0          0   (incl. Padding)

    ----------------------------------------------------------------------

      Code (inc. data)   RO Data    RW Data    ZI Data      Debug   Library Name

      2898        114        133          8          0       1360   mc_w.l
      1066          0          0          0          0        656   mf_w.l

    ----------------------------------------------------------------------
      3970        114        136          8          0       2016   Library Totals

    ----------------------------------------------------------------------

==============================================================================


      Code (inc. data)   RO Data    RW Data    ZI Data      Debug   

      7816        470        956         40       8856     330115   Grand Totals
      7816        470        956         40       8856     330115   ELF Image Totals
      7816        470        956         40          0          0   ROM Totals

==============================================================================

    Total RO  Size (Code + RO Data)                 8772 (   8.57kB)
    Total RW  Size (RW Data + ZI Data)              8896 (   8.69kB)
    Total ROM Size (Code + RO Data + RW Data)       8812 (   8.61kB)

==============================================================================

