Component: ARM Compiler 5.06 update 7 (build 960) Tool: armlink [4d3601]

==============================================================================

Section Cross References

    system_stm32f10x.o(i.SetSysClock) refers to system_stm32f10x.o(i.SetSysClockTo72) for SetSysClockTo72
    system_stm32f10x.o(i.SystemCoreClockUpdate) refers to system_stm32f10x.o(.data) for .data
    system_stm32f10x.o(i.SystemInit) refers to system_stm32f10x.o(i.SetSysClock) for SetSysClock
    startup_stm32f10x_md.o(RESET) refers to startup_stm32f10x_md.o(STACK) for __initial_sp
    startup_stm32f10x_md.o(RESET) refers to startup_stm32f10x_md.o(.text) for Reset_Handler
    startup_stm32f10x_md.o(RESET) refers to stm32f10x_it.o(i.NMI_Handler) for NMI_Handler
    startup_stm32f10x_md.o(RESET) refers to stm32f10x_it.o(i.HardFault_Handler) for HardFault_Handler
    startup_stm32f10x_md.o(RESET) refers to stm32f10x_it.o(i.MemManage_Handler) for MemManage_Handler
    startup_stm32f10x_md.o(RESET) refers to stm32f10x_it.o(i.BusFault_Handler) for BusFault_Handler
    startup_stm32f10x_md.o(RESET) refers to stm32f10x_it.o(i.UsageFault_Handler) for UsageFault_Handler
    startup_stm32f10x_md.o(RESET) refers to stm32f10x_it.o(i.SVC_Handler) for SVC_Handler
    startup_stm32f10x_md.o(RESET) refers to stm32f10x_it.o(i.DebugMon_Handler) for DebugMon_Handler
    startup_stm32f10x_md.o(RESET) refers to stm32f10x_it.o(i.PendSV_Handler) for PendSV_Handler
    startup_stm32f10x_md.o(RESET) refers to bsp_cpu.o(i.SysTick_Handler) for SysTick_Handler
    startup_stm32f10x_md.o(RESET) refers to bsp_uart.o(i.USART1_IRQHandler) for USART1_IRQHandler
    startup_stm32f10x_md.o(.text) refers to system_stm32f10x.o(i.SystemInit) for SystemInit
    startup_stm32f10x_md.o(.text) refers to entry.o(.ARM.Collect$$$$00000000) for __main
    stm32f10x_flash.o(i.FLASH_EnableWriteProtection) refers to stm32f10x_flash.o(i.FLASH_WaitForLastOperation) for FLASH_WaitForLastOperation
==============================================================================

Removing Unused input sections from the image.

    Removing core_cm3.o(.emb_text), (32 bytes).
    Removing system_stm32f10x.o(i.SystemCoreClockUpdate), (124 bytes).
    Removing system_stm32f10x.o(.data), (20 bytes).
    Removing startup_stm32f10x_md.o(HEAP), (8192 bytes).
    Removing misc.o(i.NVIC_SetVectorTable), (20 bytes).
    Removing misc.o(i.NVIC_SystemLPConfig), (28 bytes).
    Removing misc.o(i.SysTick_CLKSourceConfig), (28 bytes).
    Removing stm32f10x_dbgmcu.o(i.DBGMCU_Config), (28 bytes).
    Removing stm32f10x_dbgmcu.o(i.DBGMCU_GetDEVID), (16 bytes).
    Removing stm32f10x_dbgmcu.o(i.DBGMCU_GetREVID), (12 bytes).
    Removing stm32f10x_dma.o(i.DMA_ClearFlag), (24 bytes).
    Removing stm32f10x_dma.o(i.DMA_ClearITPendingBit), (24 bytes).
    Removing stm32f10x_dma.o(i.DMA_Cmd), (26 bytes).
    Removing stm32f10x_dma.o(i.DMA_DeInit), (248 bytes).
    Removing stm32f10x_dma.o(i.DMA_GetCurrDataCounter), (6 bytes).
    Removing stm32f10x_dma.o(i.DMA_GetFlagStatus), (36 bytes).
    Removing stm32f10x_dma.o(i.DMA_GetITStatus), (36 bytes).
    Removing stm32f10x_dma.o(i.DMA_ITConfig), (20 bytes).
==============================================================================

Image Symbol Table

    Local Symbols

    Symbol Name                              Value     Ov Type        Size  Object(Section)

    ../clib/microlib/division.c              0x00000000   Number         0  uldiv.o ABSOLUTE
    ../clib/microlib/division.c              0x00000000   Number         0  uidiv.o ABSOLUTE
    ../clib/microlib/init/entry.s            0x00000000   Number         0  entry2.o ABSOLUTE
    ../clib/microlib/init/entry.s            0x00000000   Number         0  entry8a.o ABSOLUTE
    ../clib/microlib/init/entry.s            0x00000000   Number         0  entry10a.o ABSOLUTE
    ../clib/microlib/init/entry.s            0x00000000   Number         0  entry5.o ABSOLUTE
    ../clib/microlib/init/entry.s            0x00000000   Number         0  entry9b.o ABSOLUTE
    ../clib/microlib/init/entry.s            0x00000000   Number         0  entry9a.o ABSOLUTE
    ../clib/microlib/init/entry.s            0x00000000   Number         0  entry8b.o ABSOLUTE
    ../clib/microlib/init/entry.s            0x00000000   Number         0  entry7a.o ABSOLUTE
    ../clib/microlib/init/entry.s            0x00000000   Number         0  entry.o ABSOLUTE
    ../clib/microlib/init/entry.s            0x00000000   Number         0  entry7b.o ABSOLUTE
    ../clib/microlib/init/entry.s            0x00000000   Number         0  entry11b.o ABSOLUTE
    ../clib/microlib/init/entry.s            0x00000000   Number         0  entry12a.o ABSOLUTE
    ../clib/microlib/init/entry.s            0x00000000   Number         0  entry12b.o ABSOLUTE
    ../clib/microlib/init/entry.s            0x00000000   Number         0  entry11a.o ABSOLUTE
    ../clib/microlib/init/entry.s            0x00000000   Number         0  entry10b.o ABSOLUTE
    ../clib/microlib/longlong.c              0x00000000   Number         0  llsshr.o ABSOLUTE
    ../clib/microlib/longlong.c              0x00000000   Number         0  llushr.o ABSOLUTE
    ../clib/microlib/longlong.c              0x00000000   Number         0  llshl.o ABSOLUTE
    ../clib/microlib/printf/printf.c         0x00000000   Number         0  printfa.o ABSOLUTE
    ../clib/microlib/printf/printf.c         0x00000000   Number         0  printf0.o ABSOLUTE
    ../clib/microlib/printf/printf.c         0x00000000   Number         0  printf1.o ABSOLUTE
    ../clib/microlib/printf/printf.c         0x00000000   Number         0  printf2.o ABSOLUTE
    ../clib/microlib/printf/printf.c         0x00000000   Number         0  printf3.o ABSOLUTE
    ../clib/microlib/printf/printf.c         0x00000000   Number         0  printf4.o ABSOLUTE
    ../clib/microlib/printf/printf.c         0x00000000   Number         0  printf5.o ABSOLUTE
    ../clib/microlib/printf/printf.c         0x00000000   Number         0  printf7.o ABSOLUTE
    ../clib/microlib/printf/printf.c         0x00000000   Number         0  printf8.o ABSOLUTE
    ../clib/microlib/printf/printf.c         0x00000000   Number         0  printfb.o ABSOLUTE
    ../clib/microlib/printf/printf.c         0x00000000   Number         0  printf6.o ABSOLUTE
    ../clib/microlib/printf/stubs.s          0x00000000   Number         0  stubs.o ABSOLUTE
    ../clib/microlib/stdio/streams.c         0x00000000   Number         0  stdout.o ABSOLUTE
    ../clib/microlib/stubs.s                 0x00000000   Number         0  iusefp.o ABSOLUTE
    ../fplib/microlib/fpadd.c                0x00000000   Number         0  dadd.o ABSOLUTE
    ../fplib/microlib/fpdiv.c                0x00000000   Number         0  ddiv.o ABSOLUTE
    ../fplib/microlib/fpepilogue.c           0x00000000   Number         0  depilogue.o ABSOLUTE
    ../fplib/microlib/fpfix.c                0x00000000   Number         0  dfixul.o ABSOLUTE
    ../fplib/microlib/fpmul.c                0x00000000   Number         0  dmul.o ABSOLUTE
    ..\BSP\bsp.c                             0x00000000   Number         0  bsp.o ABSOLUTE
    ..\BSP\src\bsp_cpu.c                     0x00000000   Number         0  bsp_cpu.o ABSOLUTE
    ..\BSP\src\bsp_uart.c                    0x00000000   Number         0  bsp_uart.o ABSOLUTE
    ..\Drivers\CMSIS\core_cm3.c              0x00000000   Number         0  core_cm3.o ABSOLUTE
    ..\Drivers\CMSIS\stm32f10x_it.c          0x00000000   Number         0  stm32f10x_it.o ABSOLUTE
    ..\Drivers\CMSIS\system_stm32f10x.c      0x00000000   Number         0  system_stm32f10x.o ABSOLUTE
    ..\Drivers\Lib\src\misc.c                0x00000000   Number         0  misc.o ABSOLUTE
    ..\Drivers\Lib\src\stm32f10x_adc.c       0x00000000   Number         0  stm32f10x_adc.o ABSOLUTE
    ..\Drivers\Lib\src\stm32f10x_dbgmcu.c    0x00000000   Number         0  stm32f10x_dbgmcu.o ABSOLUTE
    ..\Drivers\Lib\src\stm32f10x_dma.c       0x00000000   Number         0  stm32f10x_dma.o ABSOLUTE
    ..\Drivers\Lib\src\stm32f10x_flash.c     0x00000000   Number         0  stm32f10x_flash.o ABSOLUTE
    ..\Drivers\Lib\src\stm32f10x_gpio.c      0x00000000   Number         0  stm32f10x_gpio.o ABSOLUTE
    ..\Drivers\Lib\src\stm32f10x_iwdg.c      0x00000000   Number         0  stm32f10x_iwdg.o ABSOLUTE
    ..\Drivers\Lib\src\stm32f10x_rcc.c       0x00000000   Number         0  stm32f10x_rcc.o ABSOLUTE
    ..\Drivers\Lib\src\stm32f10x_tim.c       0x00000000   Number         0  stm32f10x_tim.o ABSOLUTE
    ..\Drivers\Lib\src\stm32f10x_usart.c     0x00000000   Number         0  stm32f10x_usart.o ABSOLUTE
    ..\Drivers\Starup\startup_stm32f10x_md.s 0x00000000   Number         0  startup_stm32f10x_md.o ABSOLUTE
    ..\Middleware\src\ringbuffer.c           0x00000000   Number         0  ringbuffer.o ABSOLUTE
    ..\User\factory_info.c                   0x00000000   Number         0  factory_info.o ABSOLUTE
    ..\User\main.c                           0x00000000   Number         0  main.o ABSOLUTE
    ..\\Drivers\\CMSIS\\core_cm3.c           0x00000000   Number         0  core_cm3.o ABSOLUTE
    cdrcmple.s                               0x00000000   Number         0  cdrcmple.o ABSOLUTE
    dc.s                                     0x00000000   Number         0  dc.o ABSOLUTE
    handlers.s                               0x00000000   Number         0  handlers.o ABSOLUTE
    init.s                                   0x00000000   Number         0  init.o ABSOLUTE
    .ARM.__AT_0x08002400                     0x08002400   Section       28  factory_info.o(.ARM.__AT_0x08002400)
    RESET                                    0x08002800   Section      236  startup_stm32f10x_md.o(RESET)
    .ARM.Collect$$$$00000000                 0x080028ec   Section        0  entry.o(.ARM.Collect$$$$00000000)
    .ARM.Collect$$$$00000001                 0x080028ec   Section        4  entry2.o(.ARM.Collect$$$$00000001)
    .ARM.Collect$$$$00000004                 0x080028f0   Section        4  entry5.o(.ARM.Collect$$$$00000004)
    .ARM.Collect$$$$00000008                 0x080028f4   Section        0  entry7b.o(.ARM.Collect$$$$00000008)
    .ARM.Collect$$$$0000000A                 0x080028f4   Section        0  entry8b.o(.ARM.Collect$$$$0000000A)
    .ARM.Collect$$$$0000000B                 0x080028f4   Section        8  entry9a.o(.ARM.Collect$$$$0000000B)
    .ARM.Collect$$$$0000000E                 0x080028fc   Section        4  entry12b.o(.ARM.Collect$$$$0000000E)
    .ARM.Collect$$$$0000000F                 0x08002900   Section        0  entry10a.o(.ARM.Collect$$$$0000000F)
    .ARM.Collect$$$$00000011                 0x08002900   Section        0  entry11a.o(.ARM.Collect$$$$00000011)
    .ARM.Collect$$$$00002712                 0x08002900   Section        4  entry2.o(.ARM.Collect$$$$00002712)
    __lit__00000000                          0x08002900   Data           4  entry2.o(.ARM.Collect$$$$00002712)
    .text                                    0x08002904   Section       36  startup_stm32f10x_md.o(.text)
    .text                                    0x08002928   Section        0  uidiv.o(.text)
    .text                                    0x08002954   Section        0  uldiv.o(.text)
    .text                                    0x080029b6   Section        0  dadd.o(.text)
    .text                                    0x080029b6   Section        0  iusefp.o(.text)
    .text                                    0x08002b04   Section        0  dmul.o(.text)
    .text                                    0x08002be8   Section        0  ddiv.o(.text)
    .text                                    0x08002cc6   Section        0  dfixul.o(.text)
    .text                                    0x08002cf8   Section       48  cdrcmple.o(.text)
    .text                                    0x08002d28   Section       36  init.o(.text)
    .text                                    0x08002d4c   Section        0  llshl.o(.text)
    .text                                    0x08002d6a   Section        0  llushr.o(.text)
    .text                                    0x08002d8a   Section        0  llsshr.o(.text)
    .text                                    0x08002dae   Section        0  depilogue.o(.text)
    i.BusFault_Handler                       0x08002e68   Section        0  stm32f10x_it.o(i.BusFault_Handler)
    i.DebugMon_Handler                       0x08002e6a   Section        0  stm32f10x_it.o(i.DebugMon_Handler)
    i.FLASH_ErasePage                        0x08002e6c   Section        0  stm32f10x_flash.o(i.FLASH_ErasePage)
    i.FLASH_GetBank1Status                   0x08002ea8   Section        0  stm32f10x_flash.o(i.FLASH_GetBank1Status)
    i.FLASH_Lock                             0x08002ed0   Section        0  stm32f10x_flash.o(i.FLASH_Lock)
    i.FLASH_Unlock                           0x08002ee0   Section        0  stm32f10x_flash.o(i.FLASH_Unlock)
    i.FLASH_WaitForLastOperation             0x08002ef8   Section        0  stm32f10x_flash.o(i.FLASH_WaitForLastOperation)
    i.GPIO_Init                              0x08002f18   Section        0  stm32f10x_gpio.o(i.GPIO_Init)
    i.HardFault_Handler                      0x08002fbe   Section        0  stm32f10x_it.o(i.HardFault_Handler)
    i.MemManage_Handler                      0x08002fc0   Section        0  stm32f10x_it.o(i.MemManage_Handler)
    i.NMI_Handler                            0x08002fc2   Section        0  stm32f10x_it.o(i.NMI_Handler)
    i.NVIC_Init                              0x08002fc4   Section        0  misc.o(i.NVIC_Init)
    i.NVIC_PriorityGroupConfig               0x08003028   Section        0  misc.o(i.NVIC_PriorityGroupConfig)
    i.NVIC_SetPriority                       0x0800303c   Section        0  bsp_cpu.o(i.NVIC_SetPriority)
    NVIC_SetPriority                         0x0800303d   Thumb Code    32  bsp_cpu.o(i.NVIC_SetPriority)
    i.PendSV_Handler                         0x0800305c   Section        0  stm32f10x_it.o(i.PendSV_Handler)
    i.RCC_APB1PeriphClockCmd                 0x08003060   Section        0  stm32f10x_rcc.o(i.RCC_APB1PeriphClockCmd)
    i.RCC_APB2PeriphClockCmd                 0x0800307c   Section        0  stm32f10x_rcc.o(i.RCC_APB2PeriphClockCmd)
    i.RCC_GetClocksFreq                      0x08003098   Section        0  stm32f10x_rcc.o(i.RCC_GetClocksFreq)
    i.SVC_Handler                            0x08003144   Section        0  stm32f10x_it.o(i.SVC_Handler)
    i.SetSysClock                            0x08003146   Section        0  system_stm32f10x.o(i.SetSysClock)
    SetSysClock                              0x08003147   Thumb Code     4  system_stm32f10x.o(i.SetSysClock)
    i.SetSysClockTo72                        0x0800314c   Section        0  system_stm32f10x.o(i.SetSysClockTo72)
    SetSysClockTo72                          0x0800314d   Thumb Code   166  system_stm32f10x.o(i.SetSysClockTo72)
    i.SysTick_Handler                        0x080031fc   Section        0  bsp_cpu.o(i.SysTick_Handler)
    i.SystemInit                             0x08003200   Section        0  system_stm32f10x.o(i.SystemInit)
    i.USART1_IRQHandler                      0x08003254   Section        0  bsp_uart.o(i.USART1_IRQHandler)
    i.USART_ClearFlag                        0x080032f0   Section        0  stm32f10x_usart.o(i.USART_ClearFlag)
    i.USART_Cmd                              0x080032f8   Section        0  stm32f10x_usart.o(i.USART_Cmd)
    i.USART_GetITStatus                      0x08003310   Section        0  stm32f10x_usart.o(i.USART_GetITStatus)
    i.USART_ITConfig                         0x08003350   Section        0  stm32f10x_usart.o(i.USART_ITConfig)
    i.USART_Init                             0x08003388   Section        0  stm32f10x_usart.o(i.USART_Init)
    i.USART_ReceiveData                      0x08003444   Section        0  stm32f10x_usart.o(i.USART_ReceiveData)
    i.USART_SendData                         0x0800344c   Section        0  stm32f10x_usart.o(i.USART_SendData)
    i.UsageFault_Handler                     0x08003454   Section        0  stm32f10x_it.o(i.UsageFault_Handler)
    i.__0printf                              0x08003458   Section        0  printfa.o(i.__0printf)
    i.__scatterload_copy                     0x08003478   Section       14  handlers.o(i.__scatterload_copy)
    i.__scatterload_null                     0x08003486   Section        2  handlers.o(i.__scatterload_null)
    i.__scatterload_zeroinit                 0x08003488   Section       14  handlers.o(i.__scatterload_zeroinit)
    i._fp_digits                             0x08003498   Section        0  printfa.o(i._fp_digits)
    _fp_digits                               0x08003499   Thumb Code   366  printfa.o(i._fp_digits)
    i._printf_core                           0x0800361c   Section        0  printfa.o(i._printf_core)
    _printf_core                             0x0800361d   Thumb Code  1704  printfa.o(i._printf_core)
    i._printf_post_padding                   0x08003cd0   Section        0  printfa.o(i._printf_post_padding)
    _printf_post_padding                     0x08003cd1   Thumb Code    36  printfa.o(i._printf_post_padding)
    i._printf_pre_padding                    0x08003cf4   Section        0  printfa.o(i._printf_pre_padding)
    _printf_pre_padding                      0x08003cf5   Thumb Code    46  printfa.o(i._printf_pre_padding)
    i.bsp_init                               0x08003d22   Section        0  bsp.o(i.bsp_init)
    i.bsp_periph_clock_enable                0x08003d34   Section        0  bsp.o(i.bsp_periph_clock_enable)
    i.cpu_enter_critical                     0x08003d4c   Section        0  bsp_cpu.o(i.cpu_enter_critical)
    i.cpu_exit_critical                      0x08003d68   Section        0  bsp_cpu.o(i.cpu_exit_critical)
    i.cpu_init                               0x08003d84   Section        0  bsp_cpu.o(i.cpu_init)
    i.cpu_reset                              0x08003dcc   Section        0  bsp_cpu.o(i.cpu_reset)
    i.factory_info_handle                    0x08003df0   Section        0  factory_info.o(i.factory_info_handle)
    i.fputc                                  0x08003eac   Section        0  bsp_uart.o(i.fputc)
    i.main                                   0x08003ebc   Section        0  main.o(i.main)
    i.ms_delay                               0x08003eca   Section        0  bsp_cpu.o(i.ms_delay)
    i.receive_byte                           0x08003ee2   Section        0  factory_info.o(i.receive_byte)
    receive_byte                             0x08003ee3   Thumb Code    36  factory_info.o(i.receive_byte)
    i.receive_cmd_parse                      0x08003f08   Section        0  factory_info.o(i.receive_cmd_parse)
    receive_cmd_parse                        0x08003f09   Thumb Code    88  factory_info.o(i.receive_cmd_parse)
    i.ringbuffer_data_size                   0x08003f64   Section        0  ringbuffer.o(i.ringbuffer_data_size)
    i.ringbuffer_get_char                    0x08003f9e   Section        0  ringbuffer.o(i.ringbuffer_get_char)
    i.ringbuffer_init                        0x08003fe6   Section        0  ringbuffer.o(i.ringbuffer_init)
    i.ringbuffer_put_char                    0x0800400c   Section        0  ringbuffer.o(i.ringbuffer_put_char)
    i.ringbuffer_space_size                  0x08004052   Section        0  ringbuffer.o(i.ringbuffer_space_size)
    ringbuffer_space_size                    0x08004053   Thumb Code    18  ringbuffer.o(i.ringbuffer_space_size)
    i.ringbuffer_status                      0x08004064   Section        0  ringbuffer.o(i.ringbuffer_status)
    i.uart_config                            0x08004084   Section        0  bsp_uart.o(i.uart_config)
    i.uart_config_gpio                       0x080040b8   Section        0  bsp_uart.o(i.uart_config_gpio)
    uart_config_gpio                         0x080040b9   Thumb Code    50  bsp_uart.o(i.uart_config_gpio)
    i.uart_config_nvic                       0x080040ea   Section        0  bsp_uart.o(i.uart_config_nvic)
    uart_config_nvic                         0x080040eb   Thumb Code    20  bsp_uart.o(i.uart_config_nvic)
    i.uart_config_param                      0x08004100   Section        0  bsp_uart.o(i.uart_config_param)
    uart_config_param                        0x08004101   Thumb Code    58  bsp_uart.o(i.uart_config_param)
    i.uart_get_char                          0x08004140   Section        0  bsp_uart.o(i.uart_get_char)
    i.uart_init                              0x08004174   Section        0  bsp_uart.o(i.uart_init)
    i.uart_put_char                          0x080041a8   Section        0  bsp_uart.o(i.uart_put_char)
    i.uart_put_string                        0x080041b4   Section        0  bsp_uart.o(i.uart_put_string)
    i.us_delay                               0x080041f4   Section        0  bsp_cpu.o(i.us_delay)
    .constdata                               0x08004238   Section       40  bsp_uart.o(.constdata)
    uart_devices                             0x08004238   Data          24  bsp_uart.o(.constdata)
    .conststring                             0x08004260   Section      100  factory_info.o(.conststring)
    .ARM.__AT_0x0800F000                     0x0800f000   Section        1  factory_info.o(.ARM.__AT_0x0800F000)
    .data                                    0x20000000   Section       20  stm32f10x_rcc.o(.data)
    ADCPrescTable                            0x20000000   Data           4  stm32f10x_rcc.o(.data)
    APBAHBPrescTable                         0x20000004   Data          16  stm32f10x_rcc.o(.data)
    .data                                    0x20000014   Section        8  bsp_cpu.o(.data)
    systick_enable                           0x20000014   Data           1  bsp_cpu.o(.data)
    critical_nesting                         0x20000018   Data           4  bsp_cpu.o(.data)
    .data                                    0x2000001c   Section       24  factory_info.o(.data)
    .data                                    0x20000034   Section        4  stdout.o(.data)
    .bss                                     0x20000038   Section     2456  bsp_uart.o(.bss)
    buffer                                   0x20000038   Data         128  bsp_uart.o(.bss)
    STACK                                    0x200009d0   Section     4096  startup_stm32f10x_md.o(STACK)

    Global Symbols

    Symbol Name                              Value     Ov Type        Size  Object(Section)

    BuildAttributes$$THM_ISAv4$P$D$K$B$S$PE$A:L22UL41UL21$X:L11$S22US41US21$IEEE1$IW$USESV6$~STKCKD$USESV7$~SHL$OSPACE$ROPI$EBA8$MICROLIB$REQ8$PRES8$EABIv2 0x00000000   Number         0  anon$$obj.o ABSOLUTE
    __ARM_use_no_argv                        0x00000000   Number         0  main.o ABSOLUTE
    _printf_a                                0x00000000   Number         0  stubs.o ABSOLUTE
    _printf_c                                0x00000000   Number         0  stubs.o ABSOLUTE
    _printf_charcount                        0x00000000   Number         0  stubs.o ABSOLUTE
    _printf_d                                0x00000000   Number         0  stubs.o ABSOLUTE
    _printf_e                                0x00000000   Number         0  stubs.o ABSOLUTE
    _printf_f                                0x00000000   Number         0  stubs.o ABSOLUTE
    _printf_flags                            0x00000000   Number         0  stubs.o ABSOLUTE
    _printf_fp_dec                           0x00000000   Number         0  stubs.o ABSOLUTE
    _printf_fp_hex                           0x00000000   Number         0  stubs.o ABSOLUTE
    _printf_g                                0x00000000   Number         0  stubs.o ABSOLUTE
    _printf_i                                0x00000000   Number         0  stubs.o ABSOLUTE
    _printf_int_dec                          0x00000000   Number         0  stubs.o ABSOLUTE
    _printf_l                                0x00000000   Number         0  stubs.o ABSOLUTE
    _printf_lc                               0x00000000   Number         0  stubs.o ABSOLUTE
    _printf_ll                               0x00000000   Number         0  stubs.o ABSOLUTE
    _printf_lld                              0x00000000   Number         0  stubs.o ABSOLUTE
    _printf_lli                              0x00000000   Number         0  stubs.o ABSOLUTE
    _printf_llo                              0x00000000   Number         0  stubs.o ABSOLUTE
    _printf_llu                              0x00000000   Number         0  stubs.o ABSOLUTE
    _printf_llx                              0x00000000   Number         0  stubs.o ABSOLUTE
    _printf_longlong_dec                     0x00000000   Number         0  stubs.o ABSOLUTE
    _printf_longlong_hex                     0x00000000   Number         0  stubs.o ABSOLUTE
    _printf_longlong_oct                     0x00000000   Number         0  stubs.o ABSOLUTE
    _printf_ls                               0x00000000   Number         0  stubs.o ABSOLUTE
    _printf_mbtowc                           0x00000000   Number         0  stubs.o ABSOLUTE
    _printf_n                                0x00000000   Number         0  stubs.o ABSOLUTE
    _printf_o                                0x00000000   Number         0  stubs.o ABSOLUTE
    _printf_p                                0x00000000   Number         0  stubs.o ABSOLUTE
    _printf_percent                          0x00000000   Number         0  stubs.o ABSOLUTE
    _printf_pre_padding                      0x00000000   Number         0  stubs.o ABSOLUTE
    _printf_return_value                     0x00000000   Number         0  stubs.o ABSOLUTE
    _printf_s                                0x00000000   Number         0  stubs.o ABSOLUTE
    _printf_sizespec                         0x00000000   Number         0  stubs.o ABSOLUTE
    _printf_str                              0x00000000   Number         0  stubs.o ABSOLUTE
    _printf_truncate_signed                  0x00000000   Number         0  stubs.o ABSOLUTE
    _printf_truncate_unsigned                0x00000000   Number         0  stubs.o ABSOLUTE
    _printf_u                                0x00000000   Number         0  stubs.o ABSOLUTE
    _printf_wc                               0x00000000   Number         0  stubs.o ABSOLUTE
    _printf_wctomb                           0x00000000   Number         0  stubs.o ABSOLUTE
    _printf_widthprec                        0x00000000   Number         0  stubs.o ABSOLUTE
    _printf_x                                0x00000000   Number         0  stubs.o ABSOLUTE
    __arm_fini_                               - Undefined Weak Reference
    __cpp_initialize__aeabi_                  - Undefined Weak Reference
    __cxa_finalize                            - Undefined Weak Reference
    __decompress                              - Undefined Weak Reference
    _clock_init                               - Undefined Weak Reference
    _microlib_exit                            - Undefined Weak Reference
    __Vectors_Size                           0x000000ec   Number         0  startup_stm32f10x_md.o ABSOLUTE
    factory_info                             0x08002400   Data          28  factory_info.o(.ARM.__AT_0x08002400)
    __Vectors                                0x08002800   Data           4  startup_stm32f10x_md.o(RESET)
    __Vectors_End                            0x080028ec   Data           0  startup_stm32f10x_md.o(RESET)
    __main                                   0x080028ed   Thumb Code     0  entry.o(.ARM.Collect$$$$00000000)
    _main_stk                                0x080028ed   Thumb Code     0  entry2.o(.ARM.Collect$$$$00000001)
    _main_scatterload                        0x080028f1   Thumb Code     0  entry5.o(.ARM.Collect$$$$00000004)
    __main_after_scatterload                 0x080028f5   Thumb Code     0  entry5.o(.ARM.Collect$$$$00000004)
    _main_clock                              0x080028f5   Thumb Code     0  entry7b.o(.ARM.Collect$$$$00000008)
    _main_cpp_init                           0x080028f5   Thumb Code     0  entry8b.o(.ARM.Collect$$$$0000000A)
    _main_init                               0x080028f5   Thumb Code     0  entry9a.o(.ARM.Collect$$$$0000000B)
    __rt_lib_shutdown_fini                   0x080028fd   Thumb Code     0  entry12b.o(.ARM.Collect$$$$0000000E)
    __rt_final_cpp                           0x08002901   Thumb Code     0  entry10a.o(.ARM.Collect$$$$0000000F)
    __rt_final_exit                          0x08002901   Thumb Code     0  entry11a.o(.ARM.Collect$$$$00000011)
    Reset_Handler                            0x08002905   Thumb Code     8  startup_stm32f10x_md.o(.text)
    ADC1_2_IRQHandler                        0x0800291f   Thumb Code     0  startup_stm32f10x_md.o(.text)
    CAN1_RX1_IRQHandler                      0x0800291f   Thumb Code     0  startup_stm32f10x_md.o(.text)
    CAN1_SCE_IRQHandler                      0x0800291f   Thumb Code     0  startup_stm32f10x_md.o(.text)
    DMA1_Channel1_IRQHandler                 0x0800291f   Thumb Code     0  startup_stm32f10x_md.o(.text)
    DMA1_Channel2_IRQHandler                 0x0800291f   Thumb Code     0  startup_stm32f10x_md.o(.text)
    DMA1_Channel3_IRQHandler                 0x0800291f   Thumb Code     0  startup_stm32f10x_md.o(.text)
    DMA1_Channel4_IRQHandler                 0x0800291f   Thumb Code     0  startup_stm32f10x_md.o(.text)
    DMA1_Channel5_IRQHandler                 0x0800291f   Thumb Code     0  startup_stm32f10x_md.o(.text)
    DMA1_Channel6_IRQHandler                 0x0800291f   Thumb Code     0  startup_stm32f10x_md.o(.text)
    DMA1_Channel7_IRQHandler                 0x0800291f   Thumb Code     0  startup_stm32f10x_md.o(.text)
    EXTI0_IRQHandler                         0x0800291f   Thumb Code     0  startup_stm32f10x_md.o(.text)
    EXTI15_10_IRQHandler                     0x0800291f   Thumb Code     0  startup_stm32f10x_md.o(.text)
    EXTI1_IRQHandler                         0x0800291f   Thumb Code     0  startup_stm32f10x_md.o(.text)
    EXTI2_IRQHandler                         0x0800291f   Thumb Code     0  startup_stm32f10x_md.o(.text)
    EXTI3_IRQHandler                         0x0800291f   Thumb Code     0  startup_stm32f10x_md.o(.text)
    EXTI4_IRQHandler                         0x0800291f   Thumb Code     0  startup_stm32f10x_md.o(.text)
    EXTI9_5_IRQHandler                       0x0800291f   Thumb Code     0  startup_stm32f10x_md.o(.text)
    FLASH_IRQHandler                         0x0800291f   Thumb Code     0  startup_stm32f10x_md.o(.text)
    I2C1_ER_IRQHandler                       0x0800291f   Thumb Code     0  startup_stm32f10x_md.o(.text)
    I2C1_EV_IRQHandler                       0x0800291f   Thumb Code     0  startup_stm32f10x_md.o(.text)
    I2C2_ER_IRQHandler                       0x0800291f   Thumb Code     0  startup_stm32f10x_md.o(.text)
    I2C2_EV_IRQHandler                       0x0800291f   Thumb Code     0  startup_stm32f10x_md.o(.text)
    PVD_IRQHandler                           0x0800291f   Thumb Code     0  startup_stm32f10x_md.o(.text)
    RCC_IRQHandler                           0x0800291f   Thumb Code     0  startup_stm32f10x_md.o(.text)
    RTCAlarm_IRQHandler                      0x0800291f   Thumb Code     0  startup_stm32f10x_md.o(.text)
    RTC_IRQHandler                           0x0800291f   Thumb Code     0  startup_stm32f10x_md.o(.text)
    SPI1_IRQHandler                          0x0800291f   Thumb Code     0  startup_stm32f10x_md.o(.text)
    SPI2_IRQHandler                          0x0800291f   Thumb Code     0  startup_stm32f10x_md.o(.text)
    TAMPER_IRQHandler                        0x0800291f   Thumb Code     0  startup_stm32f10x_md.o(.text)
    TIM1_BRK_IRQHandler                      0x0800291f   Thumb Code     0  startup_stm32f10x_md.o(.text)
    TIM1_CC_IRQHandler                       0x0800291f   Thumb Code     0  startup_stm32f10x_md.o(.text)
    TIM1_TRG_COM_IRQHandler                  0x0800291f   Thumb Code     0  startup_stm32f10x_md.o(.text)
    TIM1_UP_IRQHandler                       0x0800291f   Thumb Code     0  startup_stm32f10x_md.o(.text)
    TIM2_IRQHandler                          0x0800291f   Thumb Code     0  startup_stm32f10x_md.o(.text)
    TIM3_IRQHandler                          0x0800291f   Thumb Code     0  startup_stm32f10x_md.o(.text)
    TIM4_IRQHandler                          0x0800291f   Thumb Code     0  startup_stm32f10x_md.o(.text)
    USART2_IRQHandler                        0x0800291f   Thumb Code     0  startup_stm32f10x_md.o(.text)
    USART3_IRQHandler                        0x0800291f   Thumb Code     0  startup_stm32f10x_md.o(.text)
    USBWakeUp_IRQHandler                     0x0800291f   Thumb Code     0  startup_stm32f10x_md.o(.text)
    USB_HP_CAN1_TX_IRQHandler                0x0800291f   Thumb Code     0  startup_stm32f10x_md.o(.text)
    USB_LP_CAN1_RX0_IRQHandler               0x0800291f   Thumb Code     0  startup_stm32f10x_md.o(.text)
    WWDG_IRQHandler                          0x0800291f   Thumb Code     0  startup_stm32f10x_md.o(.text)
    __aeabi_uidiv                            0x08002929   Thumb Code     0  uidiv.o(.text)
    __aeabi_uidivmod                         0x08002929   Thumb Code    44  uidiv.o(.text)
    __aeabi_uldivmod                         0x08002955   Thumb Code    98  uldiv.o(.text)
    __I$use$fp                               0x080029b7   Thumb Code     0  iusefp.o(.text)
    __aeabi_dadd                             0x080029b7   Thumb Code   322  dadd.o(.text)
    __aeabi_dsub                             0x08002af9   Thumb Code     6  dadd.o(.text)
    __aeabi_drsub                            0x08002aff   Thumb Code     6  dadd.o(.text)
    __aeabi_dmul                             0x08002b05   Thumb Code   228  dmul.o(.text)
    __aeabi_ddiv                             0x08002be9   Thumb Code   222  ddiv.o(.text)
    __aeabi_d2ulz                            0x08002cc7   Thumb Code    48  dfixul.o(.text)
    __aeabi_cdrcmple                         0x08002cf9   Thumb Code    48  cdrcmple.o(.text)
    __scatterload                            0x08002d29   Thumb Code    28  init.o(.text)
    __scatterload_rt2                        0x08002d29   Thumb Code     0  init.o(.text)
    __aeabi_llsl                             0x08002d4d   Thumb Code    30  llshl.o(.text)
    _ll_shift_l                              0x08002d4d   Thumb Code     0  llshl.o(.text)
    __aeabi_llsr                             0x08002d6b   Thumb Code    32  llushr.o(.text)
    _ll_ushift_r                             0x08002d6b   Thumb Code     0  llushr.o(.text)
    __aeabi_lasr                             0x08002d8b   Thumb Code    36  llsshr.o(.text)
    _ll_sshift_r                             0x08002d8b   Thumb Code     0  llsshr.o(.text)
    _double_round                            0x08002daf   Thumb Code    30  depilogue.o(.text)
    _double_epilogue                         0x08002dcd   Thumb Code   156  depilogue.o(.text)
    BusFault_Handler                         0x08002e69   Thumb Code     2  stm32f10x_it.o(i.BusFault_Handler)
    DebugMon_Handler                         0x08002e6b   Thumb Code     2  stm32f10x_it.o(i.DebugMon_Handler)
    FLASH_ErasePage                          0x08002e6d   Thumb Code    56  stm32f10x_flash.o(i.FLASH_ErasePage)
    FLASH_GetBank1Status                     0x08002ea9   Thumb Code    34  stm32f10x_flash.o(i.FLASH_GetBank1Status)
    FLASH_Lock                               0x08002ed1   Thumb Code    12  stm32f10x_flash.o(i.FLASH_Lock)
    FLASH_Unlock                             0x08002ee1   Thumb Code    12  stm32f10x_flash.o(i.FLASH_Unlock)
    FLASH_WaitForLastOperation               0x08002ef9   Thumb Code    32  stm32f10x_flash.o(i.FLASH_WaitForLastOperation)
    GPIO_Init                                0x08002f19   Thumb Code   166  stm32f10x_gpio.o(i.GPIO_Init)
    HardFault_Handler                        0x08002fbf   Thumb Code     2  stm32f10x_it.o(i.HardFault_Handler)
    MemManage_Handler                        0x08002fc1   Thumb Code     2  stm32f10x_it.o(i.MemManage_Handler)
    NMI_Handler                              0x08002fc3   Thumb Code     2  stm32f10x_it.o(i.NMI_Handler)
    NVIC_Init                                0x08002fc5   Thumb Code    96  misc.o(i.NVIC_Init)
    NVIC_PriorityGroupConfig                 0x08003029   Thumb Code    10  misc.o(i.NVIC_PriorityGroupConfig)
    PendSV_Handler                           0x0800305d   Thumb Code     2  stm32f10x_it.o(i.PendSV_Handler)
    RCC_APB1PeriphClockCmd                   0x08003061   Thumb Code    22  stm32f10x_rcc.o(i.RCC_APB1PeriphClockCmd)
    RCC_APB2PeriphClockCmd                   0x0800307d   Thumb Code    22  stm32f10x_rcc.o(i.RCC_APB2PeriphClockCmd)
    RCC_GetClocksFreq                        0x08003099   Thumb Code   154  stm32f10x_rcc.o(i.RCC_GetClocksFreq)
    SVC_Handler                              0x08003145   Thumb Code     2  stm32f10x_it.o(i.SVC_Handler)
    SysTick_Handler                          0x080031fd   Thumb Code     2  bsp_cpu.o(i.SysTick_Handler)
    SystemInit                               0x08003201   Thumb Code    62  system_stm32f10x.o(i.SystemInit)
    USART1_IRQHandler                        0x08003255   Thumb Code   152  bsp_uart.o(i.USART1_IRQHandler)
    USART_ClearFlag                          0x080032f1   Thumb Code     8  stm32f10x_usart.o(i.USART_ClearFlag)
    USART_Cmd                                0x080032f9   Thumb Code    24  stm32f10x_usart.o(i.USART_Cmd)
    USART_GetITStatus                        0x08003311   Thumb Code    64  stm32f10x_usart.o(i.USART_GetITStatus)
    USART_ITConfig                           0x08003351   Thumb Code    54  stm32f10x_usart.o(i.USART_ITConfig)
    USART_Init                               0x08003389   Thumb Code   182  stm32f10x_usart.o(i.USART_Init)
    USART_ReceiveData                        0x08003445   Thumb Code     8  stm32f10x_usart.o(i.USART_ReceiveData)
    USART_SendData                           0x0800344d   Thumb Code     8  stm32f10x_usart.o(i.USART_SendData)
    UsageFault_Handler                       0x08003455   Thumb Code     2  stm32f10x_it.o(i.UsageFault_Handler)
    __0printf                                0x08003459   Thumb Code    22  printfa.o(i.__0printf)
    __1printf                                0x08003459   Thumb Code     0  printfa.o(i.__0printf)
    __2printf                                0x08003459   Thumb Code     0  printfa.o(i.__0printf)
    __c89printf                              0x08003459   Thumb Code     0  printfa.o(i.__0printf)
    printf                                   0x08003459   Thumb Code     0  printfa.o(i.__0printf)
    __scatterload_copy                       0x08003479   Thumb Code    14  handlers.o(i.__scatterload_copy)
    __scatterload_null                       0x08003487   Thumb Code     2  handlers.o(i.__scatterload_null)
    __scatterload_zeroinit                   0x08003489   Thumb Code    14  handlers.o(i.__scatterload_zeroinit)
    bsp_init                                 0x08003d23   Thumb Code    18  bsp.o(i.bsp_init)
    bsp_periph_clock_enable                  0x08003d35   Thumb Code    24  bsp.o(i.bsp_periph_clock_enable)
    cpu_enter_critical                       0x08003d4d   Thumb Code    24  bsp_cpu.o(i.cpu_enter_critical)
    cpu_exit_critical                        0x08003d69   Thumb Code    24  bsp_cpu.o(i.cpu_exit_critical)
    cpu_init                                 0x08003d85   Thumb Code    64  bsp_cpu.o(i.cpu_init)
    cpu_reset                                0x08003dcd   Thumb Code    26  bsp_cpu.o(i.cpu_reset)
    factory_info_handle                      0x08003df1   Thumb Code   104  factory_info.o(i.factory_info_handle)
    fputc                                    0x08003ead   Thumb Code    16  bsp_uart.o(i.fputc)
    main                                     0x08003ebd   Thumb Code    14  main.o(i.main)
    ms_delay                                 0x08003ecb   Thumb Code    24  bsp_cpu.o(i.ms_delay)
    ringbuffer_data_size                     0x08003f65   Thumb Code    58  ringbuffer.o(i.ringbuffer_data_size)
    ringbuffer_get_char                      0x08003f9f   Thumb Code    72  ringbuffer.o(i.ringbuffer_get_char)
    ringbuffer_init                          0x08003fe7   Thumb Code    38  ringbuffer.o(i.ringbuffer_init)
    ringbuffer_put_char                      0x0800400d   Thumb Code    70  ringbuffer.o(i.ringbuffer_put_char)
    ringbuffer_status                        0x08004065   Thumb Code    32  ringbuffer.o(i.ringbuffer_status)
    uart_config                              0x08004085   Thumb Code    46  bsp_uart.o(i.uart_config)
    uart_get_char                            0x08004141   Thumb Code    46  bsp_uart.o(i.uart_get_char)
    uart_init                                0x08004175   Thumb Code    44  bsp_uart.o(i.uart_init)
    uart_put_char                            0x080041a9   Thumb Code    12  bsp_uart.o(i.uart_put_char)
    uart_put_string                          0x080041b5   Thumb Code    60  bsp_uart.o(i.uart_put_string)
    us_delay                                 0x080041f5   Thumb Code    68  bsp_cpu.o(i.us_delay)
    Region$$Table$$Base                      0x080042c4   Number         0  anon$$obj.o(Region$$Table)
    Region$$Table$$Limit                     0x080042e4   Number         0  anon$$obj.o(Region$$Table)
    test                                     0x0800f000   Data           1  factory_info.o(.ARM.__AT_0x0800F000)
    cmds                                     0x2000001c   Data          24  factory_info.o(.data)
    __stdout                                 0x20000034   Data           4  stdout.o(.data)
    uart1_tx_rb                              0x200000b8   Data          12  bsp_uart.o(.bss)
    uart1_rx_rb                              0x200000c4   Data          12  bsp_uart.o(.bss)
    uart1_tx_buf                             0x200000d0   Data         256  bsp_uart.o(.bss)
    uart1_rx_buf                             0x200001d0   Data        2048  bsp_uart.o(.bss)
    __initial_sp                             0x200019d0   Data           0  startup_stm32f10x_md.o(STACK)



==============================================================================

Memory Map of the image

  Image Entry point : 0x080028ed

  Load Region LR_IROM1 (Base: 0x08002800, Size: 0x0000c83c, Max: 0x0000d800, ABSOLUTE)

    Execution Region ER_IROM1 (Exec base: 0x08002800, Load base: 0x08002800, Size: 0x0000c804, Max: 0x0000d800, ABSOLUTE)

    Exec Addr    Load Addr    Size         Type   Attr      Idx    E Section Name        Object

    0x08002800   0x08002800   0x000000ec   Data   RO          193    RESET               startup_stm32f10x_md.o
    0x080028ec   0x080028ec   0x00000000   Code   RO         2081  * .ARM.Collect$$$$00000000  mc_w.l(entry.o)
    0x080028ec   0x080028ec   0x00000004   Code   RO         2345    .ARM.Collect$$$$00000001  mc_w.l(entry2.o)
    0x080028f0   0x080028f0   0x00000004   Code   RO         2348    .ARM.Collect$$$$00000004  mc_w.l(entry5.o)
    0x080028f4   0x080028f4   0x00000000   Code   RO         2350    .ARM.Collect$$$$00000008  mc_w.l(entry7b.o)
    0x080028f4   0x080028f4   0x00000000   Code   RO         2352    .ARM.Collect$$$$0000000A  mc_w.l(entry8b.o)
    0x080028f4   0x080028f4   0x00000008   Code   RO         2353    .ARM.Collect$$$$0000000B  mc_w.l(entry9a.o)
    0x080028fc   0x080028fc   0x00000004   Code   RO         2360    .ARM.Collect$$$$0000000E  mc_w.l(entry12b.o)
    0x08002900   0x08002900   0x00000000   Code   RO         2355    .ARM.Collect$$$$0000000F  mc_w.l(entry10a.o)
    0x08002900   0x08002900   0x00000000   Code   RO         2357    .ARM.Collect$$$$00000011  mc_w.l(entry11a.o)
    0x08002900   0x08002900   0x00000004   Code   RO         2346    .ARM.Collect$$$$00002712  mc_w.l(entry2.o)
    0x08002904   0x08002904   0x00000024   Code   RO          194    .text               startup_stm32f10x_md.o
    0x08002928   0x08002928   0x0000002c   Code   RO         2362    .text               mc_w.l(uidiv.o)
    0x08002954   0x08002954   0x00000062   Code   RO         2364    .text               mc_w.l(uldiv.o)
    0x080029b6   0x080029b6   0x00000000   Code   RO         2366    .text               mc_w.l(iusefp.o)
    0x080029b6   0x080029b6   0x0000014e   Code   RO         2367    .text               mf_w.l(dadd.o)
    0x08002b04   0x08002b04   0x000000e4   Code   RO         2369    .text               mf_w.l(dmul.o)
    0x08002be8   0x08002be8   0x000000de   Code   RO         2371    .text               mf_w.l(ddiv.o)
    0x08002cc6   0x08002cc6   0x00000030   Code   RO         2373    .text               mf_w.l(dfixul.o)
    0x08002cf6   0x08002cf6   0x00000002   PAD
    0x08002cf8   0x08002cf8   0x00000030   Code   RO         2375    .text               mf_w.l(cdrcmple.o)
    0x08002d28   0x08002d28   0x00000024   Code   RO         2377    .text               mc_w.l(init.o)
    0x08002d4c   0x08002d4c   0x0000001e   Code   RO         2379    .text               mc_w.l(llshl.o)
    0x08002d6a   0x08002d6a   0x00000020   Code   RO         2381    .text               mc_w.l(llushr.o)
    0x08002d8a   0x08002d8a   0x00000024   Code   RO         2383    .text               mc_w.l(llsshr.o)
    0x08002dae   0x08002dae   0x000000ba   Code   RO         2385    .text               mf_w.l(depilogue.o)
    0x08002e68   0x08002e68   0x00000002   Code   RO          130    i.BusFault_Handler  stm32f10x_it.o
    0x08002e6a   0x08002e6a   0x00000002   Code   RO          131    i.DebugMon_Handler  stm32f10x_it.o
    0x08002e6c   0x08002e6c   0x0000003c   Code   RO          335    i.FLASH_ErasePage   stm32f10x_flash.o
    0x08002ea8   0x08002ea8   0x00000028   Code   RO          336    i.FLASH_GetBank1Status  stm32f10x_flash.o
    0x08002ed0   0x08002ed0   0x00000010   Code   RO          345    i.FLASH_Lock        stm32f10x_flash.o
    0x08002ee0   0x08002ee0   0x00000018   Code   RO          353    i.FLASH_Unlock      stm32f10x_flash.o
    0x08002ef8   0x08002ef8   0x00000020   Code   RO          357    i.FLASH_WaitForLastOperation  stm32f10x_flash.o
    0x08002f18   0x08002f18   0x000000a6   Code   RO          510    i.GPIO_Init         stm32f10x_gpio.o
    0x08002fbe   0x08002fbe   0x00000002   Code   RO          132    i.HardFault_Handler  stm32f10x_it.o
    0x08002fc0   0x08002fc0   0x00000002   Code   RO          133    i.MemManage_Handler  stm32f10x_it.o
    0x08002fc2   0x08002fc2   0x00000002   Code   RO          134    i.NMI_Handler       stm32f10x_it.o
    0x08002fc4   0x08002fc4   0x00000064   Code   RO          198    i.NVIC_Init         misc.o
    0x08003028   0x08003028   0x00000014   Code   RO          199    i.NVIC_PriorityGroupConfig  misc.o
    0x0800303c   0x0800303c   0x00000020   Code   RO         1897    i.NVIC_SetPriority  bsp_cpu.o
    0x0800305c   0x0800305c   0x00000002   Code   RO          135    i.PendSV_Handler    stm32f10x_it.o
    0x0800305e   0x0800305e   0x00000002   PAD
    0x08003060   0x08003060   0x0000001c   Code   RO          662    i.RCC_APB1PeriphClockCmd  stm32f10x_rcc.o
    0x0800307c   0x0800307c   0x0000001c   Code   RO          664    i.RCC_APB2PeriphClockCmd  stm32f10x_rcc.o
    0x08003098   0x08003098   0x000000ac   Code   RO          672    i.RCC_GetClocksFreq  stm32f10x_rcc.o
    0x08003144   0x08003144   0x00000002   Code   RO          136    i.SVC_Handler       stm32f10x_it.o
    0x08003146   0x08003146   0x00000004   Code   RO           17    i.SetSysClock       system_stm32f10x.o
    0x0800314a   0x0800314a   0x00000002   PAD
    0x0800314c   0x0800314c   0x000000b0   Code   RO           18    i.SetSysClockTo72   system_stm32f10x.o
    0x080031fc   0x080031fc   0x00000002   Code   RO         1898    i.SysTick_Handler   bsp_cpu.o
    0x080031fe   0x080031fe   0x00000002   PAD
    0x08003200   0x08003200   0x00000054   Code   RO           20    i.SystemInit        system_stm32f10x.o
    0x08003254   0x08003254   0x0000009c   Code   RO         1956    i.USART1_IRQHandler  bsp_uart.o
    0x080032f0   0x080032f0   0x00000008   Code   RO         1408    i.USART_ClearFlag   stm32f10x_usart.o
    0x080032f8   0x080032f8   0x00000018   Code   RO         1412    i.USART_Cmd         stm32f10x_usart.o
    0x08003310   0x08003310   0x00000040   Code   RO         1416    i.USART_GetITStatus  stm32f10x_usart.o
    0x08003350   0x08003350   0x00000036   Code   RO         1418    i.USART_ITConfig    stm32f10x_usart.o
    0x08003386   0x08003386   0x00000002   PAD
    0x08003388   0x08003388   0x000000bc   Code   RO         1419    i.USART_Init        stm32f10x_usart.o
    0x08003444   0x08003444   0x00000008   Code   RO         1426    i.USART_ReceiveData  stm32f10x_usart.o
    0x0800344c   0x0800344c   0x00000008   Code   RO         1429    i.USART_SendData    stm32f10x_usart.o
    0x08003454   0x08003454   0x00000002   Code   RO          137    i.UsageFault_Handler  stm32f10x_it.o
    0x08003456   0x08003456   0x00000002   PAD
    0x08003458   0x08003458   0x00000020   Code   RO         2317    i.__0printf         mc_w.l(printfa.o)
    0x08003478   0x08003478   0x0000000e   Code   RO         2389    i.__scatterload_copy  mc_w.l(handlers.o)
    0x08003486   0x08003486   0x00000002   Code   RO         2390    i.__scatterload_null  mc_w.l(handlers.o)
    0x08003488   0x08003488   0x0000000e   Code   RO         2391    i.__scatterload_zeroinit  mc_w.l(handlers.o)
    0x08003496   0x08003496   0x00000002   PAD
    0x08003498   0x08003498   0x00000184   Code   RO         2324    i._fp_digits        mc_w.l(printfa.o)
    0x0800361c   0x0800361c   0x000006b4   Code   RO         2325    i._printf_core      mc_w.l(printfa.o)
    0x08003cd0   0x08003cd0   0x00000024   Code   RO         2326    i._printf_post_padding  mc_w.l(printfa.o)
    0x08003cf4   0x08003cf4   0x0000002e   Code   RO         2327    i._printf_pre_padding  mc_w.l(printfa.o)
    0x08003d22   0x08003d22   0x00000012   Code   RO         1860    i.bsp_init          bsp.o
    0x08003d34   0x08003d34   0x00000018   Code   RO         1861    i.bsp_periph_clock_enable  bsp.o
    0x08003d4c   0x08003d4c   0x0000001c   Code   RO         1899    i.cpu_enter_critical  bsp_cpu.o
    0x08003d68   0x08003d68   0x0000001c   Code   RO         1900    i.cpu_exit_critical  bsp_cpu.o
    0x08003d84   0x08003d84   0x00000048   Code   RO         1901    i.cpu_init          bsp_cpu.o
    0x08003dcc   0x08003dcc   0x00000024   Code   RO         1902    i.cpu_reset         bsp_cpu.o
    0x08003df0   0x08003df0   0x000000bc   Code   RO         2053    i.factory_info_handle  factory_info.o
    0x08003eac   0x08003eac   0x00000010   Code   RO         1957    i.fputc             bsp_uart.o
    0x08003ebc   0x08003ebc   0x0000000e   Code   RO         2038    i.main              main.o
    0x08003eca   0x08003eca   0x00000018   Code   RO         1903    i.ms_delay          bsp_cpu.o
    0x08003ee2   0x08003ee2   0x00000024   Code   RO         2054    i.receive_byte      factory_info.o
    0x08003f06   0x08003f06   0x00000002   PAD
    0x08003f08   0x08003f08   0x0000005c   Code   RO         2055    i.receive_cmd_parse  factory_info.o
    0x08003f64   0x08003f64   0x0000003a   Code   RO         1810    i.ringbuffer_data_size  ringbuffer.o
    0x08003f9e   0x08003f9e   0x00000048   Code   RO         1811    i.ringbuffer_get_char  ringbuffer.o
    0x08003fe6   0x08003fe6   0x00000026   Code   RO         1812    i.ringbuffer_init   ringbuffer.o
    0x0800400c   0x0800400c   0x00000046   Code   RO         1813    i.ringbuffer_put_char  ringbuffer.o
    0x08004052   0x08004052   0x00000012   Code   RO         1814    i.ringbuffer_space_size  ringbuffer.o
    0x08004064   0x08004064   0x00000020   Code   RO         1815    i.ringbuffer_status  ringbuffer.o
    0x08004084   0x08004084   0x00000034   Code   RO         1958    i.uart_config       bsp_uart.o
    0x080040b8   0x080040b8   0x00000032   Code   RO         1959    i.uart_config_gpio  bsp_uart.o
    0x080040ea   0x080040ea   0x00000014   Code   RO         1960    i.uart_config_nvic  bsp_uart.o
    0x080040fe   0x080040fe   0x00000002   PAD
    0x08004100   0x08004100   0x00000040   Code   RO         1961    i.uart_config_param  bsp_uart.o
    0x08004140   0x08004140   0x00000034   Code   RO         1962    i.uart_get_char     bsp_uart.o
    0x08004174   0x08004174   0x00000034   Code   RO         1963    i.uart_init         bsp_uart.o
    0x080041a8   0x080041a8   0x0000000c   Code   RO         1965    i.uart_put_char     bsp_uart.o
    0x080041b4   0x080041b4   0x00000040   Code   RO         1966    i.uart_put_string   bsp_uart.o
    0x080041f4   0x080041f4   0x00000044   Code   RO         1904    i.us_delay          bsp_cpu.o
    0x08004238   0x08004238   0x00000028   Data   RO         1969    .constdata          bsp_uart.o
    0x08004260   0x08004260   0x00000064   Data   RO         2058    .conststring        factory_info.o
    0x080042c4   0x080042c4   0x00000020   Data   RO         2387    Region$$Table       anon$$obj.o
    0x080042e4   0x080042e4   0x0000ad1c   PAD
    0x0800f000   0x0800f000   0x00000001   Data   RO         2057    .ARM.__AT_0x0800F000  factory_info.o


    Execution Region RW_IRAM1 (Exec base: 0x20000000, Load base: 0x0800f004, Size: 0x000019d0, Max: 0x00005000, ABSOLUTE)

    Exec Addr    Load Addr    Size         Type   Attr      Idx    E Section Name        Object

    0x20000000   0x0800f004   0x00000014   Data   RW          692    .data               stm32f10x_rcc.o
    0x20000014   0x0800f018   0x00000008   Data   RW         1905    .data               bsp_cpu.o
    0x2000001c   0x0800f020   0x00000018   Data   RW         2059    .data               factory_info.o
    0x20000034   0x0800f038   0x00000004   Data   RW         2361    .data               mc_w.l(stdout.o)
    0x20000038        -       0x00000998   Zero   RW         1968    .bss                bsp_uart.o
    0x200009d0        -       0x00001000   Zero   RW          191    STACK               startup_stm32f10x_md.o



  Load Region LR$$.ARM.__AT_0x08002400 (Base: 0x08002400, Size: 0x0000001c, Max: 0x0000001c, ABSOLUTE)

    Execution Region ER$$.ARM.__AT_0x08002400 (Exec base: 0x08002400, Load base: 0x08002400, Size: 0x0000001c, Max: 0x0000001c, ABSOLUTE, UNINIT)

    Exec Addr    Load Addr    Size         Type   Attr      Idx    E Section Name        Object

    0x08002400   0x08002400   0x0000001c   Data   RO         2056    .ARM.__AT_0x08002400  factory_info.o


==============================================================================

Image component sizes


      Code (inc. data)   RO Data    RW Data    ZI Data      Debug   Object Name

        42          0          0          0          0       3513   bsp.o
       290         26          0          8          0      19851   bsp_cpu.o
       538         34         40          0       2456      14267   bsp_uart.o
         0          0          0          0          0       4564   core_cm3.o
       316         88        129         24          0       2603   factory_info.o
        14          0          0          0          0       1079   main.o
       120         14          0          0          0       1551   misc.o
       288          0          0          0          0       4725   ringbuffer.o
        36          8        236          0       4096        812   startup_stm32f10x_md.o
       172         26          0          0          0       2818   stm32f10x_flash.o
       166          0          0          0          0       2008   stm32f10x_gpio.o
        16          0          0          0          0       3532   stm32f10x_it.o
       228         30          0         20          0       4578   stm32f10x_rcc.o
       354          6          0          0          0       6325   stm32f10x_usart.o
       264         32          0          0          0     234829   system_stm32f10x.o

    ----------------------------------------------------------------------
      2858        264      44756         52       6552     307055   Object Totals
         0          0         32          0          0          0   (incl. Generated)
        14          0      44319          0          0          0   (incl. Padding)

    ----------------------------------------------------------------------

      Code (inc. data)   RO Data    RW Data    ZI Data      Debug   Library Member Name

         0          0          0          0          0          0   entry.o
         0          0          0          0          0          0   entry10a.o
         0          0          0          0          0          0   entry11a.o
         4          0          0          0          0          0   entry12b.o
         8          4          0          0          0          0   entry2.o
         4          0          0          0          0          0   entry5.o
         0          0          0          0          0          0   entry7b.o
         0          0          0          0          0          0   entry8b.o
         8          4          0          0          0          0   entry9a.o
        30          0          0          0          0          0   handlers.o
        36          8          0          0          0         68   init.o
         0          0          0          0          0          0   iusefp.o
        30          0          0          0          0         68   llshl.o
        36          0          0          0          0         68   llsshr.o
        32          0          0          0          0         68   llushr.o
      2218         90          0          0          0        464   printfa.o
         0          0          0          4          0          0   stdout.o
        44          0          0          0          0         80   uidiv.o
        98          0          0          0          0         92   uldiv.o
        48          0          0          0          0         68   cdrcmple.o
       334          0          0          0          0        148   dadd.o
       222          0          0          0          0        100   ddiv.o
       186          0          0          0          0        176   depilogue.o
        48          0          0          0          0         68   dfixul.o
       228          0          0          0          0         96   dmul.o

    ----------------------------------------------------------------------
      3618        106          0          4          0       1564   Library Totals
         4          0          0          0          0          0   (incl. Padding)

    ----------------------------------------------------------------------

      Code (inc. data)   RO Data    RW Data    ZI Data      Debug   Library Name

      2548        106          0          4          0        908   mc_w.l
      1066          0          0          0          0        656   mf_w.l

    ----------------------------------------------------------------------
      3618        106          0          4          0       1564   Library Totals

    ----------------------------------------------------------------------

==============================================================================


      Code (inc. data)   RO Data    RW Data    ZI Data      Debug   

      6476        370      44756         56       6552     305131   Grand Totals
      6476        370      44756         56       6552     305131   ELF Image Totals
      6476        370      44756         56          0          0   ROM Totals

==============================================================================

    Total RO  Size (Code + RO Data)                51232 (  50.03kB)
    Total RW  Size (RW Data + ZI Data)              6608 (   6.45kB)
    Total ROM Size (Code + RO Data + RW Data)      51288 (  50.09kB)

==============================================================================

