Component: ARM Compiler 5.06 update 7 (build 960) Tool: armlink [4d3601]

==============================================================================

Section Cross References

    system_stm32f10x.o(i.SetSysClock) refers to system_stm32f10x.o(i.SetSysClockTo72) for SetSysClockTo72
    system_stm32f10x.o(i.SystemCoreClockUpdate) refers to system_stm32f10x.o(.data) for .data
    system_stm32f10x.o(i.SystemInit) refers to system_stm32f10x.o(i.SetSysClock) for SetSysClock
    startup_stm32f10x_md.o(RESET) refers to startup_stm32f10x_md.o(STACK) for __initial_sp
    startup_stm32f10x_md.o(RESET) refers to startup_stm32f10x_md.o(.text) for Reset_Handler
    startup_stm32f10x_md.o(RESET) refers to stm32f10x_it.o(i.NMI_Handler) for NMI_Handler
    startup_stm32f10x_md.o(RESET) refers to stm32f10x_it.o(i.HardFault_Handler) for HardFault_Handler
    startup_stm32f10x_md.o(RESET) refers to stm32f10x_it.o(i.MemManage_Handler) for MemManage_Handler
    startup_stm32f10x_md.o(RESET) refers to stm32f10x_it.o(i.BusFault_Handler) for BusFault_Handler
    startup_stm32f10x_md.o(RESET) refers to stm32f10x_it.o(i.UsageFault_Handler) for UsageFault_Handler
    startup_stm32f10x_md.o(RESET) refers to stm32f10x_it.o(i.SVC_Handler) for SVC_Handler
    startup_stm32f10x_md.o(RESET) refers to stm32f10x_it.o(i.DebugMon_Handler) for DebugMon_Handler
    startup_stm32f10x_md.o(RESET) refers to stm32f10x_it.o(i.PendSV_Handler) for PendSV_Handler
    startup_stm32f10x_md.o(RESET) refers to bsp_cpu.o(i.SysTick_Handler) for SysTick_Handler
    startup_stm32f10x_md.o(RESET) refers to bsp_uart.o(i.USART1_IRQHandler) for USART1_IRQHandler
    startup_stm32f10x_md.o(RESET) refers to bsp_uart.o(i.USART2_IRQHandler) for USART2_IRQHandler
    startup_stm32f10x_md.o(RESET) refers to bsp_uart.o(i.USART3_IRQHandler) for USART3_IRQHandler
    startup_stm32f10x_md.o(.text) refers to system_stm32f10x.o(i.SystemInit) for SystemInit
==============================================================================

Removing Unused input sections from the image.

    Removing core_cm3.o(.emb_text), (32 bytes).
    Removing system_stm32f10x.o(i.SystemCoreClockUpdate), (124 bytes).
    Removing system_stm32f10x.o(.data), (20 bytes).
    Removing startup_stm32f10x_md.o(HEAP), (8192 bytes).
    Removing misc.o(i.NVIC_SetVectorTable), (20 bytes).
    Removing misc.o(i.NVIC_SystemLPConfig), (28 bytes).
    Removing misc.o(i.SysTick_CLKSourceConfig), (28 bytes).
    Removing stm32f10x_dbgmcu.o(i.DBGMCU_Config), (28 bytes).
    Removing stm32f10x_dbgmcu.o(i.DBGMCU_GetDEVID), (16 bytes).
    Removing stm32f10x_dbgmcu.o(i.DBGMCU_GetREVID), (12 bytes).
    Removing stm32f10x_dma.o(i.DMA_ClearFlag), (24 bytes).
    Removing stm32f10x_dma.o(i.DMA_ClearITPendingBit), (24 bytes).
    Removing stm32f10x_dma.o(i.DMA_Cmd), (26 bytes).
    Removing stm32f10x_dma.o(i.DMA_DeInit), (248 bytes).
    Removing stm32f10x_dma.o(i.DMA_GetCurrDataCounter), (6 bytes).
    Removing stm32f10x_dma.o(i.DMA_GetFlagStatus), (36 bytes).
    Removing stm32f10x_dma.o(i.DMA_GetITStatus), (36 bytes).
    Removing stm32f10x_dma.o(i.DMA_ITConfig), (20 bytes).
==============================================================================

Image Symbol Table

    Local Symbols

    Symbol Name                              Value     Ov Type        Size  Object(Section)

    ../clib/microlib/division.c              0x00000000   Number         0  uldiv.o ABSOLUTE
    ../clib/microlib/division.c              0x00000000   Number         0  uidiv.o ABSOLUTE
    ../clib/microlib/init/entry.s            0x00000000   Number         0  entry7a.o ABSOLUTE
    ../clib/microlib/init/entry.s            0x00000000   Number         0  entry8a.o ABSOLUTE
    ../clib/microlib/init/entry.s            0x00000000   Number         0  entry7b.o ABSOLUTE
    ../clib/microlib/init/entry.s            0x00000000   Number         0  entry11a.o ABSOLUTE
    ../clib/microlib/init/entry.s            0x00000000   Number         0  entry5.o ABSOLUTE
    ../clib/microlib/init/entry.s            0x00000000   Number         0  entry12b.o ABSOLUTE
    ../clib/microlib/init/entry.s            0x00000000   Number         0  entry8b.o ABSOLUTE
    ../clib/microlib/init/entry.s            0x00000000   Number         0  entry2.o ABSOLUTE
    ../clib/microlib/init/entry.s            0x00000000   Number         0  entry12a.o ABSOLUTE
    ../clib/microlib/init/entry.s            0x00000000   Number         0  entry.o ABSOLUTE
    ../clib/microlib/init/entry.s            0x00000000   Number         0  entry11b.o ABSOLUTE
    ../clib/microlib/init/entry.s            0x00000000   Number         0  entry10b.o ABSOLUTE
    ../clib/microlib/init/entry.s            0x00000000   Number         0  entry10a.o ABSOLUTE
    ../clib/microlib/init/entry.s            0x00000000   Number         0  entry9b.o ABSOLUTE
    ../clib/microlib/init/entry.s            0x00000000   Number         0  entry9a.o ABSOLUTE
    ../clib/microlib/longlong.c              0x00000000   Number         0  llsshr.o ABSOLUTE
    ../clib/microlib/longlong.c              0x00000000   Number         0  llushr.o ABSOLUTE
    ../clib/microlib/longlong.c              0x00000000   Number         0  llshl.o ABSOLUTE
    ../clib/microlib/printf/printf.c         0x00000000   Number         0  printf1.o ABSOLUTE
    ../clib/microlib/printf/printf.c         0x00000000   Number         0  printf3.o ABSOLUTE
    ../clib/microlib/printf/printf.c         0x00000000   Number         0  printf0.o ABSOLUTE
    ../clib/microlib/printf/printf.c         0x00000000   Number         0  printfb.o ABSOLUTE
    ../clib/microlib/printf/printf.c         0x00000000   Number         0  printfa.o ABSOLUTE
    ../clib/microlib/printf/printf.c         0x00000000   Number         0  printf8.o ABSOLUTE
    ../clib/microlib/printf/printf.c         0x00000000   Number         0  printf7.o ABSOLUTE
    ../clib/microlib/printf/printf.c         0x00000000   Number         0  printf6.o ABSOLUTE
    ../clib/microlib/printf/printf.c         0x00000000   Number         0  printf5.o ABSOLUTE
    ../clib/microlib/printf/printf.c         0x00000000   Number         0  printf4.o ABSOLUTE
    ../clib/microlib/printf/printf.c         0x00000000   Number         0  printf2.o ABSOLUTE
    ../clib/microlib/stdio/streams.c         0x00000000   Number         0  stdout.o ABSOLUTE
    ../clib/microlib/stubs.s                 0x00000000   Number         0  iusefp.o ABSOLUTE
    ../fplib/microlib/fpadd.c                0x00000000   Number         0  dadd.o ABSOLUTE
    ../fplib/microlib/fpdiv.c                0x00000000   Number         0  ddiv.o ABSOLUTE
    ../fplib/microlib/fpepilogue.c           0x00000000   Number         0  depilogue.o ABSOLUTE
    ../fplib/microlib/fpfix.c                0x00000000   Number         0  dfixul.o ABSOLUTE
    ../fplib/microlib/fpmul.c                0x00000000   Number         0  dmul.o ABSOLUTE
    ..\BSP\bsp.c                             0x00000000   Number         0  bsp.o ABSOLUTE
    ..\BSP\src\bsp_cpu.c                     0x00000000   Number         0  bsp_cpu.o ABSOLUTE
    ..\BSP\src\bsp_uart.c                    0x00000000   Number         0  bsp_uart.o ABSOLUTE
    ..\Drivers\CMSIS\core_cm3.c              0x00000000   Number         0  core_cm3.o ABSOLUTE
    ..\Drivers\CMSIS\stm32f10x_it.c          0x00000000   Number         0  stm32f10x_it.o ABSOLUTE
    ..\Drivers\CMSIS\system_stm32f10x.c      0x00000000   Number         0  system_stm32f10x.o ABSOLUTE
    ..\Drivers\Lib\src\misc.c                0x00000000   Number         0  misc.o ABSOLUTE
    ..\Drivers\Lib\src\stm32f10x_adc.c       0x00000000   Number         0  stm32f10x_adc.o ABSOLUTE
    ..\Drivers\Lib\src\stm32f10x_dbgmcu.c    0x00000000   Number         0  stm32f10x_dbgmcu.o ABSOLUTE
    ..\Drivers\Lib\src\stm32f10x_dma.c       0x00000000   Number         0  stm32f10x_dma.o ABSOLUTE
    ..\Drivers\Lib\src\stm32f10x_flash.c     0x00000000   Number         0  stm32f10x_flash.o ABSOLUTE
    ..\Drivers\Lib\src\stm32f10x_gpio.c      0x00000000   Number         0  stm32f10x_gpio.o ABSOLUTE
    ..\Drivers\Lib\src\stm32f10x_iwdg.c      0x00000000   Number         0  stm32f10x_iwdg.o ABSOLUTE
    ..\Drivers\Lib\src\stm32f10x_rcc.c       0x00000000   Number         0  stm32f10x_rcc.o ABSOLUTE
    ..\Drivers\Lib\src\stm32f10x_tim.c       0x00000000   Number         0  stm32f10x_tim.o ABSOLUTE
    ..\Drivers\Lib\src\stm32f10x_usart.c     0x00000000   Number         0  stm32f10x_usart.o ABSOLUTE
    ..\Drivers\Starup\startup_stm32f10x_md.s 0x00000000   Number         0  startup_stm32f10x_md.o ABSOLUTE
    ..\Middleware\src\ringbuffer.c           0x00000000   Number         0  ringbuffer.o ABSOLUTE
    ..\User\main.c                           0x00000000   Number         0  main.o ABSOLUTE
    ..\\Drivers\\CMSIS\\core_cm3.c           0x00000000   Number         0  core_cm3.o ABSOLUTE
    cdrcmple.s                               0x00000000   Number         0  cdrcmple.o ABSOLUTE
    dc.s                                     0x00000000   Number         0  dc.o ABSOLUTE
    handlers.s                               0x00000000   Number         0  handlers.o ABSOLUTE
    init.s                                   0x00000000   Number         0  init.o ABSOLUTE
    RESET                                    0x08000000   Section      236  startup_stm32f10x_md.o(RESET)
    .ARM.Collect$$$$00000000                 0x080000ec   Section        0  entry.o(.ARM.Collect$$$$00000000)
    .ARM.Collect$$$$00000001                 0x080000ec   Section        4  entry2.o(.ARM.Collect$$$$00000001)
    .ARM.Collect$$$$00000004                 0x080000f0   Section        4  entry5.o(.ARM.Collect$$$$00000004)
    .ARM.Collect$$$$00000008                 0x080000f4   Section        0  entry7b.o(.ARM.Collect$$$$00000008)
    .ARM.Collect$$$$0000000A                 0x080000f4   Section        0  entry8b.o(.ARM.Collect$$$$0000000A)
    .ARM.Collect$$$$0000000B                 0x080000f4   Section        8  entry9a.o(.ARM.Collect$$$$0000000B)
    .ARM.Collect$$$$0000000E                 0x080000fc   Section        4  entry12b.o(.ARM.Collect$$$$0000000E)
    .ARM.Collect$$$$0000000F                 0x08000100   Section        0  entry10a.o(.ARM.Collect$$$$0000000F)
    .ARM.Collect$$$$00000011                 0x08000100   Section        0  entry11a.o(.ARM.Collect$$$$00000011)
    .ARM.Collect$$$$00002712                 0x08000100   Section        4  entry2.o(.ARM.Collect$$$$00002712)
    __lit__00000000                          0x08000100   Data           4  entry2.o(.ARM.Collect$$$$00002712)
    .text                                    0x08000104   Section       36  startup_stm32f10x_md.o(.text)
    .text                                    0x08000128   Section       36  init.o(.text)
    i.BSP_Init                               0x0800014c   Section        0  bsp.o(i.BSP_Init)
    i.BSP_PeriphClockEnable                  0x0800015e   Section        0  bsp.o(i.BSP_PeriphClockEnable)
    i.BusFault_Handler                       0x08000176   Section        0  stm32f10x_it.o(i.BusFault_Handler)
    i.CPU_EnterCritical                      0x08000178   Section        0  bsp_cpu.o(i.CPU_EnterCritical)
    i.CPU_ExitCritical                       0x08000194   Section        0  bsp_cpu.o(i.CPU_ExitCritical)
    i.CPU_Init                               0x080001b0   Section        0  bsp_cpu.o(i.CPU_Init)
    i.DebugMon_Handler                       0x080001fc   Section        0  stm32f10x_it.o(i.DebugMon_Handler)
    i.GPIO_Init                              0x080001fe   Section        0  stm32f10x_gpio.o(i.GPIO_Init)
    i.GPIO_ReadOutputDataBit                 0x080002a4   Section        0  stm32f10x_gpio.o(i.GPIO_ReadOutputDataBit)
    i.GPIO_WriteBit                          0x080002b2   Section        0  stm32f10x_gpio.o(i.GPIO_WriteBit)
    i.HardFault_Handler                      0x080002be   Section        0  stm32f10x_it.o(i.HardFault_Handler)
    i.Led_Init                               0x080002c0   Section        0  main.o(i.Led_Init)
    i.MemManage_Handler                      0x080002fc   Section        0  stm32f10x_it.o(i.MemManage_Handler)
    i.NMI_Handler                            0x080002fe   Section        0  stm32f10x_it.o(i.NMI_Handler)
    i.NVIC_Init                              0x08000300   Section        0  misc.o(i.NVIC_Init)
    i.NVIC_PriorityGroupConfig               0x08000364   Section        0  misc.o(i.NVIC_PriorityGroupConfig)
    i.NVIC_SetPriority                       0x08000378   Section        0  bsp_cpu.o(i.NVIC_SetPriority)
    NVIC_SetPriority                         0x08000379   Thumb Code    32  bsp_cpu.o(i.NVIC_SetPriority)
    i.PendSV_Handler                         0x08000398   Section        0  stm32f10x_it.o(i.PendSV_Handler)
    i.RCC_APB1PeriphClockCmd                 0x0800039c   Section        0  stm32f10x_rcc.o(i.RCC_APB1PeriphClockCmd)
    i.RCC_APB2PeriphClockCmd                 0x080003b8   Section        0  stm32f10x_rcc.o(i.RCC_APB2PeriphClockCmd)
    i.RCC_GetClocksFreq                      0x080003d4   Section        0  stm32f10x_rcc.o(i.RCC_GetClocksFreq)
    i.Ringbuffer_DataSize                    0x08000480   Section        0  ringbuffer.o(i.Ringbuffer_DataSize)
    i.Ringbuffer_GetChar                     0x080004ba   Section        0  ringbuffer.o(i.Ringbuffer_GetChar)
    i.Ringbuffer_Init                        0x08000502   Section        0  ringbuffer.o(i.Ringbuffer_Init)
    i.Ringbuffer_PutChar                     0x08000528   Section        0  ringbuffer.o(i.Ringbuffer_PutChar)
    i.Ringbuffer_SpaceSize                   0x0800056e   Section        0  ringbuffer.o(i.Ringbuffer_SpaceSize)
    Ringbuffer_SpaceSize                     0x0800056f   Thumb Code    18  ringbuffer.o(i.Ringbuffer_SpaceSize)
    i.Ringbuffer_Status                      0x08000580   Section        0  ringbuffer.o(i.Ringbuffer_Status)
    i.SVC_Handler                            0x080005a0   Section        0  stm32f10x_it.o(i.SVC_Handler)
    i.SetSysClock                            0x080005a2   Section        0  system_stm32f10x.o(i.SetSysClock)
    SetSysClock                              0x080005a3   Thumb Code     4  system_stm32f10x.o(i.SetSysClock)
    i.SetSysClockTo72                        0x080005a8   Section        0  system_stm32f10x.o(i.SetSysClockTo72)
    SetSysClockTo72                          0x080005a9   Thumb Code   166  system_stm32f10x.o(i.SetSysClockTo72)
    i.SysTick_Handler                        0x08000658   Section        0  bsp_cpu.o(i.SysTick_Handler)
    i.SystemInit                             0x08000674   Section        0  system_stm32f10x.o(i.SystemInit)
    i.Task_100msHandler                      0x080006c4   Section        0  main.o(i.Task_100msHandler)
    i.Task_10msHandler                       0x080006d0   Section        0  main.o(i.Task_10msHandler)
    i.Task_1msHandler                        0x080006dc   Section        0  main.o(i.Task_1msHandler)
    i.Task_Init                              0x080006e0   Section        0  main.o(i.Task_Init)
    i.Task_Register                          0x0800070c   Section        0  bsp_cpu.o(i.Task_Register)
    i.Task_Scheduler                         0x08000738   Section        0  bsp_cpu.o(i.Task_Scheduler)
    Task_Scheduler                           0x08000739   Thumb Code    54  bsp_cpu.o(i.Task_Scheduler)
    i.Test_Led1Toggle                        0x08000778   Section        0  main.o(i.Test_Led1Toggle)
    i.Test_Led2Toggle                        0x0800079c   Section        0  main.o(i.Test_Led2Toggle)
    i.Test_LedBlink                          0x080007c0   Section        0  main.o(i.Test_LedBlink)
    i.Test_Timer                             0x080007dc   Section        0  main.o(i.Test_Timer)
    i.Timer_Handle                           0x080007f8   Section        0  bsp_cpu.o(i.Timer_Handle)
    Timer_Handle                             0x080007f9   Thumb Code   204  bsp_cpu.o(i.Timer_Handle)
    i.Timer_Init                             0x080008cc   Section        0  bsp_cpu.o(i.Timer_Init)
    Timer_Init                               0x080008cd   Thumb Code    46  bsp_cpu.o(i.Timer_Init)
    i.Timer_Start                            0x08000900   Section        0  bsp_cpu.o(i.Timer_Start)
    i.USART1_IRQHandler                      0x08000954   Section        0  bsp_uart.o(i.USART1_IRQHandler)
    i.USART2_IRQHandler                      0x080009fc   Section        0  bsp_uart.o(i.USART2_IRQHandler)
    i.USART3_IRQHandler                      0x08000aa4   Section        0  bsp_uart.o(i.USART3_IRQHandler)
    i.USART_ClearFlag                        0x08000b4c   Section        0  stm32f10x_usart.o(i.USART_ClearFlag)
    i.USART_Cmd                              0x08000b54   Section        0  stm32f10x_usart.o(i.USART_Cmd)
    i.USART_GetITStatus                      0x08000b6c   Section        0  stm32f10x_usart.o(i.USART_GetITStatus)
    i.USART_ITConfig                         0x08000bac   Section        0  stm32f10x_usart.o(i.USART_ITConfig)
    i.USART_Init                             0x08000be4   Section        0  stm32f10x_usart.o(i.USART_Init)
    i.USART_ReceiveData                      0x08000ca0   Section        0  stm32f10x_usart.o(i.USART_ReceiveData)
    i.USART_SendData                         0x08000ca8   Section        0  stm32f10x_usart.o(i.USART_SendData)
    i.Uart_Config                            0x08000cb0   Section        0  bsp_uart.o(i.Uart_Config)
    i.Uart_ConfigGPIO                        0x08000d30   Section        0  bsp_uart.o(i.Uart_ConfigGPIO)
    Uart_ConfigGPIO                          0x08000d31   Thumb Code    50  bsp_uart.o(i.Uart_ConfigGPIO)
    i.Uart_ConfigNVIC                        0x08000d62   Section        0  bsp_uart.o(i.Uart_ConfigNVIC)
    Uart_ConfigNVIC                          0x08000d63   Thumb Code    20  bsp_uart.o(i.Uart_ConfigNVIC)
    i.Uart_ConfigUART                        0x08000d76   Section        0  bsp_uart.o(i.Uart_ConfigUART)
    Uart_ConfigUART                          0x08000d77   Thumb Code    68  bsp_uart.o(i.Uart_ConfigUART)
    i.Uart_Init                              0x08000dbc   Section        0  bsp_uart.o(i.Uart_Init)
    i.Uart_PutChar                           0x08000e48   Section        0  bsp_uart.o(i.Uart_PutChar)
    i.Uart_PutString                         0x08000e54   Section        0  bsp_uart.o(i.Uart_PutString)
    i.UsageFault_Handler                     0x08000ef0   Section        0  stm32f10x_it.o(i.UsageFault_Handler)
    i.__0printf$bare                         0x08000ef4   Section        0  printfb.o(i.__0printf$bare)
    i.__scatterload_copy                     0x08000f04   Section       14  handlers.o(i.__scatterload_copy)
    i.__scatterload_null                     0x08000f12   Section        2  handlers.o(i.__scatterload_null)
    i.__scatterload_zeroinit                 0x08000f14   Section       14  handlers.o(i.__scatterload_zeroinit)
    i._printf_core                           0x08000f22   Section        0  printfb.o(i._printf_core)
    _printf_core                             0x08000f23   Thumb Code    34  printfb.o(i._printf_core)
    i.fputc                                  0x08000f44   Section        0  bsp_uart.o(i.fputc)
    i.main                                   0x08000f54   Section        0  main.o(i.main)
    .data                                    0x20000000   Section       20  stm32f10x_rcc.o(.data)
    ADCPrescTable                            0x20000000   Data           4  stm32f10x_rcc.o(.data)
    APBAHBPrescTable                         0x20000004   Data          16  stm32f10x_rcc.o(.data)
    .data                                    0x20000014   Section       12  bsp_cpu.o(.data)
    g_SystickEnable                          0x20000014   Data           1  bsp_cpu.o(.data)
    TaskCount                                0x20000015   Data           1  bsp_cpu.o(.data)
    LastProcessed                            0x20000016   Data           1  bsp_cpu.o(.data)
    g_SysTickCount                           0x20000018   Data           4  bsp_cpu.o(.data)
    g_CriticalNesting                        0x2000001c   Data           4  bsp_cpu.o(.data)
    .data                                    0x20000020   Section       12  bsp_uart.o(.data)
    .data                                    0x2000002c   Section        1  main.o(.data)
    timer                                    0x2000002c   Data           1  main.o(.data)
    .data                                    0x20000030   Section        4  stdout.o(.data)
    .bss                                     0x20000034   Section      152  bsp_cpu.o(.bss)
    TaskList                                 0x20000034   Data         120  bsp_cpu.o(.bss)
    .bss                                     0x200000cc   Section     7752  bsp_uart.o(.bss)
    STACK                                    0x20001f18   Section     4096  startup_stm32f10x_md.o(STACK)

    Global Symbols

    Symbol Name                              Value     Ov Type        Size  Object(Section)

    BuildAttributes$$THM_ISAv4$P$D$K$B$S$PE$A:L22UL41UL21$X:L11$S22US41US21$IEEE1$IW$USESV6$~STKCKD$USESV7$~SHL$OSPACE$ROPI$EBA8$MICROLIB$REQ8$PRES8$EABIv2 0x00000000   Number         0  anon$$obj.o ABSOLUTE
    __ARM_use_no_argv                        0x00000000   Number         0  main.o ABSOLUTE
    __arm_fini_                               - Undefined Weak Reference
    __cpp_initialize__aeabi_                  - Undefined Weak Reference
    __cxa_finalize                            - Undefined Weak Reference
    __decompress                              - Undefined Weak Reference
    _clock_init                               - Undefined Weak Reference
    _microlib_exit                            - Undefined Weak Reference
    __Vectors_Size                           0x000000ec   Number         0  startup_stm32f10x_md.o ABSOLUTE
    __Vectors                                0x08000000   Data           4  startup_stm32f10x_md.o(RESET)
    __Vectors_End                            0x080000ec   Data           0  startup_stm32f10x_md.o(RESET)
    __main                                   0x080000ed   Thumb Code     0  entry.o(.ARM.Collect$$$$00000000)
    _main_stk                                0x080000ed   Thumb Code     0  entry2.o(.ARM.Collect$$$$00000001)
    _main_scatterload                        0x080000f1   Thumb Code     0  entry5.o(.ARM.Collect$$$$00000004)
    __main_after_scatterload                 0x080000f5   Thumb Code     0  entry5.o(.ARM.Collect$$$$00000004)
    _main_clock                              0x080000f5   Thumb Code     0  entry7b.o(.ARM.Collect$$$$00000008)
    _main_cpp_init                           0x080000f5   Thumb Code     0  entry8b.o(.ARM.Collect$$$$0000000A)
    _main_init                               0x080000f5   Thumb Code     0  entry9a.o(.ARM.Collect$$$$0000000B)
    __rt_lib_shutdown_fini                   0x080000fd   Thumb Code     0  entry12b.o(.ARM.Collect$$$$0000000E)
    __rt_final_cpp                           0x08000101   Thumb Code     0  entry10a.o(.ARM.Collect$$$$0000000F)
    __rt_final_exit                          0x08000101   Thumb Code     0  entry11a.o(.ARM.Collect$$$$00000011)
    Reset_Handler                            0x08000105   Thumb Code     8  startup_stm32f10x_md.o(.text)
    ADC1_2_IRQHandler                        0x0800011f   Thumb Code     0  startup_stm32f10x_md.o(.text)
    CAN1_RX1_IRQHandler                      0x0800011f   Thumb Code     0  startup_stm32f10x_md.o(.text)
    CAN1_SCE_IRQHandler                      0x0800011f   Thumb Code     0  startup_stm32f10x_md.o(.text)
    DMA1_Channel1_IRQHandler                 0x0800011f   Thumb Code     0  startup_stm32f10x_md.o(.text)
    DMA1_Channel2_IRQHandler                 0x0800011f   Thumb Code     0  startup_stm32f10x_md.o(.text)
    DMA1_Channel3_IRQHandler                 0x0800011f   Thumb Code     0  startup_stm32f10x_md.o(.text)
    DMA1_Channel4_IRQHandler                 0x0800011f   Thumb Code     0  startup_stm32f10x_md.o(.text)
    DMA1_Channel5_IRQHandler                 0x0800011f   Thumb Code     0  startup_stm32f10x_md.o(.text)
    DMA1_Channel6_IRQHandler                 0x0800011f   Thumb Code     0  startup_stm32f10x_md.o(.text)
    DMA1_Channel7_IRQHandler                 0x0800011f   Thumb Code     0  startup_stm32f10x_md.o(.text)
    EXTI0_IRQHandler                         0x0800011f   Thumb Code     0  startup_stm32f10x_md.o(.text)
    EXTI15_10_IRQHandler                     0x0800011f   Thumb Code     0  startup_stm32f10x_md.o(.text)
    EXTI1_IRQHandler                         0x0800011f   Thumb Code     0  startup_stm32f10x_md.o(.text)
    EXTI2_IRQHandler                         0x0800011f   Thumb Code     0  startup_stm32f10x_md.o(.text)
    EXTI3_IRQHandler                         0x0800011f   Thumb Code     0  startup_stm32f10x_md.o(.text)
    EXTI4_IRQHandler                         0x0800011f   Thumb Code     0  startup_stm32f10x_md.o(.text)
    EXTI9_5_IRQHandler                       0x0800011f   Thumb Code     0  startup_stm32f10x_md.o(.text)
    FLASH_IRQHandler                         0x0800011f   Thumb Code     0  startup_stm32f10x_md.o(.text)
    I2C1_ER_IRQHandler                       0x0800011f   Thumb Code     0  startup_stm32f10x_md.o(.text)
    I2C1_EV_IRQHandler                       0x0800011f   Thumb Code     0  startup_stm32f10x_md.o(.text)
    I2C2_ER_IRQHandler                       0x0800011f   Thumb Code     0  startup_stm32f10x_md.o(.text)
    I2C2_EV_IRQHandler                       0x0800011f   Thumb Code     0  startup_stm32f10x_md.o(.text)
    PVD_IRQHandler                           0x0800011f   Thumb Code     0  startup_stm32f10x_md.o(.text)
    RCC_IRQHandler                           0x0800011f   Thumb Code     0  startup_stm32f10x_md.o(.text)
    RTCAlarm_IRQHandler                      0x0800011f   Thumb Code     0  startup_stm32f10x_md.o(.text)
    RTC_IRQHandler                           0x0800011f   Thumb Code     0  startup_stm32f10x_md.o(.text)
    SPI1_IRQHandler                          0x0800011f   Thumb Code     0  startup_stm32f10x_md.o(.text)
    SPI2_IRQHandler                          0x0800011f   Thumb Code     0  startup_stm32f10x_md.o(.text)
    TAMPER_IRQHandler                        0x0800011f   Thumb Code     0  startup_stm32f10x_md.o(.text)
    TIM1_BRK_IRQHandler                      0x0800011f   Thumb Code     0  startup_stm32f10x_md.o(.text)
    TIM1_CC_IRQHandler                       0x0800011f   Thumb Code     0  startup_stm32f10x_md.o(.text)
    TIM1_TRG_COM_IRQHandler                  0x0800011f   Thumb Code     0  startup_stm32f10x_md.o(.text)
    TIM1_UP_IRQHandler                       0x0800011f   Thumb Code     0  startup_stm32f10x_md.o(.text)
    TIM2_IRQHandler                          0x0800011f   Thumb Code     0  startup_stm32f10x_md.o(.text)
    TIM3_IRQHandler                          0x0800011f   Thumb Code     0  startup_stm32f10x_md.o(.text)
    TIM4_IRQHandler                          0x0800011f   Thumb Code     0  startup_stm32f10x_md.o(.text)
    USBWakeUp_IRQHandler                     0x0800011f   Thumb Code     0  startup_stm32f10x_md.o(.text)
    USB_HP_CAN1_TX_IRQHandler                0x0800011f   Thumb Code     0  startup_stm32f10x_md.o(.text)
    USB_LP_CAN1_RX0_IRQHandler               0x0800011f   Thumb Code     0  startup_stm32f10x_md.o(.text)
    WWDG_IRQHandler                          0x0800011f   Thumb Code     0  startup_stm32f10x_md.o(.text)
    __scatterload                            0x08000129   Thumb Code    28  init.o(.text)
    __scatterload_rt2                        0x08000129   Thumb Code     0  init.o(.text)
    BSP_Init                                 0x0800014d   Thumb Code    18  bsp.o(i.BSP_Init)
    BSP_PeriphClockEnable                    0x0800015f   Thumb Code    24  bsp.o(i.BSP_PeriphClockEnable)
    BusFault_Handler                         0x08000177   Thumb Code     2  stm32f10x_it.o(i.BusFault_Handler)
    CPU_EnterCritical                        0x08000179   Thumb Code    24  bsp_cpu.o(i.CPU_EnterCritical)
    CPU_ExitCritical                         0x08000195   Thumb Code    24  bsp_cpu.o(i.CPU_ExitCritical)
    CPU_Init                                 0x080001b1   Thumb Code    68  bsp_cpu.o(i.CPU_Init)
    DebugMon_Handler                         0x080001fd   Thumb Code     2  stm32f10x_it.o(i.DebugMon_Handler)
    GPIO_Init                                0x080001ff   Thumb Code   166  stm32f10x_gpio.o(i.GPIO_Init)
    GPIO_ReadOutputDataBit                   0x080002a5   Thumb Code    14  stm32f10x_gpio.o(i.GPIO_ReadOutputDataBit)
    GPIO_WriteBit                            0x080002b3   Thumb Code    12  stm32f10x_gpio.o(i.GPIO_WriteBit)
    HardFault_Handler                        0x080002bf   Thumb Code     2  stm32f10x_it.o(i.HardFault_Handler)
    Led_Init                                 0x080002c1   Thumb Code    52  main.o(i.Led_Init)
    MemManage_Handler                        0x080002fd   Thumb Code     2  stm32f10x_it.o(i.MemManage_Handler)
    NMI_Handler                              0x080002ff   Thumb Code     2  stm32f10x_it.o(i.NMI_Handler)
    NVIC_Init                                0x08000301   Thumb Code    96  misc.o(i.NVIC_Init)
    NVIC_PriorityGroupConfig                 0x08000365   Thumb Code    10  misc.o(i.NVIC_PriorityGroupConfig)
    PendSV_Handler                           0x08000399   Thumb Code     2  stm32f10x_it.o(i.PendSV_Handler)
    RCC_APB1PeriphClockCmd                   0x0800039d   Thumb Code    22  stm32f10x_rcc.o(i.RCC_APB1PeriphClockCmd)
    RCC_APB2PeriphClockCmd                   0x080003b9   Thumb Code    22  stm32f10x_rcc.o(i.RCC_APB2PeriphClockCmd)
    RCC_GetClocksFreq                        0x080003d5   Thumb Code   154  stm32f10x_rcc.o(i.RCC_GetClocksFreq)
    Ringbuffer_DataSize                      0x08000481   Thumb Code    58  ringbuffer.o(i.Ringbuffer_DataSize)
    Ringbuffer_GetChar                       0x080004bb   Thumb Code    72  ringbuffer.o(i.Ringbuffer_GetChar)
    Ringbuffer_Init                          0x08000503   Thumb Code    38  ringbuffer.o(i.Ringbuffer_Init)
    Ringbuffer_PutChar                       0x08000529   Thumb Code    70  ringbuffer.o(i.Ringbuffer_PutChar)
    Ringbuffer_Status                        0x08000581   Thumb Code    32  ringbuffer.o(i.Ringbuffer_Status)
    SVC_Handler                              0x080005a1   Thumb Code     2  stm32f10x_it.o(i.SVC_Handler)
    SysTick_Handler                          0x08000659   Thumb Code    22  bsp_cpu.o(i.SysTick_Handler)
    SystemInit                               0x08000675   Thumb Code    64  system_stm32f10x.o(i.SystemInit)
    Task_100msHandler                        0x080006c5   Thumb Code     6  main.o(i.Task_100msHandler)
    Task_10msHandler                         0x080006d1   Thumb Code     6  main.o(i.Task_10msHandler)
    Task_1msHandler                          0x080006dd   Thumb Code     2  main.o(i.Task_1msHandler)
    Task_Init                                0x080006e1   Thumb Code    30  main.o(i.Task_Init)
    Task_Register                            0x0800070d   Thumb Code    36  bsp_cpu.o(i.Task_Register)
    Test_Led1Toggle                          0x08000779   Thumb Code    32  main.o(i.Test_Led1Toggle)
    Test_Led2Toggle                          0x0800079d   Thumb Code    32  main.o(i.Test_Led2Toggle)
    Test_LedBlink                            0x080007c1   Thumb Code    22  main.o(i.Test_LedBlink)
    Test_Timer                               0x080007dd   Thumb Code     6  main.o(i.Test_Timer)
    Timer_Start                              0x08000901   Thumb Code    78  bsp_cpu.o(i.Timer_Start)
    USART1_IRQHandler                        0x08000955   Thumb Code   154  bsp_uart.o(i.USART1_IRQHandler)
    USART2_IRQHandler                        0x080009fd   Thumb Code   154  bsp_uart.o(i.USART2_IRQHandler)
    USART3_IRQHandler                        0x08000aa5   Thumb Code   154  bsp_uart.o(i.USART3_IRQHandler)
    USART_ClearFlag                          0x08000b4d   Thumb Code     8  stm32f10x_usart.o(i.USART_ClearFlag)
    USART_Cmd                                0x08000b55   Thumb Code    24  stm32f10x_usart.o(i.USART_Cmd)
    USART_GetITStatus                        0x08000b6d   Thumb Code    64  stm32f10x_usart.o(i.USART_GetITStatus)
    USART_ITConfig                           0x08000bad   Thumb Code    54  stm32f10x_usart.o(i.USART_ITConfig)
    USART_Init                               0x08000be5   Thumb Code   182  stm32f10x_usart.o(i.USART_Init)
    USART_ReceiveData                        0x08000ca1   Thumb Code     8  stm32f10x_usart.o(i.USART_ReceiveData)
    USART_SendData                           0x08000ca9   Thumb Code     8  stm32f10x_usart.o(i.USART_SendData)
    Uart_Config                              0x08000cb1   Thumb Code   108  bsp_uart.o(i.Uart_Config)
    Uart_Init                                0x08000dbd   Thumb Code   114  bsp_uart.o(i.Uart_Init)
    Uart_PutChar                             0x08000e49   Thumb Code    12  bsp_uart.o(i.Uart_PutChar)
    Uart_PutString                           0x08000e55   Thumb Code   130  bsp_uart.o(i.Uart_PutString)
    UsageFault_Handler                       0x08000ef1   Thumb Code     2  stm32f10x_it.o(i.UsageFault_Handler)
    __0printf$bare                           0x08000ef5   Thumb Code     8  printfb.o(i.__0printf$bare)
    __1printf$bare                           0x08000ef5   Thumb Code     0  printfb.o(i.__0printf$bare)
    __2printf                                0x08000ef5   Thumb Code     0  printfb.o(i.__0printf$bare)
    __scatterload_copy                       0x08000f05   Thumb Code    14  handlers.o(i.__scatterload_copy)
    __scatterload_null                       0x08000f13   Thumb Code     2  handlers.o(i.__scatterload_null)
    __scatterload_zeroinit                   0x08000f15   Thumb Code    14  handlers.o(i.__scatterload_zeroinit)
    fputc                                    0x08000f45   Thumb Code    16  bsp_uart.o(i.fputc)
    main                                     0x08000f55   Thumb Code    28  main.o(i.main)
    Region$$Table$$Base                      0x08000f74   Number         0  anon$$obj.o(Region$$Table)
    Region$$Table$$Limit                     0x08000f94   Number         0  anon$$obj.o(Region$$Table)
    uart1Config                              0x20000020   Data           4  bsp_uart.o(.data)
    uart2Config                              0x20000024   Data           4  bsp_uart.o(.data)
    uart3Config                              0x20000028   Data           4  bsp_uart.o(.data)
    __stdout                                 0x20000030   Data           4  stdout.o(.data)
    g_Timer                                  0x200000ac   Data          32  bsp_cpu.o(.bss)
    uart1TxRingBuffer                        0x200000cc   Data          12  bsp_uart.o(.bss)
    uart1RxRingBuffer                        0x200000d8   Data          12  bsp_uart.o(.bss)
    uart1TxBuffer                            0x200000e4   Data         512  bsp_uart.o(.bss)
    uart1RxBuffer                            0x200002e4   Data        2048  bsp_uart.o(.bss)
    uart2TxRingBuffer                        0x20000ae4   Data          12  bsp_uart.o(.bss)
    uart2RxRingBuffer                        0x20000af0   Data          12  bsp_uart.o(.bss)
    uart2TxBuffer                            0x20000afc   Data         512  bsp_uart.o(.bss)
    uart2RxBuffer                            0x20000cfc   Data        2048  bsp_uart.o(.bss)
    uart3TxRingBuffer                        0x200014fc   Data          12  bsp_uart.o(.bss)
    uart3RxRingBuffer                        0x20001508   Data          12  bsp_uart.o(.bss)
    uart3TxBuffer                            0x20001514   Data         512  bsp_uart.o(.bss)
    uart3RxBuffer                            0x20001714   Data        2048  bsp_uart.o(.bss)
    __initial_sp                             0x20002f18   Data           0  startup_stm32f10x_md.o(STACK)



==============================================================================

Memory Map of the image

  Image Entry point : 0x080000ed

  Load Region LR_IROM1 (Base: 0x08000000, Size: 0x00000fc8, Max: 0x00002400, ABSOLUTE)

    Execution Region ER_IROM1 (Exec base: 0x08000000, Load base: 0x08000000, Size: 0x00000f94, Max: 0x00002400, ABSOLUTE)

    Exec Addr    Load Addr    Size         Type   Attr      Idx    E Section Name        Object

    0x08000000   0x08000000   0x000000ec   Data   RO          193    RESET               startup_stm32f10x_md.o
    0x080000ec   0x080000ec   0x00000000   Code   RO         2134  * .ARM.Collect$$$$00000000  mc_w.l(entry.o)
    0x080000ec   0x080000ec   0x00000004   Code   RO         2397    .ARM.Collect$$$$00000001  mc_w.l(entry2.o)
    0x080000f0   0x080000f0   0x00000004   Code   RO         2400    .ARM.Collect$$$$00000004  mc_w.l(entry5.o)
    0x080000f4   0x080000f4   0x00000000   Code   RO         2402    .ARM.Collect$$$$00000008  mc_w.l(entry7b.o)
    0x080000f4   0x080000f4   0x00000000   Code   RO         2404    .ARM.Collect$$$$0000000A  mc_w.l(entry8b.o)
    0x080000f4   0x080000f4   0x00000008   Code   RO         2405    .ARM.Collect$$$$0000000B  mc_w.l(entry9a.o)
    0x080000fc   0x080000fc   0x00000004   Code   RO         2412    .ARM.Collect$$$$0000000E  mc_w.l(entry12b.o)
    0x08000100   0x08000100   0x00000000   Code   RO         2407    .ARM.Collect$$$$0000000F  mc_w.l(entry10a.o)
    0x08000100   0x08000100   0x00000000   Code   RO         2409    .ARM.Collect$$$$00000011  mc_w.l(entry11a.o)
    0x08000100   0x08000100   0x00000004   Code   RO         2398    .ARM.Collect$$$$00002712  mc_w.l(entry2.o)
    0x08000104   0x08000104   0x00000024   Code   RO          194    .text               startup_stm32f10x_md.o
    0x08000128   0x08000128   0x00000024   Code   RO         2429    .text               mc_w.l(init.o)
    0x0800014c   0x0800014c   0x00000012   Code   RO         2046    i.BSP_Init          bsp.o
    0x0800015e   0x0800015e   0x00000018   Code   RO         2047    i.BSP_PeriphClockEnable  bsp.o
    0x08000176   0x08000176   0x00000002   Code   RO          130    i.BusFault_Handler  stm32f10x_it.o
    0x08000178   0x08000178   0x0000001c   Code   RO         1860    i.CPU_EnterCritical  bsp_cpu.o
    0x08000194   0x08000194   0x0000001c   Code   RO         1861    i.CPU_ExitCritical  bsp_cpu.o
    0x080001b0   0x080001b0   0x0000004c   Code   RO         1862    i.CPU_Init          bsp_cpu.o
    0x080001fc   0x080001fc   0x00000002   Code   RO          131    i.DebugMon_Handler  stm32f10x_it.o
    0x080001fe   0x080001fe   0x000000a6   Code   RO          510    i.GPIO_Init         stm32f10x_gpio.o
    0x080002a4   0x080002a4   0x0000000e   Code   RO          516    i.GPIO_ReadOutputDataBit  stm32f10x_gpio.o
    0x080002b2   0x080002b2   0x0000000c   Code   RO          521    i.GPIO_WriteBit     stm32f10x_gpio.o
    0x080002be   0x080002be   0x00000002   Code   RO          132    i.HardFault_Handler  stm32f10x_it.o
    0x080002c0   0x080002c0   0x0000003c   Code   RO         2067    i.Led_Init          main.o
    0x080002fc   0x080002fc   0x00000002   Code   RO          133    i.MemManage_Handler  stm32f10x_it.o
    0x080002fe   0x080002fe   0x00000002   Code   RO          134    i.NMI_Handler       stm32f10x_it.o
    0x08000300   0x08000300   0x00000064   Code   RO          198    i.NVIC_Init         misc.o
    0x08000364   0x08000364   0x00000014   Code   RO          199    i.NVIC_PriorityGroupConfig  misc.o
    0x08000378   0x08000378   0x00000020   Code   RO         1865    i.NVIC_SetPriority  bsp_cpu.o
    0x08000398   0x08000398   0x00000002   Code   RO          135    i.PendSV_Handler    stm32f10x_it.o
    0x0800039a   0x0800039a   0x00000002   PAD
    0x0800039c   0x0800039c   0x0000001c   Code   RO          662    i.RCC_APB1PeriphClockCmd  stm32f10x_rcc.o
    0x080003b8   0x080003b8   0x0000001c   Code   RO          664    i.RCC_APB2PeriphClockCmd  stm32f10x_rcc.o
    0x080003d4   0x080003d4   0x000000ac   Code   RO          672    i.RCC_GetClocksFreq  stm32f10x_rcc.o
    0x08000480   0x08000480   0x0000003a   Code   RO         1810    i.Ringbuffer_DataSize  ringbuffer.o
    0x080004ba   0x080004ba   0x00000048   Code   RO         1811    i.Ringbuffer_GetChar  ringbuffer.o
    0x08000502   0x08000502   0x00000026   Code   RO         1812    i.Ringbuffer_Init   ringbuffer.o
    0x08000528   0x08000528   0x00000046   Code   RO         1813    i.Ringbuffer_PutChar  ringbuffer.o
    0x0800056e   0x0800056e   0x00000012   Code   RO         1814    i.Ringbuffer_SpaceSize  ringbuffer.o
    0x08000580   0x08000580   0x00000020   Code   RO         1815    i.Ringbuffer_Status  ringbuffer.o
    0x080005a0   0x080005a0   0x00000002   Code   RO          136    i.SVC_Handler       stm32f10x_it.o
    0x080005a2   0x080005a2   0x00000004   Code   RO           17    i.SetSysClock       system_stm32f10x.o
    0x080005a6   0x080005a6   0x00000002   PAD
    0x080005a8   0x080005a8   0x000000b0   Code   RO           18    i.SetSysClockTo72   system_stm32f10x.o
    0x08000658   0x08000658   0x0000001c   Code   RO         1866    i.SysTick_Handler   bsp_cpu.o
    0x08000674   0x08000674   0x00000050   Code   RO           20    i.SystemInit        system_stm32f10x.o
    0x080006c4   0x080006c4   0x0000000c   Code   RO         2068    i.Task_100msHandler  main.o
    0x080006d0   0x080006d0   0x0000000c   Code   RO         2069    i.Task_10msHandler  main.o
    0x080006dc   0x080006dc   0x00000002   Code   RO         2070    i.Task_1msHandler   main.o
    0x080006de   0x080006de   0x00000002   PAD
    0x080006e0   0x080006e0   0x0000002c   Code   RO         2071    i.Task_Init         main.o
    0x0800070c   0x0800070c   0x0000002c   Code   RO         1867    i.Task_Register     bsp_cpu.o
    0x08000738   0x08000738   0x00000040   Code   RO         1868    i.Task_Scheduler    bsp_cpu.o
    0x08000778   0x08000778   0x00000024   Code   RO         2072    i.Test_Led1Toggle   main.o
    0x0800079c   0x0800079c   0x00000024   Code   RO         2073    i.Test_Led2Toggle   main.o
    0x080007c0   0x080007c0   0x0000001c   Code   RO         2074    i.Test_LedBlink     main.o
    0x080007dc   0x080007dc   0x0000001c   Code   RO         2075    i.Test_Timer        main.o
    0x080007f8   0x080007f8   0x000000d4   Code   RO         1869    i.Timer_Handle      bsp_cpu.o
    0x080008cc   0x080008cc   0x00000034   Code   RO         1870    i.Timer_Init        bsp_cpu.o
    0x08000900   0x08000900   0x00000054   Code   RO         1871    i.Timer_Start       bsp_cpu.o
    0x08000954   0x08000954   0x000000a8   Code   RO         1960    i.USART1_IRQHandler  bsp_uart.o
    0x080009fc   0x080009fc   0x000000a8   Code   RO         1961    i.USART2_IRQHandler  bsp_uart.o
    0x08000aa4   0x08000aa4   0x000000a8   Code   RO         1962    i.USART3_IRQHandler  bsp_uart.o
    0x08000b4c   0x08000b4c   0x00000008   Code   RO         1408    i.USART_ClearFlag   stm32f10x_usart.o
    0x08000b54   0x08000b54   0x00000018   Code   RO         1412    i.USART_Cmd         stm32f10x_usart.o
    0x08000b6c   0x08000b6c   0x00000040   Code   RO         1416    i.USART_GetITStatus  stm32f10x_usart.o
    0x08000bac   0x08000bac   0x00000036   Code   RO         1418    i.USART_ITConfig    stm32f10x_usart.o
    0x08000be2   0x08000be2   0x00000002   PAD
    0x08000be4   0x08000be4   0x000000bc   Code   RO         1419    i.USART_Init        stm32f10x_usart.o
    0x08000ca0   0x08000ca0   0x00000008   Code   RO         1426    i.USART_ReceiveData  stm32f10x_usart.o
    0x08000ca8   0x08000ca8   0x00000008   Code   RO         1429    i.USART_SendData    stm32f10x_usart.o
    0x08000cb0   0x08000cb0   0x00000080   Code   RO         1963    i.Uart_Config       bsp_uart.o
    0x08000d30   0x08000d30   0x00000032   Code   RO         1964    i.Uart_ConfigGPIO   bsp_uart.o
    0x08000d62   0x08000d62   0x00000014   Code   RO         1965    i.Uart_ConfigNVIC   bsp_uart.o
    0x08000d76   0x08000d76   0x00000044   Code   RO         1966    i.Uart_ConfigUART   bsp_uart.o
    0x08000dba   0x08000dba   0x00000002   PAD
    0x08000dbc   0x08000dbc   0x0000008c   Code   RO         1968    i.Uart_Init         bsp_uart.o
    0x08000e48   0x08000e48   0x0000000c   Code   RO         1969    i.Uart_PutChar      bsp_uart.o
    0x08000e54   0x08000e54   0x0000009c   Code   RO         1970    i.Uart_PutString    bsp_uart.o
    0x08000ef0   0x08000ef0   0x00000002   Code   RO          137    i.UsageFault_Handler  stm32f10x_it.o
    0x08000ef2   0x08000ef2   0x00000002   PAD
    0x08000ef4   0x08000ef4   0x00000010   Code   RO         2138    i.__0printf$bare    mc_w.l(printfb.o)
    0x08000f04   0x08000f04   0x0000000e   Code   RO         2441    i.__scatterload_copy  mc_w.l(handlers.o)
    0x08000f12   0x08000f12   0x00000002   Code   RO         2442    i.__scatterload_null  mc_w.l(handlers.o)
    0x08000f14   0x08000f14   0x0000000e   Code   RO         2443    i.__scatterload_zeroinit  mc_w.l(handlers.o)
    0x08000f22   0x08000f22   0x00000022   Code   RO         2145    i._printf_core      mc_w.l(printfb.o)
    0x08000f44   0x08000f44   0x00000010   Code   RO         1971    i.fputc             bsp_uart.o
    0x08000f54   0x08000f54   0x00000020   Code   RO         2076    i.main              main.o
    0x08000f74   0x08000f74   0x00000020   Data   RO         2439    Region$$Table       anon$$obj.o


    Execution Region RW_IRAM1 (Exec base: 0x20000000, Load base: 0x08000f94, Size: 0x00002f18, Max: 0x00005000, ABSOLUTE)

    Exec Addr    Load Addr    Size         Type   Attr      Idx    E Section Name        Object

    0x20000000   0x08000f94   0x00000014   Data   RW          692    .data               stm32f10x_rcc.o
    0x20000014   0x08000fa8   0x0000000c   Data   RW         1875    .data               bsp_cpu.o
    0x20000020   0x08000fb4   0x0000000c   Data   RW         1973    .data               bsp_uart.o
    0x2000002c   0x08000fc0   0x00000001   Data   RW         2077    .data               main.o
    0x2000002d   0x08000fc1   0x00000003   PAD
    0x20000030   0x08000fc4   0x00000004   Data   RW         2413    .data               mc_w.l(stdout.o)
    0x20000034        -       0x00000098   Zero   RW         1874    .bss                bsp_cpu.o
    0x200000cc        -       0x00001e48   Zero   RW         1972    .bss                bsp_uart.o
    0x20001f14   0x08000fc8   0x00000004   PAD
    0x20001f18        -       0x00001000   Zero   RW          191    STACK               startup_stm32f10x_md.o


==============================================================================

Image component sizes


      Code (inc. data)   RO Data    RW Data    ZI Data      Debug   Object Name

        42          0          0          0          0        879   bsp.o
       648         60          0         12        152      22683   bsp_cpu.o
      1094        114          0         12       7752       9920   bsp_uart.o
         0          0          0          0          0       4564   core_cm3.o
       290         74          0          1          0       4520   main.o
       120         14          0          0          0       1515   misc.o
       288          0          0          0          0       4622   ringbuffer.o
        36          8        236          0       4096        800   startup_stm32f10x_md.o
       192          0          0          0          0       3181   stm32f10x_gpio.o
        16          0          0          0          0       3436   stm32f10x_it.o
       228         30          0         20          0       4518   stm32f10x_rcc.o
       354          6          0          0          0       6229   stm32f10x_usart.o
       260         26          0          0          0     228373   system_stm32f10x.o

    ----------------------------------------------------------------------
      3580        332        268         48      12004     295240   Object Totals
         0          0         32          0          0          0   (incl. Generated)
        12          0          0          3          4          0   (incl. Padding)

    ----------------------------------------------------------------------

      Code (inc. data)   RO Data    RW Data    ZI Data      Debug   Library Member Name

         0          0          0          0          0          0   entry.o
         0          0          0          0          0          0   entry10a.o
         0          0          0          0          0          0   entry11a.o
         4          0          0          0          0          0   entry12b.o
         8          4          0          0          0          0   entry2.o
         4          0          0          0          0          0   entry5.o
         0          0          0          0          0          0   entry7b.o
         0          0          0          0          0          0   entry8b.o
         8          4          0          0          0          0   entry9a.o
        30          0          0          0          0          0   handlers.o
        36          8          0          0          0         68   init.o
        50          8          0          0          0        152   printfb.o
         0          0          0          4          0          0   stdout.o

    ----------------------------------------------------------------------
       140         24          0          4          0        220   Library Totals
         0          0          0          0          0          0   (incl. Padding)

    ----------------------------------------------------------------------

      Code (inc. data)   RO Data    RW Data    ZI Data      Debug   Library Name

       140         24          0          4          0        220   mc_w.l

    ----------------------------------------------------------------------
       140         24          0          4          0        220   Library Totals

    ----------------------------------------------------------------------

==============================================================================


      Code (inc. data)   RO Data    RW Data    ZI Data      Debug   

      3720        356        268         52      12004     292388   Grand Totals
      3720        356        268         52      12004     292388   ELF Image Totals
      3720        356        268         52          0          0   ROM Totals

==============================================================================

    Total RO  Size (Code + RO Data)                 3988 (   3.89kB)
    Total RW  Size (RW Data + ZI Data)             12056 (  11.77kB)
    Total ROM Size (Code + RO Data + RW Data)       4040 (   3.95kB)

==============================================================================

