Component: ARM Compiler 5.06 update 7 (build 960) Tool: armlink [4d3601]

==============================================================================

Section Cross References

    system_stm32f10x.o(i.SetSysClock) refers to system_stm32f10x.o(i.SetSysClockTo72) for SetSysClockTo72
    system_stm32f10x.o(i.SystemCoreClockUpdate) refers to system_stm32f10x.o(.data) for .data
    system_stm32f10x.o(i.SystemInit) refers to system_stm32f10x.o(i.SetSysClock) for SetSysClock
    startup_stm32f10x_md.o(RESET) refers to startup_stm32f10x_md.o(STACK) for __initial_sp
    startup_stm32f10x_md.o(RESET) refers to startup_stm32f10x_md.o(.text) for Reset_Handler
    startup_stm32f10x_md.o(RESET) refers to stm32f10x_it.o(i.NMI_Handler) for NMI_Handler
    startup_stm32f10x_md.o(RESET) refers to stm32f10x_it.o(i.HardFault_Handler) for HardFault_Handler
    startup_stm32f10x_md.o(RESET) refers to stm32f10x_it.o(i.MemManage_Handler) for MemManage_Handler
    startup_stm32f10x_md.o(RESET) refers to stm32f10x_it.o(i.BusFault_Handler) for BusFault_Handler
    startup_stm32f10x_md.o(RESET) refers to stm32f10x_it.o(i.UsageFault_Handler) for UsageFault_Handler
    startup_stm32f10x_md.o(RESET) refers to stm32f10x_it.o(i.SVC_Handler) for SVC_Handler
    startup_stm32f10x_md.o(RESET) refers to stm32f10x_it.o(i.DebugMon_Handler) for DebugMon_Handler
    startup_stm32f10x_md.o(RESET) refers to stm32f10x_it.o(i.PendSV_Handler) for PendSV_Handler
    startup_stm32f10x_md.o(RESET) refers to bsp_cpu.o(i.SysTick_Handler) for SysTick_Handler
    startup_stm32f10x_md.o(RESET) refers to bsp_uart.o(i.USART1_IRQHandler) for USART1_IRQHandler
    startup_stm32f10x_md.o(RESET) refers to bsp_uart.o(i.USART2_IRQHandler) for USART2_IRQHandler
    startup_stm32f10x_md.o(RESET) refers to bsp_uart.o(i.USART3_IRQHandler) for USART3_IRQHandler
    startup_stm32f10x_md.o(.text) refers to system_stm32f10x.o(i.SystemInit) for SystemInit
==============================================================================

Removing Unused input sections from the image.

    Removing core_cm3.o(.emb_text), (32 bytes).
    Removing system_stm32f10x.o(i.SystemCoreClockUpdate), (124 bytes).
    Removing system_stm32f10x.o(.data), (20 bytes).
    Removing startup_stm32f10x_md.o(HEAP), (8192 bytes).
    Removing misc.o(i.NVIC_SetVectorTable), (20 bytes).
    Removing misc.o(i.NVIC_SystemLPConfig), (28 bytes).
    Removing misc.o(i.SysTick_CLKSourceConfig), (28 bytes).
    Removing stm32f10x_dbgmcu.o(i.DBGMCU_Config), (28 bytes).
    Removing stm32f10x_dbgmcu.o(i.DBGMCU_GetDEVID), (16 bytes).
    Removing stm32f10x_dbgmcu.o(i.DBGMCU_GetREVID), (12 bytes).
    Removing stm32f10x_dma.o(i.DMA_ClearFlag), (24 bytes).
    Removing stm32f10x_dma.o(i.DMA_ClearITPendingBit), (24 bytes).
    Removing stm32f10x_dma.o(i.DMA_Cmd), (26 bytes).
    Removing stm32f10x_dma.o(i.DMA_DeInit), (248 bytes).
    Removing stm32f10x_dma.o(i.DMA_GetCurrDataCounter), (6 bytes).
    Removing stm32f10x_dma.o(i.DMA_GetFlagStatus), (36 bytes).
    Removing stm32f10x_dma.o(i.DMA_GetITStatus), (36 bytes).
    Removing stm32f10x_dma.o(i.DMA_ITConfig), (20 bytes).
==============================================================================

Image Symbol Table

    Local Symbols

    Symbol Name                              Value     Ov Type        Size  Object(Section)

    ../clib/microlib/division.c              0x00000000   Number         0  uidiv.o ABSOLUTE
    ../clib/microlib/division.c              0x00000000   Number         0  uldiv.o ABSOLUTE
    ../clib/microlib/init/entry.s            0x00000000   Number         0  entry5.o ABSOLUTE
    ../clib/microlib/init/entry.s            0x00000000   Number         0  entry7b.o ABSOLUTE
    ../clib/microlib/init/entry.s            0x00000000   Number         0  entry7a.o ABSOLUTE
    ../clib/microlib/init/entry.s            0x00000000   Number         0  entry8a.o ABSOLUTE
    ../clib/microlib/init/entry.s            0x00000000   Number         0  entry8b.o ABSOLUTE
    ../clib/microlib/init/entry.s            0x00000000   Number         0  entry12b.o ABSOLUTE
    ../clib/microlib/init/entry.s            0x00000000   Number         0  entry9a.o ABSOLUTE
    ../clib/microlib/init/entry.s            0x00000000   Number         0  entry9b.o ABSOLUTE
    ../clib/microlib/init/entry.s            0x00000000   Number         0  entry.o ABSOLUTE
    ../clib/microlib/init/entry.s            0x00000000   Number         0  entry10a.o ABSOLUTE
    ../clib/microlib/init/entry.s            0x00000000   Number         0  entry10b.o ABSOLUTE
    ../clib/microlib/init/entry.s            0x00000000   Number         0  entry11a.o ABSOLUTE
    ../clib/microlib/init/entry.s            0x00000000   Number         0  entry11b.o ABSOLUTE
    ../clib/microlib/init/entry.s            0x00000000   Number         0  entry12a.o ABSOLUTE
    ../clib/microlib/init/entry.s            0x00000000   Number         0  entry2.o ABSOLUTE
    ../clib/microlib/longlong.c              0x00000000   Number         0  llsshr.o ABSOLUTE
    ../clib/microlib/longlong.c              0x00000000   Number         0  llushr.o ABSOLUTE
    ../clib/microlib/longlong.c              0x00000000   Number         0  llshl.o ABSOLUTE
    ../clib/microlib/malloc/malloc.c         0x00000000   Number         0  malloc.o ABSOLUTE
    ../clib/microlib/malloc/malloc.c         0x00000000   Number         0  mallocr.o ABSOLUTE
    ../clib/microlib/malloc/malloc.c         0x00000000   Number         0  mallocra.o ABSOLUTE
    ../clib/microlib/malloc/malloc.c         0x00000000   Number         0  malloca.o ABSOLUTE
    ../clib/microlib/malloc/mvars.c          0x00000000   Number         0  mvars.o ABSOLUTE
    ../clib/microlib/printf/printf.c         0x00000000   Number         0  printfa.o ABSOLUTE
    ../clib/microlib/stdio/streams.c         0x00000000   Number         0  stdout.o ABSOLUTE
    ../clib/microlib/string/memcpy.c         0x00000000   Number         0  memcpyb.o ABSOLUTE
    ../clib/microlib/string/memcpy.c         0x00000000   Number         0  memcpya.o ABSOLUTE
    ../clib/microlib/string/memset.c         0x00000000   Number         0  memseta.o ABSOLUTE
    ../clib/microlib/stubs.s                 0x00000000   Number         0  iusefp.o ABSOLUTE
    ../fplib/microlib/fpadd.c                0x00000000   Number         0  dadd.o ABSOLUTE
    ../fplib/microlib/fpdiv.c                0x00000000   Number         0  ddiv.o ABSOLUTE
    ../fplib/microlib/fpepilogue.c           0x00000000   Number         0  depilogue.o ABSOLUTE
    ../fplib/microlib/fpfix.c                0x00000000   Number         0  dfixul.o ABSOLUTE
    ../fplib/microlib/fpmul.c                0x00000000   Number         0  dmul.o ABSOLUTE
    ..\BSP\bsp.c                             0x00000000   Number         0  bsp.o ABSOLUTE
    ..\BSP\src\bsp_cpu.c                     0x00000000   Number         0  bsp_cpu.o ABSOLUTE
    ..\BSP\src\bsp_led.c                     0x00000000   Number         0  bsp_led.o ABSOLUTE
    ..\BSP\src\bsp_uart.c                    0x00000000   Number         0  bsp_uart.o ABSOLUTE
    ..\Drivers\CMSIS\core_cm3.c              0x00000000   Number         0  core_cm3.o ABSOLUTE
    ..\Drivers\CMSIS\stm32f10x_it.c          0x00000000   Number         0  stm32f10x_it.o ABSOLUTE
    ..\Drivers\CMSIS\system_stm32f10x.c      0x00000000   Number         0  system_stm32f10x.o ABSOLUTE
    ..\Drivers\Lib\src\misc.c                0x00000000   Number         0  misc.o ABSOLUTE
    ..\Drivers\Lib\src\stm32f10x_adc.c       0x00000000   Number         0  stm32f10x_adc.o ABSOLUTE
    ..\Drivers\Lib\src\stm32f10x_dbgmcu.c    0x00000000   Number         0  stm32f10x_dbgmcu.o ABSOLUTE
    ..\Drivers\Lib\src\stm32f10x_dma.c       0x00000000   Number         0  stm32f10x_dma.o ABSOLUTE
    ..\Drivers\Lib\src\stm32f10x_flash.c     0x00000000   Number         0  stm32f10x_flash.o ABSOLUTE
    ..\Drivers\Lib\src\stm32f10x_gpio.c      0x00000000   Number         0  stm32f10x_gpio.o ABSOLUTE
    ..\Drivers\Lib\src\stm32f10x_iwdg.c      0x00000000   Number         0  stm32f10x_iwdg.o ABSOLUTE
    ..\Drivers\Lib\src\stm32f10x_rcc.c       0x00000000   Number         0  stm32f10x_rcc.o ABSOLUTE
    ..\Drivers\Lib\src\stm32f10x_tim.c       0x00000000   Number         0  stm32f10x_tim.o ABSOLUTE
    ..\Drivers\Lib\src\stm32f10x_usart.c     0x00000000   Number         0  stm32f10x_usart.o ABSOLUTE
    ..\Drivers\Starup\startup_stm32f10x_md.s 0x00000000   Number         0  startup_stm32f10x_md.o ABSOLUTE
    ..\Middleware\src\ringbuffer.c           0x00000000   Number         0  ringbuffer.o ABSOLUTE
    ..\Middleware\src\soft_timer.c           0x00000000   Number         0  soft_timer.o ABSOLUTE
    ..\User\main.c                           0x00000000   Number         0  main.o ABSOLUTE
    ..\\Drivers\\CMSIS\\core_cm3.c           0x00000000   Number         0  core_cm3.o ABSOLUTE
    cdrcmple.s                               0x00000000   Number         0  cdrcmple.o ABSOLUTE
    dc.s                                     0x00000000   Number         0  dc.o ABSOLUTE
    handlers.s                               0x00000000   Number         0  handlers.o ABSOLUTE
    init.s                                   0x00000000   Number         0  init.o ABSOLUTE
    RESET                                    0x08000000   Section      236  startup_stm32f10x_md.o(RESET)
    .ARM.Collect$$$$00000000                 0x080000ec   Section        0  entry.o(.ARM.Collect$$$$00000000)
    .ARM.Collect$$$$00000001                 0x080000ec   Section        4  entry2.o(.ARM.Collect$$$$00000001)
    .ARM.Collect$$$$00000004                 0x080000f0   Section        4  entry5.o(.ARM.Collect$$$$00000004)
    .ARM.Collect$$$$00000008                 0x080000f4   Section        0  entry7b.o(.ARM.Collect$$$$00000008)
    .ARM.Collect$$$$0000000A                 0x080000f4   Section        0  entry8b.o(.ARM.Collect$$$$0000000A)
    .ARM.Collect$$$$0000000B                 0x080000f4   Section        8  entry9a.o(.ARM.Collect$$$$0000000B)
    .ARM.Collect$$$$0000000E                 0x080000fc   Section        4  entry12b.o(.ARM.Collect$$$$0000000E)
    .ARM.Collect$$$$0000000F                 0x08000100   Section        0  entry10a.o(.ARM.Collect$$$$0000000F)
    .ARM.Collect$$$$00000011                 0x08000100   Section        0  entry11a.o(.ARM.Collect$$$$00000011)
    .ARM.Collect$$$$00002712                 0x08000100   Section        4  entry2.o(.ARM.Collect$$$$00002712)
    __lit__00000000                          0x08000100   Data           4  entry2.o(.ARM.Collect$$$$00002712)
    .text                                    0x08000104   Section       36  startup_stm32f10x_md.o(.text)
    .text                                    0x08000128   Section       36  init.o(.text)
    i.BusFault_Handler                       0x0800014c   Section        0  stm32f10x_it.o(i.BusFault_Handler)
    i.DebugMon_Handler                       0x0800014e   Section        0  stm32f10x_it.o(i.DebugMon_Handler)
    i.GPIO_Init                              0x08000150   Section        0  stm32f10x_gpio.o(i.GPIO_Init)
    i.GPIO_WriteBit                          0x080001f6   Section        0  stm32f10x_gpio.o(i.GPIO_WriteBit)
    i.HardFault_Handler                      0x08000202   Section        0  stm32f10x_it.o(i.HardFault_Handler)
    i.MemManage_Handler                      0x08000204   Section        0  stm32f10x_it.o(i.MemManage_Handler)
    i.NMI_Handler                            0x08000206   Section        0  stm32f10x_it.o(i.NMI_Handler)
    i.NVIC_Init                              0x08000208   Section        0  misc.o(i.NVIC_Init)
    i.NVIC_PriorityGroupConfig               0x0800026c   Section        0  misc.o(i.NVIC_PriorityGroupConfig)
    i.NVIC_SetPriority                       0x08000280   Section        0  bsp_cpu.o(i.NVIC_SetPriority)
    NVIC_SetPriority                         0x08000281   Thumb Code    32  bsp_cpu.o(i.NVIC_SetPriority)
    i.PendSV_Handler                         0x080002a0   Section        0  stm32f10x_it.o(i.PendSV_Handler)
    i.RCC_APB1PeriphClockCmd                 0x080002a4   Section        0  stm32f10x_rcc.o(i.RCC_APB1PeriphClockCmd)
    i.RCC_APB2PeriphClockCmd                 0x080002c0   Section        0  stm32f10x_rcc.o(i.RCC_APB2PeriphClockCmd)
    i.RCC_GetClocksFreq                      0x080002dc   Section        0  stm32f10x_rcc.o(i.RCC_GetClocksFreq)
    i.SVC_Handler                            0x08000388   Section        0  stm32f10x_it.o(i.SVC_Handler)
    i.SetSysClock                            0x0800038a   Section        0  system_stm32f10x.o(i.SetSysClock)
    SetSysClock                              0x0800038b   Thumb Code     4  system_stm32f10x.o(i.SetSysClock)
    i.SetSysClockTo72                        0x08000390   Section        0  system_stm32f10x.o(i.SetSysClockTo72)
    SetSysClockTo72                          0x08000391   Thumb Code   166  system_stm32f10x.o(i.SetSysClockTo72)
    i.SysTick_Handler                        0x08000440   Section        0  bsp_cpu.o(i.SysTick_Handler)
    i.SystemInit                             0x08000444   Section        0  system_stm32f10x.o(i.SystemInit)
    i.USART1_IRQHandler                      0x08000494   Section        0  bsp_uart.o(i.USART1_IRQHandler)
    i.USART2_IRQHandler                      0x08000530   Section        0  bsp_uart.o(i.USART2_IRQHandler)
    i.USART3_IRQHandler                      0x080005cc   Section        0  bsp_uart.o(i.USART3_IRQHandler)
    i.USART_ClearFlag                        0x08000668   Section        0  stm32f10x_usart.o(i.USART_ClearFlag)
    i.USART_Cmd                              0x08000670   Section        0  stm32f10x_usart.o(i.USART_Cmd)
    i.USART_GetITStatus                      0x08000688   Section        0  stm32f10x_usart.o(i.USART_GetITStatus)
    i.USART_ITConfig                         0x080006c8   Section        0  stm32f10x_usart.o(i.USART_ITConfig)
    i.USART_Init                             0x08000700   Section        0  stm32f10x_usart.o(i.USART_Init)
    i.USART_ReceiveData                      0x080007bc   Section        0  stm32f10x_usart.o(i.USART_ReceiveData)
    i.USART_SendData                         0x080007c4   Section        0  stm32f10x_usart.o(i.USART_SendData)
    i.UsageFault_Handler                     0x080007cc   Section        0  stm32f10x_it.o(i.UsageFault_Handler)
    i.__scatterload_copy                     0x080007ce   Section       14  handlers.o(i.__scatterload_copy)
    i.__scatterload_null                     0x080007dc   Section        2  handlers.o(i.__scatterload_null)
    i.__scatterload_zeroinit                 0x080007de   Section       14  handlers.o(i.__scatterload_zeroinit)
    i.bsp_init                               0x080007ec   Section        0  bsp.o(i.bsp_init)
    i.bsp_periph_clock_enable                0x08000804   Section        0  bsp.o(i.bsp_periph_clock_enable)
    i.cpu_enter_critical                     0x08000820   Section        0  bsp_cpu.o(i.cpu_enter_critical)
    i.cpu_exit_critical                      0x0800083c   Section        0  bsp_cpu.o(i.cpu_exit_critical)
    i.cpu_init                               0x08000858   Section        0  bsp_cpu.o(i.cpu_init)
    i.gpio_config                            0x080008a0   Section        0  bsp_led.o(i.gpio_config)
    gpio_config                              0x080008a1   Thumb Code    24  bsp_led.o(i.gpio_config)
    i.led_init                               0x080008b8   Section        0  bsp_led.o(i.led_init)
    i.led_set_state                          0x08000910   Section        0  bsp_led.o(i.led_set_state)
    led_set_state                            0x08000911   Thumb Code    26  bsp_led.o(i.led_set_state)
    i.main                                   0x08000934   Section        0  main.o(i.main)
    i.ringbuffer_data_size                   0x0800093e   Section        0  ringbuffer.o(i.ringbuffer_data_size)
    i.ringbuffer_get_char                    0x08000978   Section        0  ringbuffer.o(i.ringbuffer_get_char)
    i.ringbuffer_init                        0x080009c0   Section        0  ringbuffer.o(i.ringbuffer_init)
    i.ringbuffer_put_char                    0x080009e6   Section        0  ringbuffer.o(i.ringbuffer_put_char)
    i.ringbuffer_space_size                  0x08000a2c   Section        0  ringbuffer.o(i.ringbuffer_space_size)
    ringbuffer_space_size                    0x08000a2d   Thumb Code    18  ringbuffer.o(i.ringbuffer_space_size)
    i.ringbuffer_status                      0x08000a3e   Section        0  ringbuffer.o(i.ringbuffer_status)
    i.timer_ticks                            0x08000a60   Section        0  soft_timer.o(i.timer_ticks)
    i.uart_config                            0x08000b5c   Section        0  bsp_uart.o(i.uart_config)
    i.uart_config_gpio                       0x08000b98   Section        0  bsp_uart.o(i.uart_config_gpio)
    uart_config_gpio                         0x08000b99   Thumb Code    50  bsp_uart.o(i.uart_config_gpio)
    i.uart_config_nvic                       0x08000bca   Section        0  bsp_uart.o(i.uart_config_nvic)
    uart_config_nvic                         0x08000bcb   Thumb Code    20  bsp_uart.o(i.uart_config_nvic)
    i.uart_config_param                      0x08000be0   Section        0  bsp_uart.o(i.uart_config_param)
    uart_config_param                        0x08000be1   Thumb Code    58  bsp_uart.o(i.uart_config_param)
    i.uart_init                              0x08000c20   Section        0  bsp_uart.o(i.uart_init)
    .constdata                               0x08000ca8   Section       88  bsp_uart.o(.constdata)
    uart_devices                             0x08000ca8   Data          72  bsp_uart.o(.constdata)
    .data                                    0x20000000   Section       20  stm32f10x_rcc.o(.data)
    ADCPrescTable                            0x20000000   Data           4  stm32f10x_rcc.o(.data)
    APBAHBPrescTable                         0x20000004   Data          16  stm32f10x_rcc.o(.data)
    .data                                    0x20000014   Section        8  soft_timer.o(.data)
    timer_count                              0x20000014   Data           1  soft_timer.o(.data)
    last_processed                           0x20000015   Data           1  soft_timer.o(.data)
    timer_list                               0x20000018   Data           4  soft_timer.o(.data)
    .data                                    0x2000001c   Section        8  bsp_cpu.o(.data)
    systick_enable                           0x2000001c   Data           1  bsp_cpu.o(.data)
    critical_nesting                         0x20000020   Data           4  bsp_cpu.o(.data)
    .bss                                     0x20000024   Section       24  bsp_led.o(.bss)
    .bss                                     0x2000003c   Section     4808  bsp_uart.o(.bss)
    buffer                                   0x2000003c   Data         128  bsp_uart.o(.bss)
    STACK                                    0x20001308   Section     4096  startup_stm32f10x_md.o(STACK)

    Global Symbols

    Symbol Name                              Value     Ov Type        Size  Object(Section)

    BuildAttributes$$THM_ISAv4$P$D$K$B$S$PE$A:L22UL41UL21$X:L11$S22US41US21$IEEE1$IW$USESV6$~STKCKD$USESV7$~SHL$OSPACE$ROPI$EBA8$MICROLIB$REQ8$PRES8$EABIv2 0x00000000   Number         0  anon$$obj.o ABSOLUTE
    __ARM_use_no_argv                        0x00000000   Number         0  main.o ABSOLUTE
    __arm_fini_                               - Undefined Weak Reference
    __cpp_initialize__aeabi_                  - Undefined Weak Reference
    __cxa_finalize                            - Undefined Weak Reference
    __decompress                              - Undefined Weak Reference
    _clock_init                               - Undefined Weak Reference
    _microlib_exit                            - Undefined Weak Reference
    __Vectors_Size                           0x000000ec   Number         0  startup_stm32f10x_md.o ABSOLUTE
    __Vectors                                0x08000000   Data           4  startup_stm32f10x_md.o(RESET)
    __Vectors_End                            0x080000ec   Data           0  startup_stm32f10x_md.o(RESET)
    __main                                   0x080000ed   Thumb Code     0  entry.o(.ARM.Collect$$$$00000000)
    _main_stk                                0x080000ed   Thumb Code     0  entry2.o(.ARM.Collect$$$$00000001)
    _main_scatterload                        0x080000f1   Thumb Code     0  entry5.o(.ARM.Collect$$$$00000004)
    __main_after_scatterload                 0x080000f5   Thumb Code     0  entry5.o(.ARM.Collect$$$$00000004)
    _main_clock                              0x080000f5   Thumb Code     0  entry7b.o(.ARM.Collect$$$$00000008)
    _main_cpp_init                           0x080000f5   Thumb Code     0  entry8b.o(.ARM.Collect$$$$0000000A)
    _main_init                               0x080000f5   Thumb Code     0  entry9a.o(.ARM.Collect$$$$0000000B)
    __rt_lib_shutdown_fini                   0x080000fd   Thumb Code     0  entry12b.o(.ARM.Collect$$$$0000000E)
    __rt_final_cpp                           0x08000101   Thumb Code     0  entry10a.o(.ARM.Collect$$$$0000000F)
    __rt_final_exit                          0x08000101   Thumb Code     0  entry11a.o(.ARM.Collect$$$$00000011)
    Reset_Handler                            0x08000105   Thumb Code     8  startup_stm32f10x_md.o(.text)
    ADC1_2_IRQHandler                        0x0800011f   Thumb Code     0  startup_stm32f10x_md.o(.text)
    CAN1_RX1_IRQHandler                      0x0800011f   Thumb Code     0  startup_stm32f10x_md.o(.text)
    CAN1_SCE_IRQHandler                      0x0800011f   Thumb Code     0  startup_stm32f10x_md.o(.text)
    DMA1_Channel1_IRQHandler                 0x0800011f   Thumb Code     0  startup_stm32f10x_md.o(.text)
    DMA1_Channel2_IRQHandler                 0x0800011f   Thumb Code     0  startup_stm32f10x_md.o(.text)
    DMA1_Channel3_IRQHandler                 0x0800011f   Thumb Code     0  startup_stm32f10x_md.o(.text)
    DMA1_Channel4_IRQHandler                 0x0800011f   Thumb Code     0  startup_stm32f10x_md.o(.text)
    DMA1_Channel5_IRQHandler                 0x0800011f   Thumb Code     0  startup_stm32f10x_md.o(.text)
    DMA1_Channel6_IRQHandler                 0x0800011f   Thumb Code     0  startup_stm32f10x_md.o(.text)
    DMA1_Channel7_IRQHandler                 0x0800011f   Thumb Code     0  startup_stm32f10x_md.o(.text)
    EXTI0_IRQHandler                         0x0800011f   Thumb Code     0  startup_stm32f10x_md.o(.text)
    EXTI15_10_IRQHandler                     0x0800011f   Thumb Code     0  startup_stm32f10x_md.o(.text)
    EXTI1_IRQHandler                         0x0800011f   Thumb Code     0  startup_stm32f10x_md.o(.text)
    EXTI2_IRQHandler                         0x0800011f   Thumb Code     0  startup_stm32f10x_md.o(.text)
    EXTI3_IRQHandler                         0x0800011f   Thumb Code     0  startup_stm32f10x_md.o(.text)
    EXTI4_IRQHandler                         0x0800011f   Thumb Code     0  startup_stm32f10x_md.o(.text)
    EXTI9_5_IRQHandler                       0x0800011f   Thumb Code     0  startup_stm32f10x_md.o(.text)
    FLASH_IRQHandler                         0x0800011f   Thumb Code     0  startup_stm32f10x_md.o(.text)
    I2C1_ER_IRQHandler                       0x0800011f   Thumb Code     0  startup_stm32f10x_md.o(.text)
    I2C1_EV_IRQHandler                       0x0800011f   Thumb Code     0  startup_stm32f10x_md.o(.text)
    I2C2_ER_IRQHandler                       0x0800011f   Thumb Code     0  startup_stm32f10x_md.o(.text)
    I2C2_EV_IRQHandler                       0x0800011f   Thumb Code     0  startup_stm32f10x_md.o(.text)
    PVD_IRQHandler                           0x0800011f   Thumb Code     0  startup_stm32f10x_md.o(.text)
    RCC_IRQHandler                           0x0800011f   Thumb Code     0  startup_stm32f10x_md.o(.text)
    RTCAlarm_IRQHandler                      0x0800011f   Thumb Code     0  startup_stm32f10x_md.o(.text)
    RTC_IRQHandler                           0x0800011f   Thumb Code     0  startup_stm32f10x_md.o(.text)
    SPI1_IRQHandler                          0x0800011f   Thumb Code     0  startup_stm32f10x_md.o(.text)
    SPI2_IRQHandler                          0x0800011f   Thumb Code     0  startup_stm32f10x_md.o(.text)
    TAMPER_IRQHandler                        0x0800011f   Thumb Code     0  startup_stm32f10x_md.o(.text)
    TIM1_BRK_IRQHandler                      0x0800011f   Thumb Code     0  startup_stm32f10x_md.o(.text)
    TIM1_CC_IRQHandler                       0x0800011f   Thumb Code     0  startup_stm32f10x_md.o(.text)
    TIM1_TRG_COM_IRQHandler                  0x0800011f   Thumb Code     0  startup_stm32f10x_md.o(.text)
    TIM1_UP_IRQHandler                       0x0800011f   Thumb Code     0  startup_stm32f10x_md.o(.text)
    TIM2_IRQHandler                          0x0800011f   Thumb Code     0  startup_stm32f10x_md.o(.text)
    TIM3_IRQHandler                          0x0800011f   Thumb Code     0  startup_stm32f10x_md.o(.text)
    TIM4_IRQHandler                          0x0800011f   Thumb Code     0  startup_stm32f10x_md.o(.text)
    USBWakeUp_IRQHandler                     0x0800011f   Thumb Code     0  startup_stm32f10x_md.o(.text)
    USB_HP_CAN1_TX_IRQHandler                0x0800011f   Thumb Code     0  startup_stm32f10x_md.o(.text)
    USB_LP_CAN1_RX0_IRQHandler               0x0800011f   Thumb Code     0  startup_stm32f10x_md.o(.text)
    WWDG_IRQHandler                          0x0800011f   Thumb Code     0  startup_stm32f10x_md.o(.text)
    __scatterload                            0x08000129   Thumb Code    28  init.o(.text)
    __scatterload_rt2                        0x08000129   Thumb Code     0  init.o(.text)
    BusFault_Handler                         0x0800014d   Thumb Code     2  stm32f10x_it.o(i.BusFault_Handler)
    DebugMon_Handler                         0x0800014f   Thumb Code     2  stm32f10x_it.o(i.DebugMon_Handler)
    GPIO_Init                                0x08000151   Thumb Code   166  stm32f10x_gpio.o(i.GPIO_Init)
    GPIO_WriteBit                            0x080001f7   Thumb Code    12  stm32f10x_gpio.o(i.GPIO_WriteBit)
    HardFault_Handler                        0x08000203   Thumb Code     2  stm32f10x_it.o(i.HardFault_Handler)
    MemManage_Handler                        0x08000205   Thumb Code     2  stm32f10x_it.o(i.MemManage_Handler)
    NMI_Handler                              0x08000207   Thumb Code     2  stm32f10x_it.o(i.NMI_Handler)
    NVIC_Init                                0x08000209   Thumb Code    96  misc.o(i.NVIC_Init)
    NVIC_PriorityGroupConfig                 0x0800026d   Thumb Code    10  misc.o(i.NVIC_PriorityGroupConfig)
    PendSV_Handler                           0x080002a1   Thumb Code     2  stm32f10x_it.o(i.PendSV_Handler)
    RCC_APB1PeriphClockCmd                   0x080002a5   Thumb Code    22  stm32f10x_rcc.o(i.RCC_APB1PeriphClockCmd)
    RCC_APB2PeriphClockCmd                   0x080002c1   Thumb Code    22  stm32f10x_rcc.o(i.RCC_APB2PeriphClockCmd)
    RCC_GetClocksFreq                        0x080002dd   Thumb Code   154  stm32f10x_rcc.o(i.RCC_GetClocksFreq)
    SVC_Handler                              0x08000389   Thumb Code     2  stm32f10x_it.o(i.SVC_Handler)
    SysTick_Handler                          0x08000441   Thumb Code     4  bsp_cpu.o(i.SysTick_Handler)
    SystemInit                               0x08000445   Thumb Code    64  system_stm32f10x.o(i.SystemInit)
    USART1_IRQHandler                        0x08000495   Thumb Code   152  bsp_uart.o(i.USART1_IRQHandler)
    USART2_IRQHandler                        0x08000531   Thumb Code   152  bsp_uart.o(i.USART2_IRQHandler)
    USART3_IRQHandler                        0x080005cd   Thumb Code   152  bsp_uart.o(i.USART3_IRQHandler)
    USART_ClearFlag                          0x08000669   Thumb Code     8  stm32f10x_usart.o(i.USART_ClearFlag)
    USART_Cmd                                0x08000671   Thumb Code    24  stm32f10x_usart.o(i.USART_Cmd)
    USART_GetITStatus                        0x08000689   Thumb Code    64  stm32f10x_usart.o(i.USART_GetITStatus)
    USART_ITConfig                           0x080006c9   Thumb Code    54  stm32f10x_usart.o(i.USART_ITConfig)
    USART_Init                               0x08000701   Thumb Code   182  stm32f10x_usart.o(i.USART_Init)
    USART_ReceiveData                        0x080007bd   Thumb Code     8  stm32f10x_usart.o(i.USART_ReceiveData)
    USART_SendData                           0x080007c5   Thumb Code     8  stm32f10x_usart.o(i.USART_SendData)
    UsageFault_Handler                       0x080007cd   Thumb Code     2  stm32f10x_it.o(i.UsageFault_Handler)
    __scatterload_copy                       0x080007cf   Thumb Code    14  handlers.o(i.__scatterload_copy)
    __scatterload_null                       0x080007dd   Thumb Code     2  handlers.o(i.__scatterload_null)
    __scatterload_zeroinit                   0x080007df   Thumb Code    14  handlers.o(i.__scatterload_zeroinit)
    bsp_init                                 0x080007ed   Thumb Code    22  bsp.o(i.bsp_init)
    bsp_periph_clock_enable                  0x08000805   Thumb Code    24  bsp.o(i.bsp_periph_clock_enable)
    cpu_enter_critical                       0x08000821   Thumb Code    24  bsp_cpu.o(i.cpu_enter_critical)
    cpu_exit_critical                        0x0800083d   Thumb Code    24  bsp_cpu.o(i.cpu_exit_critical)
    cpu_init                                 0x08000859   Thumb Code    64  bsp_cpu.o(i.cpu_init)
    led_init                                 0x080008b9   Thumb Code    74  bsp_led.o(i.led_init)
    main                                     0x08000935   Thumb Code    10  main.o(i.main)
    ringbuffer_data_size                     0x0800093f   Thumb Code    58  ringbuffer.o(i.ringbuffer_data_size)
    ringbuffer_get_char                      0x08000979   Thumb Code    72  ringbuffer.o(i.ringbuffer_get_char)
    ringbuffer_init                          0x080009c1   Thumb Code    38  ringbuffer.o(i.ringbuffer_init)
    ringbuffer_put_char                      0x080009e7   Thumb Code    70  ringbuffer.o(i.ringbuffer_put_char)
    ringbuffer_status                        0x08000a3f   Thumb Code    32  ringbuffer.o(i.ringbuffer_status)
    timer_ticks                              0x08000a61   Thumb Code   246  soft_timer.o(i.timer_ticks)
    uart_config                              0x08000b5d   Thumb Code    56  bsp_uart.o(i.uart_config)
    uart_init                                0x08000c21   Thumb Code   110  bsp_uart.o(i.uart_init)
    Region$$Table$$Base                      0x08000d00   Number         0  anon$$obj.o(Region$$Table)
    Region$$Table$$Limit                     0x08000d20   Number         0  anon$$obj.o(Region$$Table)
    led_ctl                                  0x20000024   Data          24  bsp_led.o(.bss)
    uart1_tx_rb                              0x200000bc   Data          12  bsp_uart.o(.bss)
    uart1_rx_rb                              0x200000c8   Data          12  bsp_uart.o(.bss)
    uart1_tx_buf                             0x200000d4   Data         512  bsp_uart.o(.bss)
    uart1_rx_buf                             0x200002d4   Data        2048  bsp_uart.o(.bss)
    uart2_tx_rb                              0x20000ad4   Data          12  bsp_uart.o(.bss)
    uart2_rx_rb                              0x20000ae0   Data          12  bsp_uart.o(.bss)
    uart2_tx_buf                             0x20000aec   Data         512  bsp_uart.o(.bss)
    uart2_rx_buf                             0x20000cec   Data         512  bsp_uart.o(.bss)
    uart3_tx_rb                              0x20000eec   Data          12  bsp_uart.o(.bss)
    uart3_rx_rb                              0x20000ef8   Data          12  bsp_uart.o(.bss)
    uart3_tx_buf                             0x20000f04   Data         512  bsp_uart.o(.bss)
    uart3_rx_buf                             0x20001104   Data         512  bsp_uart.o(.bss)
    __initial_sp                             0x20002308   Data           0  startup_stm32f10x_md.o(STACK)



==============================================================================

Memory Map of the image

  Image Entry point : 0x080000ed

  Load Region LR_IROM1 (Base: 0x08000000, Size: 0x00000d44, Max: 0x00002400, ABSOLUTE)

    Execution Region ER_IROM1 (Exec base: 0x08000000, Load base: 0x08000000, Size: 0x00000d20, Max: 0x00002400, ABSOLUTE)

    Exec Addr    Load Addr    Size         Type   Attr      Idx    E Section Name        Object

    0x08000000   0x08000000   0x000000ec   Data   RO          193    RESET               startup_stm32f10x_md.o
    0x080000ec   0x080000ec   0x00000000   Code   RO         2146  * .ARM.Collect$$$$00000000  mc_w.l(entry.o)
    0x080000ec   0x080000ec   0x00000004   Code   RO         2211    .ARM.Collect$$$$00000001  mc_w.l(entry2.o)
    0x080000f0   0x080000f0   0x00000004   Code   RO         2214    .ARM.Collect$$$$00000004  mc_w.l(entry5.o)
    0x080000f4   0x080000f4   0x00000000   Code   RO         2216    .ARM.Collect$$$$00000008  mc_w.l(entry7b.o)
    0x080000f4   0x080000f4   0x00000000   Code   RO         2218    .ARM.Collect$$$$0000000A  mc_w.l(entry8b.o)
    0x080000f4   0x080000f4   0x00000008   Code   RO         2219    .ARM.Collect$$$$0000000B  mc_w.l(entry9a.o)
    0x080000fc   0x080000fc   0x00000004   Code   RO         2226    .ARM.Collect$$$$0000000E  mc_w.l(entry12b.o)
    0x08000100   0x08000100   0x00000000   Code   RO         2221    .ARM.Collect$$$$0000000F  mc_w.l(entry10a.o)
    0x08000100   0x08000100   0x00000000   Code   RO         2223    .ARM.Collect$$$$00000011  mc_w.l(entry11a.o)
    0x08000100   0x08000100   0x00000004   Code   RO         2212    .ARM.Collect$$$$00002712  mc_w.l(entry2.o)
    0x08000104   0x08000104   0x00000024   Code   RO          194    .text               startup_stm32f10x_md.o
    0x08000128   0x08000128   0x00000024   Code   RO         2245    .text               mc_w.l(init.o)
    0x0800014c   0x0800014c   0x00000002   Code   RO          130    i.BusFault_Handler  stm32f10x_it.o
    0x0800014e   0x0800014e   0x00000002   Code   RO          131    i.DebugMon_Handler  stm32f10x_it.o
    0x08000150   0x08000150   0x000000a6   Code   RO          510    i.GPIO_Init         stm32f10x_gpio.o
    0x080001f6   0x080001f6   0x0000000c   Code   RO          521    i.GPIO_WriteBit     stm32f10x_gpio.o
    0x08000202   0x08000202   0x00000002   Code   RO          132    i.HardFault_Handler  stm32f10x_it.o
    0x08000204   0x08000204   0x00000002   Code   RO          133    i.MemManage_Handler  stm32f10x_it.o
    0x08000206   0x08000206   0x00000002   Code   RO          134    i.NMI_Handler       stm32f10x_it.o
    0x08000208   0x08000208   0x00000064   Code   RO          198    i.NVIC_Init         misc.o
    0x0800026c   0x0800026c   0x00000014   Code   RO          199    i.NVIC_PriorityGroupConfig  misc.o
    0x08000280   0x08000280   0x00000020   Code   RO         1981    i.NVIC_SetPriority  bsp_cpu.o
    0x080002a0   0x080002a0   0x00000002   Code   RO          135    i.PendSV_Handler    stm32f10x_it.o
    0x080002a2   0x080002a2   0x00000002   PAD
    0x080002a4   0x080002a4   0x0000001c   Code   RO          662    i.RCC_APB1PeriphClockCmd  stm32f10x_rcc.o
    0x080002c0   0x080002c0   0x0000001c   Code   RO          664    i.RCC_APB2PeriphClockCmd  stm32f10x_rcc.o
    0x080002dc   0x080002dc   0x000000ac   Code   RO          672    i.RCC_GetClocksFreq  stm32f10x_rcc.o
    0x08000388   0x08000388   0x00000002   Code   RO          136    i.SVC_Handler       stm32f10x_it.o
    0x0800038a   0x0800038a   0x00000004   Code   RO           17    i.SetSysClock       system_stm32f10x.o
    0x0800038e   0x0800038e   0x00000002   PAD
    0x08000390   0x08000390   0x000000b0   Code   RO           18    i.SetSysClockTo72   system_stm32f10x.o
    0x08000440   0x08000440   0x00000004   Code   RO         1982    i.SysTick_Handler   bsp_cpu.o
    0x08000444   0x08000444   0x00000050   Code   RO           20    i.SystemInit        system_stm32f10x.o
    0x08000494   0x08000494   0x0000009c   Code   RO         2040    i.USART1_IRQHandler  bsp_uart.o
    0x08000530   0x08000530   0x0000009c   Code   RO         2041    i.USART2_IRQHandler  bsp_uart.o
    0x080005cc   0x080005cc   0x0000009c   Code   RO         2042    i.USART3_IRQHandler  bsp_uart.o
    0x08000668   0x08000668   0x00000008   Code   RO         1408    i.USART_ClearFlag   stm32f10x_usart.o
    0x08000670   0x08000670   0x00000018   Code   RO         1412    i.USART_Cmd         stm32f10x_usart.o
    0x08000688   0x08000688   0x00000040   Code   RO         1416    i.USART_GetITStatus  stm32f10x_usart.o
    0x080006c8   0x080006c8   0x00000036   Code   RO         1418    i.USART_ITConfig    stm32f10x_usart.o
    0x080006fe   0x080006fe   0x00000002   PAD
    0x08000700   0x08000700   0x000000bc   Code   RO         1419    i.USART_Init        stm32f10x_usart.o
    0x080007bc   0x080007bc   0x00000008   Code   RO         1426    i.USART_ReceiveData  stm32f10x_usart.o
    0x080007c4   0x080007c4   0x00000008   Code   RO         1429    i.USART_SendData    stm32f10x_usart.o
    0x080007cc   0x080007cc   0x00000002   Code   RO          137    i.UsageFault_Handler  stm32f10x_it.o
    0x080007ce   0x080007ce   0x0000000e   Code   RO         2257    i.__scatterload_copy  mc_w.l(handlers.o)
    0x080007dc   0x080007dc   0x00000002   Code   RO         2258    i.__scatterload_null  mc_w.l(handlers.o)
    0x080007de   0x080007de   0x0000000e   Code   RO         2259    i.__scatterload_zeroinit  mc_w.l(handlers.o)
    0x080007ec   0x080007ec   0x00000016   Code   RO         1901    i.bsp_init          bsp.o
    0x08000802   0x08000802   0x00000002   PAD
    0x08000804   0x08000804   0x0000001c   Code   RO         1902    i.bsp_periph_clock_enable  bsp.o
    0x08000820   0x08000820   0x0000001c   Code   RO         1983    i.cpu_enter_critical  bsp_cpu.o
    0x0800083c   0x0800083c   0x0000001c   Code   RO         1984    i.cpu_exit_critical  bsp_cpu.o
    0x08000858   0x08000858   0x00000048   Code   RO         1985    i.cpu_init          bsp_cpu.o
    0x080008a0   0x080008a0   0x00000018   Code   RO         1935    i.gpio_config       bsp_led.o
    0x080008b8   0x080008b8   0x00000058   Code   RO         1936    i.led_init          bsp_led.o
    0x08000910   0x08000910   0x00000024   Code   RO         1938    i.led_set_state     bsp_led.o
    0x08000934   0x08000934   0x0000000a   Code   RO         2134    i.main              main.o
    0x0800093e   0x0800093e   0x0000003a   Code   RO         1810    i.ringbuffer_data_size  ringbuffer.o
    0x08000978   0x08000978   0x00000048   Code   RO         1811    i.ringbuffer_get_char  ringbuffer.o
    0x080009c0   0x080009c0   0x00000026   Code   RO         1812    i.ringbuffer_init   ringbuffer.o
    0x080009e6   0x080009e6   0x00000046   Code   RO         1813    i.ringbuffer_put_char  ringbuffer.o
    0x08000a2c   0x08000a2c   0x00000012   Code   RO         1814    i.ringbuffer_space_size  ringbuffer.o
    0x08000a3e   0x08000a3e   0x00000020   Code   RO         1815    i.ringbuffer_status  ringbuffer.o
    0x08000a5e   0x08000a5e   0x00000002   PAD
    0x08000a60   0x08000a60   0x000000fc   Code   RO         1863    i.timer_ticks       soft_timer.o
    0x08000b5c   0x08000b5c   0x0000003c   Code   RO         2044    i.uart_config       bsp_uart.o
    0x08000b98   0x08000b98   0x00000032   Code   RO         2045    i.uart_config_gpio  bsp_uart.o
    0x08000bca   0x08000bca   0x00000014   Code   RO         2046    i.uart_config_nvic  bsp_uart.o
    0x08000bde   0x08000bde   0x00000002   PAD
    0x08000be0   0x08000be0   0x00000040   Code   RO         2047    i.uart_config_param  bsp_uart.o
    0x08000c20   0x08000c20   0x00000088   Code   RO         2049    i.uart_init         bsp_uart.o
    0x08000ca8   0x08000ca8   0x00000058   Data   RO         2055    .constdata          bsp_uart.o
    0x08000d00   0x08000d00   0x00000020   Data   RO         2255    Region$$Table       anon$$obj.o


    Execution Region RW_IRAM1 (Exec base: 0x20000000, Load base: 0x08000d20, Size: 0x00002308, Max: 0x00005000, ABSOLUTE)

    Exec Addr    Load Addr    Size         Type   Attr      Idx    E Section Name        Object

    0x20000000   0x08000d20   0x00000014   Data   RW          692    .data               stm32f10x_rcc.o
    0x20000014   0x08000d34   0x00000008   Data   RW         1864    .data               soft_timer.o
    0x2000001c   0x08000d3c   0x00000008   Data   RW         1989    .data               bsp_cpu.o
    0x20000024        -       0x00000018   Zero   RW         1940    .bss                bsp_led.o
    0x2000003c        -       0x000012c8   Zero   RW         2054    .bss                bsp_uart.o
    0x20001304   0x08000d44   0x00000004   PAD
    0x20001308        -       0x00001000   Zero   RW          191    STACK               startup_stm32f10x_md.o


==============================================================================

Image component sizes


      Code (inc. data)   RO Data    RW Data    ZI Data      Debug   Object Name

        50          4          0          0          0       2381   bsp.o
       164         16          0          8          0      18065   bsp_cpu.o
       148         24          0          0         24       2409   bsp_led.o
       798         48         88          0       4808      13421   bsp_uart.o
         0          0          0          0          0       4564   core_cm3.o
        10          0          0          0          0        439   main.o
       120         14          0          0          0       1551   misc.o
       288          0          0          0          0       4721   ringbuffer.o
       252          6          0          8          0       2582   soft_timer.o
        36          8        236          0       4096        808   startup_stm32f10x_md.o
       178          0          0          0          0       2588   stm32f10x_gpio.o
        16          0          0          0          0       3524   stm32f10x_it.o
       228         30          0         20          0       4562   stm32f10x_rcc.o
       354          6          0          0          0       6321   stm32f10x_usart.o
       260         26          0          0          0     228473   system_stm32f10x.o

    ----------------------------------------------------------------------
      2914        182        356         36       8932     296409   Object Totals
         0          0         32          0          0          0   (incl. Generated)
        12          0          0          0          4          0   (incl. Padding)

    ----------------------------------------------------------------------

      Code (inc. data)   RO Data    RW Data    ZI Data      Debug   Library Member Name

         0          0          0          0          0          0   entry.o
         0          0          0          0          0          0   entry10a.o
         0          0          0          0          0          0   entry11a.o
         4          0          0          0          0          0   entry12b.o
         8          4          0          0          0          0   entry2.o
         4          0          0          0          0          0   entry5.o
         0          0          0          0          0          0   entry7b.o
         0          0          0          0          0          0   entry8b.o
         8          4          0          0          0          0   entry9a.o
        30          0          0          0          0          0   handlers.o
        36          8          0          0          0         68   init.o

    ----------------------------------------------------------------------
        90         16          0          0          0         68   Library Totals
         0          0          0          0          0          0   (incl. Padding)

    ----------------------------------------------------------------------

      Code (inc. data)   RO Data    RW Data    ZI Data      Debug   Library Name

        90         16          0          0          0         68   mc_w.l

    ----------------------------------------------------------------------
        90         16          0          0          0         68   Library Totals

    ----------------------------------------------------------------------

==============================================================================


      Code (inc. data)   RO Data    RW Data    ZI Data      Debug   

      3004        198        356         36       8932     294237   Grand Totals
      3004        198        356         36       8932     294237   ELF Image Totals
      3004        198        356         36          0          0   ROM Totals

==============================================================================

    Total RO  Size (Code + RO Data)                 3360 (   3.28kB)
    Total RW  Size (RW Data + ZI Data)              8968 (   8.76kB)
    Total ROM Size (Code + RO Data + RW Data)       3396 (   3.32kB)

==============================================================================

