:020000040800F2
:10000000C022002025010008970900089309000874
:1000100095090008E1070008490E000800000000EB
:100020000000000000000000000000003D0B000880
:10003000E307000800000000310A0008F50B000883
:100040003F0100083F0100083F0100083F01000890
:100050003F0100083F0100083F0100083F01000880
:100060003F0100083F0100083F0100083F01000870
:100070003F0100083F0100083F0100083F01000860
:100080003F0100083F0100083F0100083F01000850
:100090003F0100083F0100083F0100083F01000840
:1000A0003F0100083F0100083F0100083F01000830
:1000B0003F0100083F0100083F0100083F01000820
:1000C0003F0100083F0100083F0100083F01000810
:1000D0003F010008490C00083F0100083F010008EB
:1000E0003F0100083F0100083F010008DFF810D081
:1000F00000F0C8FA004800475D190008AFF300801F
:10010000C0220020EFF30980704780F30988704710
:10011000EFF30880704780F30888704740BA704753
:10012000C0BA70470648804706480047FEE7FEE72A
:10013000FEE7FEE7FEE7FEE7FEE7FEE7FEE7FEE797
:10014000F90B0008ED00000840EA01039B0703D00B
:1001500009E008C9121F08C0042AFAD203E011F806
:10016000013B00F8013B521EF9D270472DE9F047E0
:1001700091460F4680460446002614F8015B2DB1D7
:1001800000F074F80068405DC007F6D12B2D02D056
:100190002D2D18D0641E4A463946204600F06AF8D4
:1001A00027B13968A14201D1C7F8008071054FF02D
:1001B00002040BD54042002803DD00F057FE046026
:1001C000A007BDE8F08746F48066E4E70028F8DA87
:1001D00000F04CFE04606FF00040F2E730B50B46D3
:1001E000014600202022012409E021FA02F59D4267
:1001F00005D303FA02F5491B04FA02F52844151E3B
:10020000A2F10102F1DC30BD2DE9F05F05460020CE
:1002100092469B4688460646814640241BE0284677
:1002200041464746224600F04EFA53465A46C01A07
:10023000914110D311461846224600F035FA2D1A86
:1002400067EB01084F4622460120002100F02CFAFE
:1002500017EB00094E41201EA4F10104DFDC4846E3
:1002600031462A464346BDE8F09F000000487047EB
:10027000202200082DE9F05F82460078002715460D
:100280008B460AF10104B946302801D09DB113E034
:1002900014F8010B0127782803D0582801D045B164
:1002A0000AE00DB1102D07D10027102514F8010B1D
:1002B00002E0082500E00A250026B0460EE005FB16
:1002C000080005FB06F1012701EB10461FFA80F834
:1002D000B6F5803F00D3B94614F8010B294600F06B
:1002E00014FA0028EBDABBF1000F05D00FB1641E41
:1002F00000E05446CBF80040B9F1000F06D000F002
:10030000B5FD02210160C81EBDE8F09F48EA064025
:10031000FAE72DE9FE4F804681EA0300C00F0C4644
:10032000009021F0004123F00045B8EB0200A94104
:1003300005D24046214690461C460B46024623F015
:100340000040104347D0270DC7F30A00C3F30A51FA
:100350000290401A019040286BDAC3F3130040F476
:10036000801B0098924620B10023D2EB030A63EB76
:100370000B0B01985946C0F14002504600F094F929
:1003800006460D4650465946019A00F0ACF910EB6E
:1003900008006141002487EA115284EAE7731A4396
:1003A00040D0009A62B3019A012A4FEA075215DC45
:1003B000001B61EB02014FF0004202EA0752CDE957
:1003C0000042001C41F5801132462B4600F0BAF97C
:1003D00003B0BDE8F08F40462146F9E7001B61EB12
:1003E0000201001C41F5801300185B412018A2F5A2
:1003F000001747EB030140EAD570B6196D4111E0D3
:100400006D084FEA360645EAC0754FEA0752001BF1
:1004100061EB0201001C41F5801149084FEA3000F0
:100420000019514132462B4603B0BDE8F04F00F0B1
:100430007AB90098012240000023D0EB020263EB5E
:10044000E073009821464FEAE074B8EB000061EBDE
:100450000401E9E783F000435BE781F0004158E7DE
:100460002DE9FE4F81EA030404F0004421F000412D
:1004700000944FF0000B23F0004350EA01045ED0DB
:1004800052EA03045BD0C3F30A54C1F30A552C4467
:10049000A4F2F3340194A0FB0254C1F3130141F41C
:1004A0008011C3F3130343F4801301FB024400FBE8
:1004B000034E840A970A44EA815447EA8357A4FB0F
:1004C000076802958D0A05FB07854FEA932C04FB0C
:1004D0000C542705029D4FEA065847EA1637B5EB3C
:1004E00008056EEB070C870E920E47EA811742EA69
:1004F0008312A7FB0201B6EB0B0164EB00042B0D8A
:1005000043EA0C335E1844EB1C50DA465146E7FBD5
:100510000201C5F313044FEA0B3343EA14534FEAC5
:100520000432019C43EA0603A4F10C040294009CEB
:10053000CDE900B400F006F903B0BDE8F08F00206B
:100540000146F9E72DE9F04D81EA030404F0004B80
:1005500021F0004514464FF0000A23F0004150EA14
:10056000050220D054EA01021DD0C5F30A57024605
:10057000C5F31303C1F31300C1F30A5640F4801509
:1005800043F48013A7EB0608101BD64608F2FD388B
:1005900073EB050002D308F1010801E092185B41FA
:1005A000B8F1000F03DA00200146BDE8F08D00200D
:1005B0004FF48011064684460EE0171B73EB0507C7
:1005C00005D3121B63EB050306434CEA010C4908F3
:1005D0004FEA300092185B4150EA0107EDD152EA30
:1005E000030012D082EA040083EA0501084305D023
:1005F000101BAB4106D20122002306E000224FF07F
:10060000004302E06FF0010253101AEB06004CEBBE
:10061000085110EB0A0041EB0B01BDE8F04D00F072
:1006200082B8C1F30A52C1F3130140F2FF3341F41F
:1006300080119A4202DA00200146704740F23343AB
:100640009A42A2F2334202DC524200F03CB800F07F
:100650002BB8000030B5041E71F1000404DB4FF02C
:100660000044404264EB0101141E73F1000405DBF9
:100670001C464FF00043524263EB0403994208BF0B
:10068000904230BD064C074D06E0E06840F00103A3
:1006900094E8070098471034AC42F6D3FFF72AFDE0
:1006A0002422000844220008202A04DB203A00FA11
:1006B00002F1002070479140C2F1200320FA03F3B9
:1006C000194390407047202A04DB203A21FA02F0B7
:1006D0000021704721FA02F3D040C2F1200291407C
:1006E000084319467047202A06DBCB17203A41FA07
:1006F00002F043EAE07306E041FA02F3D040C2F1AF
:10070000200291400843194670473A2800D23038F9
:1007100020F02002412A01D3A2F13700884201D300
:100720004FF0FF30704710B5141E73F1000408DA63
:10073000401C41F1000192185B411A4301D120F0A5
:10074000010010BD2DE9F04D92469B4611B1B1FA62
:1007500081F202E0B0FA80F220329046FFF7A4FF67
:1007600004460F4640EA0A0041EA0B0153465A4646
:10077000084313D0114653EA010019D0C8F14002D2
:100780005046FFF7A0FF05460E46504659464246E2
:10079000FFF78AFF084305D0012004E020463946D0
:1007A000BDE8F08D0020054346EAE0762C43374350
:1007B0000A986305E40AA0EB08000022FD0A44EA57
:1007C00047540A3002D500200146E9E70105101917
:1007D0006941DDE9084500196941BDE8F04DA2E72E
:1007E000FEE7704770B505464FF43026304600F0FE
:1007F0006DF8042811D1094C206940F002002061F5
:100800006561206940F040002061304600F05EF8EC
:10081000216941F6FD721140216170BD0020024046
:1008200004200849CA68D20701D001207047CA686D
:10083000520701D502207047C968C906FBD50320BD
:1008400070470000002002400248016941F0800129
:1008500001617047002002402DE9F84105460E462F
:10086000002000904FF40057384600F02FF804287D
:100870000FD10F4C206940F0010020612E80B84656
:10088000404600F023F8BF1E042804D021693940F7
:100890002161BDE8F881AD1C00950099300C0880FD
:1008A000404600F013F8216939402161F1E700006A
:1008B00000200240034802494160034941607047FB
:1008C0002301674500200240AB89EFCD00B5034608
:1008D000FFF7A6FF02E0FFF7A3FF5B1E012801D18F
:1008E000002BF8D1002B00D1052000BD2DE9F041EF
:1008F0000022CC7804F00F03E40601D58C78234362
:100900000C784FF00F0714F0FF0F4FF0010C1CD0C4
:1009100005680CFA02F40E882640A64211D1960012
:1009200007FA06F825EA080503FA06F848EA050575
:10093000CE78282E02D0482E02D002E0446100E09A
:100940000461521C082AE4D305600A88FF2A1ED9D4
:100950004568002202F108060CFA06F40E882640CB
:10096000A64210D1960007FA06F825EA080503FA10
:1009700006F848EA0505CE78282E00D14461CE78E5
:10098000482E00D10461521C082AE3D34560BDE81B
:10099000F081FEE7FEE7704770B50F23C2780126AD
:1009A0000178002A1ED0144A126802F4E062C2F5EF
:1009B000E062120AC2F10404D3404578A54082786F
:1009C0001A402A43120101F1E02181F80024007845
:1009D00000F01F018E404009800000F1E020C0F8C7
:1009E000006170BD01F01F0086404809800000F1E1
:1009F000E020C0F8806170BD0CED00E002490843C2
:100A000002490860704700000000FA050CED00E0A4
:100A10000907090E002806DA00F00F0000F1E020B7
:100A200080F8141D704700F1E02080F80014704732
:100A300070470000054A002903D091690143916184
:100A40007047916981439161704700000010024036
:100A50000C48016841F00101016041680A4A1140F7
:100A600041600168094A11400160016821F4802158
:100A70000160416821F4FE0141604FF41F01816073
:100A800070470000001002400000FFF8FFFFF6FE74
:100A900010B5264A516801F00C01254B002927D0DA
:100AA000042927D0082927D00360516801F0F001FC
:100AB0000909204B5C5C0168E1404160546804F422
:100AC000E064240A1C5D21FA04F48460546804F490
:100AD0006054E40A1B5DD940C160526802F4404290
:100AE000920B144B1B1F9A5CB1FBF2F1016110BD1C
:100AF0000360DAE70360D8E7516801F470115368C6
:100B000003F48033022404EB914133B153689B0317
:100B100007D5094B59430160C7E7074B59430160AB
:100B2000C3E7034B59430160BFE7000000100240D8
:100B300000127A000400002000093D00704700F018
:100B400001B800000CB5002201920092274801680C
:100B500041F4803101604FF4A063016801F4003179
:100B600000910199491C0191009911B9019999428B
:100B7000F3D10168890302D50121009100E00092C0
:100B80000099012930D11A490A6842F010020A601E
:100B90000A6822F003020A600A6842F002020A6050
:100BA0004168416041684160416841F48061416051
:100BB000416821F47C114160416841F4E8114160D1
:100BC000016841F08071016001688901FCD54168CC
:100BD00021F003014160416841F002014160416838
:100BE000C1F381010229FAD10CBD000000100240BE
:100BF000002002407047000010B50F48016841F026
:100C00000101016041680D4A1140416001680C4AD0
:100C100011400160016821F480210160416821F4E4
:100C2000FE0141604FF41F018160FFF788FF054915
:100C30004FF00060086010BD001002400000FFF897
:100C4000FFFFF6FE08ED00E0F8B5254C40F2255117
:100C5000206800F057F858B1206800F0EDF8C5B2F0
:100C600000F06CFD2946606900F0DFFE00F074FDC5
:100C700040F227763146206800F044F840F22665BD
:100C800080B1206900F0FDFEF0B100F057FD69462B
:100C9000206900F093FE00F05FFD9DF800102068D1
:100CA00000F0CEF82946206800F02CF8002816D075
:100CB000206900F0E6FE002811D129462068BDE831
:100CC000F840002200F03EB800223146206800F0D3
:100CD00039F801222946206800F034F8E2E7F8BD2F
:100CE000741F00088A05C94301807047002904D099
:100CF000818941F4005181817047818921F400513B
:100D00008181704770B5002440F66A12C1F3421326
:100D100001F01F05012606FA05F2012B0CD0022B6B
:100D20000DD0838A1340090A8E40008830400BB1F1
:100D300000B10124204670BD83891340F3E7038A84
:100D40001340F0E710B540F66A13C1F3421301F007
:100D50001F040121A140012B07D0022B07D0143022
:100D60003AB102680A43026010BD0C30F8E7103057
:100D7000F6E702688A43026010BD000030B585B016
:100D800004460D46208A4CF6FF710840E98801436D
:100D90002182A0894EF6F3110840A9882A891143BF
:100DA0006A8902431143A181A08A4FF6FF4108409E
:100DB000A9890143A1826846FFF76AFE1D48844263
:100DC00001D1039800E00298A189090408D500EB3D
:100DD000C00101EB001029684900B0FBF1F007E009
:100DE00000EBC00101EB001029688900B0FBF1F0B5
:100DF0006422B0FBF2F109010B096FF018056B4397
:100E000000EB8300A3891D044FF0320307D503EBE9
:100E1000C000B0FBF2F000F00700084306E003EB6F
:100E20000010B0FBF2F000F00F000843208105B085
:100E300030BD0000003801408088C0F308007047D2
:100E4000C1F3080181807047FEE700000FB4054B35
:100E500010B503A9044A029800F0DEF810BC5DF852
:100E600014FB0000B918000820000020004870475B
:100E70002400002002E008C8121F08C1002AFAD18D
:100E800070477047002001E001C1121F002AFBD10A
:100E9000704700002DE9FF5F82B00021DDE90430DA
:100EA000020DDDF840B0034318D044F61050A2F212
:100EB000FF3242431514119801281FD0A5EB0B00F7
:100EC000401C5FEA000A4FF000064E4FDFF83891F1
:100ED000B046504615D5CAF1000413E0119801241C
:100EE0004AA3012801D16FEA0B010298119AC0E9C7
:100EF0000031C0E9024206B0BDE8F09FCBF100002E
:100F0000DFE704460021404A491842EB0450CDE98E
:100F1000001012E0E00707D032463B464046494603
:100F2000FFF79EFA8046894632463B4610461946F0
:100F3000FFF796FA06460F466410002CEAD1DDE969
:100F40000401DDE90023BAF1000F06DAFFF788FAA1
:100F500042464B46FFF784FA05E0FFF7F3FA4246B4
:100F60004B46FFF7EFFA04460E460022284BFFF7E8
:100F700071FB03D84FF0FF30014607E00022254BFC
:100F800020463146FFF7C5F9FFF74BFB102409E077
:100F9000002C0ADB0A220023FFF736F9039B3032CC
:100FA0001A55641E50EA0102F2D1641C039AC4F17E
:100FB00011031444119A012A03D0012208430DD1D0
:100FC0000AE0084304D000204FF0110B119072E7A3
:100FD000A3EB0B056D1E0DE05B4504DD4FF0000239
:100FE00005F1010504E003DA4FF00002A5F1010567
:100FF000002AECD002981199C0E90231C0E90045FD
:1010000079E70000000014400000F03F30000000CD
:101010000000F0430000E03F2DE9FF4F95B09A46F5
:10102000884606460025EEE1252877D1002427468C
:10103000F94A0121039400E0044316F8013F203BE4
:1010400001FA03F01042F7D130782A2811D06FF05E
:101050002F033078A0F13002092A16D8039A44F001
:10106000020402EB820203EB42021044761C03905E
:10107000EFE758F8042B0392002A03DA504244F4B5
:101080000054039044F00204761C30782E2816D1C8
:1010900016F8010F44F004042A280DD06FF02F0237
:1010A0003078A0F13003092B09D807EB870302EB56
:1010B0004303C718761CF3E758F8047B761C307896
:1010C0006C280FD006DC4C2817D068280DD06A2871
:1010D00014D104E0742810D07A280FD10DE044F424
:1010E00000140AE044F4801401E044F440147278DF
:1010F000824202D104F58014761C761C3078662872
:101100000BD013DC582877D009DC002875D045288F
:10111000F6D04628F4D047281AD193E118E0632886
:1011200035D0642879D0652812D18BE1702873D02E
:1011300008DC6728F1D069286FD06E280DD06F28A1
:1011400006D1ACE073282CD0752874D0782853D001
:101150005246179990476D1C54E1C4F3025002287F
:1011600009D003280DD0D8F8001004280DD00D6048
:1011700008F1040846E1D8F80010EA17C1E9005266
:10118000F6E7D8F800100D80F2E70D70F0E718F8D8
:10119000041B8DF8001000208DF80100EB460120A3
:1011A00003E058F804BB4FF0FF3061074FF0000137
:1011B00002D40DE009F101018946B9420FDA8145F7
:1011C000F8DB1BF809100029F4D108E009F101014E
:1011D00089468142FADB1BF809100029F6D10398F1
:1011E0005346A0EB090721463846179A00F080FACB
:1011F000284400EB090507E044E008E10DE01BF896
:10120000010B524617999047B9F10109F7D253469D
:1012100021463846179AF2E039E00A21C4F3025217
:101220004FF0000B0091022A06D058F8040BC117AA
:10123000032A09D00AE023E008F1070020F00702A2
:10124000F2E80201904605E000B2C117042A01D17C
:1012500040B2C117002906DA0A460021404261EB7C
:1012600002012D2202E0220504D52B228DF8042054
:10127000012203E0E20701D02022F7E7914657E080
:101280000A2100E010214FF0000B00910BE010212B
:101290004FF0000B44F004040827009103E00820FD
:1012A0004FF0000B0090C4F30252022A05D058F808
:1012B000040B0021032A08D008E008F1070020F001
:1012C0000702F2E80201904603E080B2042A00D14E
:1012D000C0B24FF0000922072AD53278702A07D011
:1012E000DDF800C08CF0100C5CEA0B0C05D00EE0B1
:1012F00040228DF80420012208E050EA010306D0C4
:1013000030238DF804308DF8052002229146009B91
:1013100083F0080353EA0B030AD150EA010201D11A
:10132000620705D530228DF804204FF001097F1E99
:101330003278582A04D039A20C920CAA02920BE0FF
:101340003BA2F9E75B46009AFEF75EFF0C9B9B5CB5
:10135000029A521E0292137050EA0102F2D10298D0
:1013600004A9081A00F1200B600702D524F4803488
:1013700000E001275F4502DDA7EB0B0000E0002045
:1013800000EB0B01009003984944401A0390E003DE
:1013900006D453462146179A039800F0A9F905444C
:1013A000002706E001A85246C05D179990476D1CC2
:1013B0007F1C4F45F6DBE0030CD553462146179AB8
:1013C000039800F095F9054404E03020524617993F
:1013D00090476D1C0099481E00900029F5DC08E03C
:1013E0000298029952460078491C02911799904739
:1013F0006D1CBBF10001ABF1010BF1DC5BE100F016
:1014000065F90544761C307800287FF40DAE19B0DC
:101410002846BDE8F08F0000092801003031323342
:101420003435363738396162636465660000000020
:10143000303132333435363738394142434445460A
:1014400000000000600700D4062708F1070020F024
:101450000700F0E80223804603F0004C5FEA0C002E
:1014600001D097A009E0200501D596A005E0E0078E
:1014700001D095A001E0AFF24C001390307823F03A
:10148000004365280CD006DC452809D046281DD02D
:1014900047287FD13BE0662818D067287AD136E00C
:1014A0000021112F01DB112000E0781CCDE90001A3
:1014B00004A90CA8FFF7EEFCDDE90D010C9A4FF032
:1014C000000B07F10109109200914EE04FF000402F
:1014D0000097CDE9011004A90CA8FFF7DBFCDDE9BA
:1014E0000D020C9B0F994FF0000B91461093009248
:1014F00011B9791C00EB0109B7EB090003D4C0F165
:10150000FF3B07F10109A9EB0700019042E0012F21
:1015100000DA01270021112F01DD112000E03846FB
:10152000CDE9000104A90CA8FFF7B4FCDDE90D0129
:101530000C9A00914FF0000BB946109221070FD47E
:10154000009A4A4503DA914601E0A9F10109B9F18F
:10155000010F05DD109AA9F10101515C3029F4D089
:10156000B84202DA10F1040F03DA0121CDE90110CB
:1015700010E0002803DC8344A9EB000102E0411CD9
:10158000494500DD8946A0EB0B00401C01904FF05F
:1015900000400290200705D40198484502DB4FF037
:1015A000FF30019000208DF84B0002980DF14B07A1
:1015B000B0F1004F25D002200C902B200D90029806
:1015C00000280CDA404202902D200D9007E00A21FD
:1015D0000298FEF703FE3031029007F8011D0C99C6
:1015E000481E0C900029F2DC02980028EFD1791EE9
:1015F0000D980870307800F0200040F0450007F8A2
:10160000020D11A8C01BC01D02901398007800B1F4
:10161000012000EB0901019801EBE07102980144FF
:101620000398401A401E0390E00306D45346214617
:10163000179A039800F05CF805441398007818B1E5
:101640005246179990476D1CE00323D55346214617
:10165000179A039800F04CF805441BE0BBF1000F0B
:1016600007DB0098584504DD1098179910F80B0017
:1016700001E0179930205246904701980BF1010B79
:10168000401E05F10105019004D12E205246179904
:1016900090476D1CB9F10001A9F10109DEDC05E0FC
:1016A00017F8010B5246179990476D1C0299481E76
:1016B00002900029F4DC53462146179A03989EE6CF
:1016C0002D0000002B000000200000002DE9F0415B
:1016D000044600251E461746880404D405E0394612
:1016E0002020B0476D1C641EF9D52846BDE8F08166
:1016F0002DE9F041044600251E469046C80301D559
:10170000302700E02027880404D505E0414638460C
:10171000B0476D1C641EF9D52846BDE8F08110B5B0
:1017200000F006F800F026F8BDE8104000F032BAEC
:10173000012144F20400FFF77DB90000054841682B
:10174000491C06D04168491C41604068012800D10D
:1017500072B670471400002005484168002906D081
:101760004168491E41604068002800D162B6704758
:101770001400002070B54FF44070FFF73FF94FF0B0
:10178000FF350F212846FFF743F94FF0E0240949C0
:1017900061610F212846FFF73BF90020A061072077
:1017A0002061FFF7CBFF044901200870FFF7D4FF49
:1017B000012070BD3F19010014000020012080F3BA
:1017C000138805480168054A01F4E061114301608E
:1017D000BFF34F8FFEE700000CED00E00400FA05B8
:1017E00010B502460020074B08E012F8014B84EACE
:1017F000102433F8144084EA002080B2491E4C1CA7
:10180000F3D110BD9C1F000870B503464FF48060F3
:101810004FF0FF35814201DD284670BD1468012C70
:101820000DD00A4619460C48FEF78EFC0B48A41E44
:1018300000EB8420084900F015F850B107E0814220
:1018400000DB01460A4619460548FEF77DFC0020EC
:1018500070BD284670BD0000BF0E002000280008A3
:10186000BF0A00202DE9F04105460F460126A5F1EB
:101870000060B0F5803F02D30020BDE8F081FFF7A3
:1018800019F82846FEF7AEFF042804D00026FEF71C
:10189000DBFF3046F1E7002407EB8400016805EB2D
:1018A0008400FEF7D9FF042801D00026EFE7641C6E
:1018B000A4B2FF2CF0D9EAE710B50446E1B200204B
:1018C00000F082F9204610BD70B51C4C20681C4900
:1018D0000840B0F1005F0AD01AA0FFF7B7FA4FF442
:1018E0007A7000F042F8BDE87040FFF767BF012052
:1018F00080F31088FFF7ACF84FF0E021002008617A
:1019000048618861421E810001F1E021C1F8802117
:10191000C1F88022401CC0B20828F4D3002080F314
:1019200010880648001D05682068FEF7F4FB0020BB
:1019300080F31488AC46BDE870406047002800087A
:101940000000FE2F4A756D7020746F20617070204A
:101950006572726F722E0D0A0000000010B5FFF75D
:10196000DEFE00F057F9002010BD30B504464FF4FC
:101970007A7502E0284600F0BBF9641E601CF9D1BC
:1019800030BD00B50346184600F07BF858B1012879
:101990000BD0DA8898885108B1EB500F07D9A1EB2A
:1019A000500080B200BD002000BD188900BD400875
:1019B0001989A0EB5200081A80B200BD30B5044668
:1019C0000D462046FFF7DDFF90B1A288206800EBAE
:1019D0005200007828702189A088491EB1EB500F71
:1019E00008D1C14361F3000000F00100A08007E0CE
:1019F000002030BD012101EB500161F34F00A080B8
:101A0000012030BD10B50379002403F0010364F315
:101A100000038380837903F0010364F30003C38030
:101A2000016022F00301018110BD70B504460D462E
:101A3000204600F01DF888B1E188206800EB5100D5
:101A400005702189E088491EB1EB500F08D1C143D0
:101A500061F3000000F00100E08007E0002070BDAD
:101A6000012101EB500161F34F00E080012070BDC6
:101A700010B504462046FFF784FF2189081A80B27A
:101A800010BD8188C0884A08B2EB500F07D1C90742
:101A9000B1EBC07F01D100207047012070470220C8
:101AA0007047000070B50D46002811D1094C206820
:101AB00000280DD062892189606800F00DF8294660
:101AC000206800F02DF8207BBDE8704000F01DB8C4
:101AD00070BD0000741F000838B505461446032386
:101AE0008DF80230ADF8001018218DF8031069460A
:101AF0002846FEF7FBFEADF8004004218DF80310E8
:101B000069462846FEF7F2FE38BD08B58DF800009C
:101B100001208DF803006846FEF73EFF08BD000077
:101B20007FB505460D4AD2E90734526ACDE9013442
:101B30000392009169462846FFF720F9012240F2FE
:101B400025512846FFF7FEF840212846FFF7CAF83E
:101B500001212846FFF7CAF87FBD0000741F000866
:101B600070B50D46002801D0002070BD084C60699A
:101B7000FFF707FF48B1FFF7E1FD29466069FFF76E
:101B80001DFFFFF7E9FD012070BD002070BD0000C2
:101B9000741F000810B54FF4E1310020FFF782FFF9
:101BA00007494FF48072A1F11800FFF72BFF054998
:101BB000BDE810404FF40062A1F58670FFF722BF28
:101BC000C0000020C001002013B5012201A900F0CF
:101BD00001F81CBD2DE9F0410E461746002815D12D
:101BE0000B4DFFF7ABFD002404E0315D2869FFF7E2
:101BF0001CFF641CBC42F8D3FFF7AEFD2868BDE8AB
:101C0000F041012240F22771FFF79CB8BDE8F08156
:101C1000741F000810B5184C18A0FFF717F96420BE
:101C2000FFF7A3FEA069401C20D11A4A1A491B489D
:101C300000F0AAF800281DD018492046FF31FFF710
:101C400011FE002816D016A0FFF700F916A0FFF726
:101C5000FDF812491CA0FFF7F9F80F4801681EA013
:101C6000FFF7F4F84FF4FA70FFF77FFEBDE810407D
:101C7000FFF72ABE10BD000000240008626F6F74D9
:101C80006C6F6164657220737461727475702E2E4E
:101C90002E0D0A00091800081C000020C0090020B1
:101CA0000D0A0D0A000000005468652066696C6525
:101CB00020646F776E6C6F61642073756363657306
:101CC000732E0D0A0000000046696C65206E616D80
:101CD000653A2025730D0A0046696C652073697AA0
:101CE000653A2025642062797465730D0A0D0A0037
:101CF000F0B500281DD000EBC000C600FFF71EFDA8
:101D00004FF0E027BC69FFF727FD7D696D1C0022BD
:101D10000DE0FFF713FDBB69FFF71EFDA34202D8DC
:101D2000E01A024402E0E81A204402441C46B2428F
:101D3000EFD3F0BDFEB51546C278002A02D00023CD
:101D4000C01C05E00020FEBD1A465B1C8C54401CE4
:101D500004780CB1FF2BF7DB0026CE540021401C89
:101D60006C4603E00A46491CA354401C0378202B10
:101D700001D00A29F6DB66540A2200216846FEF7E4
:101D8000F5F928600120FEBD2DE9F74FADF5826D14
:101D9000834691460026B04600240027A246CDF88F
:101DA00004A00025694602A800F081F888B1012846
:101DB00052D0002F00DD641C052C55DD182000F0EA
:101DC000D4F8182000F0D1F800200DF21C4DBDE829
:101DD000F08F00240099B1F1FF3F0AD071B1019852
:101DE0009DF80920C3B29A420DD0152000F0BDF82D
:101DF00042E0062000F0B9F80020E6E7062000F0F7
:101E0000B4F8012538E058B101AAD01DC847D8B1AF
:101E1000182000F0AAF8182000F0A7F80020D4E756
:101E2000594602A8DDF81424FFF784FF30B10620DC
:101E300000F09BF8432000F098F808E0062000F03E
:101E400094F80125A84617E0062000F08EF80198C6
:101E5000401C019001270FE0182000F086F81820A0
:101E600000F083F80020B0E73046761CF6B219285F
:101E700009D2432000F079F8002D93D0B8F1000F7B
:101E80008DD00120A1E700209FE770B505464FF4F3
:101E9000801406E029460020FFF762FE08B1012009
:101EA00070BD201EA4F10104F4DC002070BD2DE9FA
:101EB000F84305460F46002038606846FFF7E5FF07
:101EC0004FF0FF3858B19DF80020182A1BD009DCCC
:101ED000012A0DD0022A0DD0042A07D111E0404674
:101EE000BDE8F883412A1CD0612A1AD04046F7E7A2
:101EF000802601E04FF480662A70012406F105096E
:101F000017E00020ECE76846FFF7BFFF18B19DF827
:101F10000000182801D04046E2E7C7F80080002002
:101F2000DEE70120DCE72819FFF7AFFF58B1641C9A
:101F3000A4B24C45F7D3A978687881F0FF018842B4
:101F400003D04046CCE74046CAE7A8190179C078DB
:101F500041EA00243146E81CFFF742FCA04201D0D0
:101F60004046BDE73E600020BAE701460020FFF78B
:101F70002BBE0000003801400008014000020004B0
:101F800025000000A8000020B40000200000000090
:101F90000000000000000C00000000000000211004
:101FA000422063308440A550C660E77008812991C3
:101FB0004AA16BB18CC1ADD1CEE1EFF1311210026B
:101FC00073325222B5529442F772D6623993188313
:101FD0007BB35AA3BDD39CC3FFF3DEE36224433437
:101FE00020040114E664C774A44485546AA54BB563
:101FF00028850995EEE5CFF5ACC58DD5533672260B
:1020000011163006D776F6669556B4465BB77AA7B2
:1020100019973887DFF7FEE79DD7BCC7C448E55856
:102020008668A7784008611802282338CCC9EDD902
:102030008EE9AFF9488969990AA92BB9F55AD44AAA
:10204000B77A966A711A500A333A122AFDDBDCCB52
:10205000BFFB9EEB799B588B3BBB1AABA66C877C76
:10206000E44CC55C222C033C600C411CAEED8FFDA2
:10207000ECCDCDDD2AAD0BBD688D499D977EB66E4A
:10208000D55EF44E133E322E511E700E9FFFBEEFF2
:10209000DDDFFCCF1BBF3AAF599F788F8891A981B4
:1020A000CAB1EBA10CD12DC14EF16FE18010A1009E
:1020B000C230E3200450254046706760B98398938E
:1020C000FBA3DAB33DC31CD37FE35EF3B1029012EE
:1020D000F322D2323542145277625672EAB5CBA55A
:1020E000A89589856EF54FE52CD50DC5E234C3243E
:1020F000A01481046674476424540544DBA7FAB72E
:102100009987B8975FE77EF71DC73CD7D326F2368D
:102110009106B01657667676154634564CD96DC979
:102120000EF92FE9C899E9898AB9ABA944586548DD
:1021300006782768C018E1088238A3287DCB5CDBCD
:102140003FEB1EFBF98BD89BBBAB9ABB754A545A2D
:10215000376A167AF10AD01AB32A923A2EFD0FED99
:102160006CDD4DCDAABD8BADE89DC98D267C076C7D
:10217000645C454CA23C832CE01CC10C1FEF3EFF6D
:102180005DCF7CDF9BAFBABFD98FF89F176E367ECD
:10219000554E745E932EB23ED10EF01E004040406C
:1021A000404040404040414141414140404040402A
:1021B00040404040404040404040404040050202D6
:1021C0000202020202020202020202020220202095
:1021D00020202020202020020202020202029090F1
:1021E00090909090101010101010101010101010EF
:1021F0001010101010101010020202020202888843
:10220000888888880808080808080808080808084E
:102210000808080808080808020202024000000036
:102220009D21000844220008000000202800000032
:10223000740E00086C22000828000020982200007C
:10224000840E0008020406080000000001020304D6
:102250000102030406070809000000000000000056
:0C22600000000000000000000000000072
:04000005080000ED02
:00000001FF
