:020000040800F2
:1024000056312E302E3000000000000032303235C0
:0C2410002F30322F32330000000000009B
:020000040800F2
:10280000D019002005290008C32F0008BF2F000899
:10281000C12F0008692E0008553400080000000090
:10282000000000000000000000000000453100082A
:102830006B2E0008000000005D300008FD3100082C
:102840001F2900081F2900081F2900081F29000848
:102850001F2900081F2900081F2900081F29000838
:102860001F2900081F2900081F2900081F29000828
:102870001F2900081F2900081F2900081F29000818
:102880001F2900081F2900081F2900081F29000808
:102890001F2900081F2900081F2900081F290008F8
:1028A0001F2900081F2900081F2900081F290008E8
:1028B0001F2900081F2900081F2900081F290008D8
:1028C0001F2900081F2900081F2900081F290008C8
:1028D0001F290008553200081F2900081F29000879
:1028E0001F2900081F2900081F290008DFF810D041
:1028F00000F01AFA00480047BD3E0008AFF3008020
:10290000D01900200648804706480047FEE7FEE74A
:10291000FEE7FEE7FEE7FEE7FEE7FEE7FEE7FEE78F
:1029200001320008ED28000830B50B4601460020B2
:102930002022012409E021FA02F59D4205D303FA81
:1029400002F5491B04FA02F52844151EA2F1010202
:10295000F1DC30BD2DE9F05F0546002092469B4634
:1029600088460646814640241BE0284641464746A5
:10297000224600F0FAF953465A46C01A914110D344
:1029800011461846224600F0E1F92D1A67EB0108BE
:102990004F4622460120002100F0D8F917EB00092C
:1029A0004E41201EA4F10104DFDC484631462A4690
:1029B0004346BDE8F09F2DE9FE4F804681EA0300C3
:1029C000C00F0C46009021F0004123F00045B8EB09
:1029D0000200A94105D24046214690461C460B46BE
:1029E000024623F00040104347D0270DC7F30A00EA
:1029F000C3F30A510290401A019040286BDAC3F3E6
:102A0000130040F4801B0098924620B10023D2EBC3
:102A1000030A63EB0B0B01985946C0F14002504684
:102A200000F094F906460D4650465946019A00F0CA
:102A3000ACF910EB08006141002487EA115284EAE6
:102A4000E7731A4340D0009A62B3019A012A4FEA11
:102A5000075215DC001B61EB02014FF0004202EA55
:102A60000752CDE90042001C41F5801132462B4649
:102A700000F0ACF903B0BDE8F08F40462146F9E71D
:102A8000001B61EB0201001C41F5801300185B4143
:102A90002018A2F5001747EB030140EAD570B619DC
:102AA0006D4111E06D084FEA360645EAC0754FEA00
:102AB0000752001B61EB0201001C41F5801149081F
:102AC0004FEA30000019514132462B4603B0BDE8B1
:102AD000F04F00F06CB90098012240000023D0EBC9
:102AE000020263EBE073009821464FEAE074B8EB12
:102AF000000061EB0401E9E783F000435BE781F04C
:102B0000004158E72DE9FE4F81EA030404F0004438
:102B100021F0004100944FF0000B23F0004350EAF5
:102B200001045ED052EA03045BD0C3F30A54C1F33C
:102B30000A552C44A4F2F3340194A0FB0254C1F3CF
:102B4000130141F48011C3F3130343F4801301FB19
:102B5000024400FB034E840A970A44EA815447EA80
:102B60008357A4FB076802958D0A05FB07854FEA8A
:102B7000932C04FB0C542705029D4FEA065847EAA4
:102B80001637B5EB08056EEB070C870E920E47EA79
:102B9000811742EA8312A7FB0201B6EB0B0164EB3B
:102BA00000042B0D43EA0C335E1844EB1C50DA464C
:102BB0005146E7FB0201C5F313044FEA0B3343EA26
:102BC00014534FEA0432019C43EA0603A4F10C04B7
:102BD0000294009CCDE900B400F0F8F803B0BDE821
:102BE000F08F00200146F9E72DE9F04D81EA03045A
:102BF00004F0004B21F0004514464FF0000A23F08A
:102C0000004150EA050220D054EA01021DD0C5F36C
:102C10000A570246C5F31303C1F31300C1F30A5662
:102C200040F4801543F48013A7EB0608101BD6462A
:102C300008F2FD3873EB050002D308F1010801E04A
:102C400092185B41B8F1000F03DA00200146BDE89D
:102C5000F08D00204FF48011064684460EE0171BCD
:102C600073EB050705D3121B63EB050306434CEA20
:102C7000010C49084FEA300092185B4150EA010705
:102C8000EDD152EA030012D082EA040083EA050182
:102C9000084305D0101BAB4106D20122002306E0F9
:102CA00000224FF0004302E06FF0010253101AEBD4
:102CB00006004CEB085110EB0A0041EB0B01BDE89C
:102CC000F04D00F074B8C1F30A52C1F3130140F2A1
:102CD000FF3341F480119A4202DA00200146704726
:102CE00040F233439A42A2F2334202DC524200F0F5
:102CF0003CB800F02BB8000030B5041E71F10004A0
:102D000004DB4FF00044404264EB0101141E73F1F8
:102D1000000405DB1C464FF00043524263EB040302
:102D2000994208BF904230BD064C074D06E0E0686E
:102D300040F0010394E8070098471034AC42F6D302
:102D4000FFF7D8FDC4420008E4420008202A04DB53
:102D5000203A00FA02F1002070479140C2F12003AE
:102D600020FA03F3194390407047202A04DB203AED
:102D700021FA02F00021704721FA02F3D040C2F19B
:102D800020029140084319467047202A06DBCB17E2
:102D9000203A41FA02F043EAE07306E041FA02F316
:102DA000D040C2F12002914008431946704710B547
:102DB000141E73F1000408DA401C41F1000192185E
:102DC0005B411A4301D120F0010010BD2DE9F04D07
:102DD00092469B4611B1B1FA81F202E0B0FA80F25C
:102DE00020329046FFF7B2FF04460F4640EA0A0041
:102DF00041EA0B0153465A46084313D0114653EAA1
:102E0000010019D0C8F140025046FFF7AEFF054659
:102E10000E46504659464246FFF798FF084305D0F4
:102E2000012004E020463946BDE8F08D002005432E
:102E300046EAE0762C4337430A986305E40AA0EBA0
:102E400008000022FD0A44EA47540A3002D5002057
:102E50000146E9E7010510196941DDE90845001956
:102E60006941BDE8F04DA2E7FEE7704770B5054641
:102E70004FF43026304600F03FF8042811D1094CB9
:102E8000206940F0020020616561206940F0400047
:102E90002061304600F030F8216941F6FD721140A2
:102EA000216170BD0020024004200849CA68D20791
:102EB00001D001207047CA68520701D5022070472F
:102EC000C968C906FBD503207047000000200240F6
:102ED0000248016941F08001016170470020024011
:102EE0000348024941600349416070472301674537
:102EF00000200240AB89EFCD00B50346FFF7D4FFB9
:102F000002E0FFF7D1FF5B1E012801D1002BF8D1B1
:102F1000002B00D1052000BD2DE9F0410022CC7826
:102F200004F00F03E40601D58C7823430C784FF0AE
:102F30000F0714F0FF0F4FF0010C1CD005680CFABE
:102F400002F40E882640A64211D1960007FA06F830
:102F500025EA080503FA06F848EA0505CE78282E82
:102F600002D0482E02D002E0446100E00461521C0D
:102F7000082AE4D305600A88FF2A1ED94568002282
:102F800002F108060CFA06F40E882640A64210D17B
:102F9000960007FA06F825EA080503FA06F848EA53
:102FA0000505CE78282E00D14461CE78482E00D178
:102FB0000461521C082AE3D34560BDE8F081FEE7B6
:102FC000FEE7704770B50F23C27801260178002A0A
:102FD0001ED0144A126802F4E062C2F5E062120ADE
:102FE000C2F10404D3404578A54082781A402A43B0
:102FF000120101F1E02181F80024007800F01F01A6
:103000008E404009800000F1E020C0F8006170BDF2
:1030100001F01F0086404809800000F1E020C0F860
:10302000806170BD0CED00E0024908430249086070
:10303000704700000000FA050CED00E00907090EDA
:10304000002806DA00F00F0000F1E02080F8141DDF
:10305000704700F1E02080F80014704770470000CE
:10306000054A002903D0D1690143D1617047D16974
:103070008143D1617047000000100240054A0029D9
:1030800003D09169014391617047916981439161D6
:10309000704700000010024010B5264A516801F048
:1030A0000C01254B002927D0042927D0082927D037
:1030B0000360516801F0F0010909204B5C5C016874
:1030C000E1404160546804F4E064240A1C5D21FA84
:1030D00004F48460546804F46054E40A1B5DD9402D
:1030E000C160526802F44042920B144B1B1F9A5C61
:1030F000B1FBF2F1016110BD0360DAE70360D8E7CC
:10310000516801F47011536803F48033022404EB16
:10311000914133B153689B0307D5094B5943016073
:10312000C7E7074B59430160C3E7034B59430160AD
:10313000BFE700000010024000127A0004000020E7
:1031400000093D00704700F001B800000CB50022F6
:10315000019200922748016841F4803101604FF4E8
:10316000A063016801F4003100910199491C0191AB
:10317000009911B901999942F3D10168890302D5E7
:103180000121009100E000920099012930D11A49F3
:103190000A6842F010020A600A6822F003020A601C
:1031A0000A6842F002020A60416841604168416079
:1031B000416841F480614160416821F47C114160C3
:1031C000416841F4E8114160016841F0807101609B
:1031D00001688901FCD5416821F003014160416823
:1031E00041F0020141604168C1F381010229FAD135
:1031F0000CBD00000010024000200240704700009B
:1032000010B50F48016841F00101016041680D4AA5
:103210001140416001680C4A11400160016821F4CD
:1032200080210160416821F4FE0141604FF41F01DB
:103230008160FFF788FF06490448086010BD000060
:10324000001002400000FFF8FFFFF6FE0028000813
:1032500008ED00E0F8B5254C40F22551206800F05B
:1032600057F858B1206800F0EDF8C5B200F06EFDD7
:103270002946606900F0CAFE00F076FD40F227762C
:103280003146206800F044F840F2266580B120699C
:1032900000F0E8FEF0B100F059FD6946206900F049
:1032A0007EFE00F061FD9DF80010206800F0CEF871
:1032B0002946206800F02CF8002816D0206900F07C
:1032C000D1FE002811D129462068BDE8F84000222F
:1032D00000F03EB800223146206800F039F80122A3
:1032E0002946206800F034F8E2E7F8BD38420008CB
:1032F0008A05C94301807047002904D0818941F4BF
:10330000005181817047818921F40051818170478A
:1033100070B5002440F66A12C1F3421301F01F0594
:10332000012606FA05F2012B0CD0022B0DD0838A60
:103330001340090A8E40008830400BB100B10124CF
:10334000204670BD83891340F3E7038A1340F0E7FA
:1033500010B540F66A13C1F3421301F01F040121B6
:10336000A140012B07D0022B07D014303AB10268DC
:103370000A43026010BD0C30F8E71030F6E702682F
:103380008A43026010BD000030B585B004460D468A
:10339000208A4CF6FF710840E98801432182A08908
:1033A0004EF6F3110840A9882A8911436A8902431D
:1033B0001143A181A08A4FF6FF410840A98901432A
:1033C000A1826846FFF768FE1D48844201D1039838
:1033D00000E00298A189090408D500EBC00101EBC7
:1033E000001029684900B0FBF1F007E000EBC001D4
:1033F00001EB001029688900B0FBF1F06422B0FBFA
:10340000F2F109010B096FF018056B4300EB830023
:10341000A3891D044FF0320307D503EBC000B0FBB6
:10342000F2F000F00700084306E003EB0010B0FBE9
:10343000F2F000F00F000843208105B030BD00001D
:10344000003801408088C0F308007047C1F30801CC
:1034500081807047FEE700000FB4054B10B503A94B
:10346000044A029800F0DAF810BC5DF814FB000082
:10347000AD3E00083400002002E008C8121F08C159
:10348000002AFAD170477047002001E001C1121FE5
:10349000002AFBD1704700002DE9FF5F82B00021B8
:1034A000DDE90430020DDDF840B0034318D044F6E6
:1034B0001050A2F2FF3242431514119801281FD078
:1034C000A5EB0B00401C5FEA000A4FF000064E4FD0
:1034D000DFF83891B046504615D5CAF1000413E024
:1034E000119801244AA3012801D16FEA0B01029827
:1034F000119AC0E90031C0E9024206B0BDE8F09F70
:10350000CBF10000DFE704460021404A491842EBB6
:103510000450CDE9001012E0E00707D032463B46E8
:1035200040464946FFF7EEFA8046894632463B461A
:1035300010461946FFF7E6FA06460F466410002CBF
:10354000EAD1DDE90401DDE90023BAF1000F06DA72
:10355000FFF7D8FA42464B46FFF7D4FA05E0FFF7EB
:1035600043FB42464B46FFF73FFB04460E46002214
:10357000284BFFF7C1FB03D84FF0FF30014607E0AF
:103580000022254B20463146FFF715FAFFF79BFB3B
:10359000102409E0002C0ADB0A220023FFF7DAF9E5
:1035A000039B30321A55641E50EA0102F2D1641CAA
:1035B000039AC4F111031444119A012A03D0012281
:1035C00008430DD10AE0084304D000204FF0110B4E
:1035D000119072E7A3EB0B056D1E0DE05B4504DD5A
:1035E0004FF0000205F1010504E003DA4FF000029C
:1035F000A5F10105002AECD002981199C0E9023129
:10360000C0E9004579E70000000014400000F03FE9
:10361000300000000000F0430000E03F2DE9FF4FC4
:1036200095B09A46884606460025EEE1252877D1D2
:1036300000242746F94A0121039400E0044316F8C8
:10364000013F203B01FA03F01042F7D130782A28DD
:1036500011D06FF02F033078A0F13002092A16D86C
:10366000039A44F0020402EB820203EB420210448C
:10367000761C0390EFE758F8042B0392002A03DA34
:10368000504244F40054039044F00204761C307815
:103690002E2816D116F8010F44F004042A280DD064
:1036A0006FF02F023078A0F13003092B09D807EB17
:1036B000870302EB4303C718761CF3E758F8047B33
:1036C000761C30786C280FD006DC4C2817D0682880
:1036D0000DD06A2814D104E0742810D07A280FD1B4
:1036E0000DE044F400140AE044F4801401E044F4D2
:1036F00040147278824202D104F58014761C761C44
:10370000307866280BD013DC582877D009DC0028E5
:1037100075D04528F6D04628F4D047281AD193E131
:1037200018E0632835D0642879D0652812D18BE160
:10373000702873D008DC6728F1D069286FD06E2814
:103740000DD06F2806D1ACE073282CD0752874D02A
:10375000782853D05246179990476D1C54E1C4F312
:103760000250022809D003280DD0D8F800100428F0
:103770000DD00D6008F1040846E1D8F80010EA17F2
:10378000C1E90052F6E7D8F800100D80F2E70D709D
:10379000F0E718F8041B8DF8001000208DF80100E8
:1037A000EB46012003E058F804BB4FF0FF306107FF
:1037B0004FF0000102D40DE009F101018946B94240
:1037C0000FDA8145F8DB1BF809100029F4D108E075
:1037D00009F1010189468142FADB1BF80910002931
:1037E000F6D103985346A0EB090721463846179AAD
:1037F00000F080FA284400EB090507E044E008E106
:103800000DE01BF8010B524617999047B9F10109D9
:10381000F7D2534621463846179AF2E039E00A219A
:10382000C4F302524FF0000B0091022A06D058F860
:10383000040BC117032A09D00AE023E008F10700AE
:1038400020F00702F2E80201904605E000B2C1173D
:10385000042A01D140B2C117002906DA0A46002124
:10386000404261EB02012D2202E0220504D52B2209
:103870008DF80420012203E0E20701D02022F7E7BF
:10388000914657E00A2100E010214FF0000B009113
:103890000BE010214FF0000B44F0040408270091C6
:1038A00003E008204FF0000B0090C4F30252022AFC
:1038B00005D058F8040B0021032A08D008E008F1CD
:1038C000070020F00702F2E80201904603E080B210
:1038D000042A00D1C0B24FF0000922072AD532785D
:1038E000702A07D0DDF800C08CF0100C5CEA0B0CDD
:1038F00005D00EE040228DF80420012208E050EAB5
:10390000010306D030238DF804308DF80520022203
:103910009146009B83F0080353EA0B030AD150EA57
:10392000010201D1620705D530228DF804204FF045
:1039300001097F1E3278582A04D039A20C920CAAB1
:1039400002920BE03BA2F9E75B46009AFFF702F810
:103950000C9B9B5C029A521E0292137050EA010269
:10396000F2D1029804A9081A00F1200B600702D5D1
:1039700024F4803400E001275F4502DDA7EB0B0053
:1039800000E0002000EB0B01009003984944401A2E
:103990000390E00306D453462146179A039800F09B
:1039A000A9F90544002706E001A85246C05D179911
:1039B00090476D1C7F1C4F45F6DBE0030CD553464A
:1039C0002146179A039800F095F9054404E0302049
:1039D0005246179990476D1C0099481E0090002987
:1039E000F5DC08E00298029952460078491C0291E1
:1039F000179990476D1CBBF10001ABF1010BF1DC95
:103A00005BE100F065F90544761C307800287FF40E
:103A10000DAE19B02846BDE8F08F0000092801005E
:103A20003031323334353637383961626364656634
:103A300000000000303132333435363738394142F6
:103A40004344454600000000600700D4062708F103
:103A5000070020F00700F0E80223804603F0004C46
:103A60005FEA0C0001D097A009E0200501D596A0DF
:103A700005E0E00701D095A001E0AFF24C00139003
:103A8000307823F0004365280CD006DC452809D0A7
:103A900046281DD047287FD13BE0662818D06728EC
:103AA0007AD136E00021112F01DB112000E0781CD3
:103AB000CDE9000104A90CA8FFF7EEFCDDE90D013A
:103AC0000C9A4FF0000B07F10109109200914EE0A3
:103AD0004FF000400097CDE9011004A90CA8FFF7B2
:103AE000DBFCDDE90D020C9B0F994FF0000B9146BA
:103AF0001093009211B9791C00EB0109B7EB090092
:103B000003D4C0F1FF3B07F10109A9EB07000190C5
:103B100042E0012F00DA01270021112F01DD1120E1
:103B200000E03846CDE9000104A90CA8FFF7B4FC79
:103B3000DDE90D010C9A00914FF0000BB94610928F
:103B400021070FD4009A4A4503DA914601E0A9F112
:103B50000109B9F1010F05DD109AA9F10101515CCC
:103B60003029F4D0B84202DA10F1040F03DA01214F
:103B7000CDE9011010E0002803DC8344A9EB00012B
:103B800002E0411C494500DD8946A0EB0B00401CCA
:103B900001904FF000400290200705D4019848455D
:103BA00002DB4FF0FF30019000208DF84B000298AF
:103BB0000DF14B07B0F1004F25D002200C902B20C7
:103BC0000D90029800280CDA404202902D200D90B2
:103BD00007E00A210298FEF7A7FE3031029007F8AD
:103BE000011D0C99481E0C900029F2DC0298002857
:103BF000EFD1791E0D980870307800F0200040F069
:103C0000450007F8020D11A8C01BC01D02901398B3
:103C1000007800B1012000EB0901019801EBE0718F
:103C2000029801440398401A401E0390E00306D412
:103C300053462146179A039800F05CF80544139800
:103C4000007818B15246179990476D1CE00323D5B0
:103C500053462146179A039800F04CF805441BE0A0
:103C6000BBF1000F07DB0098584504DD1098179949
:103C700010F80B0001E01799302052469047019848
:103C80000BF1010B401E05F10105019004D12E201E
:103C90005246179990476D1CB9F10001A9F101092D
:103CA000DEDC05E017F8010B5246179990476D1CB2
:103CB0000299481E02900029F4DC53462146179AC7
:103CC00003989EE62D0000002B000000200000005D
:103CD0002DE9F041044600251E461746880404D409
:103CE00005E039462020B0476D1C641EF9D52846F2
:103CF000BDE8F0812DE9F041044600251E469046BE
:103D0000C80301D5302700E02027880404D505E04A
:103D100041463846B0476D1C641EF9D52846BDE8BB
:103D2000F08110B500F006F800F02CF8BDE8104066
:103D300000F020BA10B501214804FFF791F9BDE861
:103D40001040012144F20400FFF798B9054841688A
:103D5000491C06D04168491C41604068012800D1D7
:103D600072B670471400002005484168002906D04B
:103D70004168491E41604068002800D162B6704722
:103D80001400002070B54FF44070FFF74DF94FF06C
:103D9000FF350F212846FFF751F94FF0E02409497C
:103DA00061610F212846FFF749F90020A061072033
:103DB0002061FFF7CBFF044901200870FFF7D4FF13
:103DC000012070BD3F19010014000020012080F384
:103DD000138805480168054A01F4E0611143016058
:103DE000BFF34F8FFEE700000CED00E00400FA0582
:103DF0000EB519A0FFF730FB1DA11FA2CDE90021D0
:103E0000234A1AA0029020A31646A2F10C012148D1
:103E1000FFF722FB204C4FF4FA7500F075F80128EB
:103E200006D002280BD00328F7D1FFF7CFFFF4E725
:103E3000174932460C3919A0FFF70EFBEDE7FFF7E3
:103E40004FF82046FFF712F8FFF742F8284600F037
:103E50003CF8FFF7BBFFE0E74170706C6963617489
:103E6000696F6E2072756E2E0D0A000036344B009D
:103E700037324D487A00000041524D20436F727432
:103E800065782D4D3300000053544D33320000004F
:103E90000C2400086842000800240008666163746E
:103EA0006F72792025733B257300000010B504461E
:103EB000E1B2002000F078F9204610BD10B5FFF700
:103EC00030FFFFF795FF002010BD30B504464FF4DA
:103ED0007A7502E0284600F08DF9641E601CF9D165
:103EE00030BD70B505464FF4801406E02946002029
:103EF00000F026F908B1012070BD201EA4F10104D4
:103F0000F4DC002070BD00002DE9FC410020009091
:103F1000134C6D461DE000230020295CFF2914D0BE
:103F200004EBC0029DF804705268565CBE420AD190
:103F3000491CC9B22954515C09B1012305E014F8A8
:103F40003000BDE8FC81FF212954401C0328E4D344
:103F500023B101A8FFF7C5FF0028DCD10020F0E75E
:103F60001C00002000B50346184600F07BF858B14D
:103F700001280BD0DA8898885108B1EB500F07D987
:103F8000A1EB500080B200BD002000BD188900BD2B
:103F900040081989A0EB5200081A80B200BD30B564
:103FA00004460D462046FFF7DDFF90B1A288206849
:103FB00000EB5200007828702189A088491EB1EBDF
:103FC000500F08D1C14361F3000000F00100A08050
:103FD00007E0002030BD012101EB500161F34F00EB
:103FE000A080012030BD10B50379002403F0010347
:103FF00064F300038380837903F0010364F3000317
:10400000C380016022F00301018110BD70B5044638
:104010000D46204600F01DF888B1E188206800EBCD
:10402000510005702189E088491EB1EB500F08D17D
:10403000C14361F3000000F00100E08007E00020D0
:1040400070BD012101EB500161F34F00E0800120C0
:1040500070BD10B504462046FFF784FF2189081A79
:1040600080B210BD8188C0884A08B2EB500F07D1DA
:10407000C907B1EBC07F01D1002070470120704714
:104080000220704770B50D46002811D1094C2068F8
:1040900000280DD062892189606800F00DF829465A
:1040A000206800F02DF8207BBDE8704000F01DB8BE
:1040B00070BD00003842000838B505461446032399
:1040C0008DF80230ADF8001018218DF80310694604
:1040D0002846FEF721FFADF8004004218DF80310BB
:1040E00069462846FEF718FF38BD08B58DF8000070
:1040F00001208DF803006846FEF764FF08BD00004C
:104100007FB505460D4AD2E90734526ACDE901343C
:104110000392009169462846FFF736F9012240F2E2
:1041200025512846FFF714F940212846FFF7E0F80B
:1041300001212846FFF7E0F87FBD00003842000863
:1041400070B50D46002801D0002070BD084C606994
:10415000FFF708FF48B1FFF7F9FD29466069FFF74F
:104160001EFFFFF701FE012070BD002070BD0000A2
:104170003842000810B54FF4E1310020FFF782FF0C
:1041800007494FF48072A1F11800FFF72CFF054991
:10419000BDE810404FF40062A1F58670FFF723BF21
:1041A000D0000020D001002013B5012201A900F0A9
:1041B00001F81CBD2DE9F0410E461746002815D127
:1041C0000B4DFFF7C3FD002404E0315D2869FFF7C4
:1041D0001DFF641CBC42F8D3FFF7C6FD2868BDE88C
:1041E000F041012240F22771FFF7B2B8BDE8F0813B
:1041F00038420008F0B500281DD000EBC000C60012
:10420000FFF7A4FD4FF0E027BC69FFF7ADFD7D6926
:104210006D1C00220DE0FFF799FDBB69FFF7A4FDBF
:10422000A34202D8E01A024402E0E81A2044024401
:104230001C46B242EFD3F0BD0038014000080140F7
:104240000002000425000000B8000020C400002087
:10425000000000000000000000000C000000000052
:10426000757067726164650056657273696F6E3A46
:104270002025730D0A5075626C697368206461743F
:10428000653A2025730D0A4D43553A2025730D0AD2
:10429000436F72653A2025730D0A467265713A20A4
:1042A00025730D0A466C61736820737A69653A203C
:1042B00025730000726573657400000066616374A5
:1042C0006F72790004F00008000000203800000040
:1042D000783400083CF000083800002098190000ED
:1042E000883400080000000000000000000000000A
:1042F00000000000000000000000000000000000BE
:1043000000000000000000000000000000000000AD
:10431000000000000000000000000000000000009D
:10432000000000000000000000000000000000008D
:10F0000000000000020406080000000001020304E2
:10F0100001020304060708090000000000000000C8
:10F0200001000000BC42000802000000604200082D
:0CF0300003000000B442000800000000D3
:04000005080028EDDA
:00000001FF
